:400000000080002011000000AD010000AD01000080B500AF024A034B1B68136000F0CAF8BC760040FA4600400800022300000876080003230000107608000423000028766F
:40004000050005230000207005000623000030700500FE23000060706000082200001051100009220000C0511000FE220000F051FF0F0B220000000001000C220000FF0FDF
:4000800000080D2200000014000A0E220000004000020F220000004C2000FE22000000500700FE230000005201000000010000000100000000480040010000000020014005
:4000C000010000000020004010B5054C237833B9044B13B10448AFF300800123237010BD1081FF1F00000000AC060000084B10B51BB108480849AFF300800848036803B97E
:4001000010BD074B002BFBD0BDE81040184700BF00000000AC0600001481FF1F0881FF1F0000000080B500AF0B4B0B4A1278D2B2D2B222F00E02D2B242F00C02D2B2D2B27C
:400140001A70064A054B1B78DBB243F00803DBB2137000F005F8FCE7035000400051004080B483B000AF104A0F4B1B78DBB223F00803DBB213700023FB8002E0FB880133A4
:40018000FB80FB8840F275229342F7D9064A064B1B78DBB243F00803DBB213700C37BD465DF8047B704700BF0051004080B400AFFEE700BF80B586B000AF224B7B61224B4C
:4001C0003B61204B7B6135E03B691B68FB603B695B68BB603B699B683B6000237B600CE0FB681A68BB681A60BB680433BB60FB680433FB607B6804337B607A683B689A4295
:40020000EED13B69DB683B6000237B6008E0BB6800221A60BB680433BB607B6804337B607A683B689A42F2D13B6910333B617B69013B7B617B69002BC6D100F005FAFFF740
:4002400071FFFEE7010000001407000080B582B000AF174B174A1A60174A174B1B6843F40073136000237B600FE07B68032B04D8124A7B6852F8233000E0114B11497A6829
:4002800041F822307B6801337B607B682F2BECD90D4B1B78DAB20D4B1A700D4B094A1A6000F066F90B4B00221A600837BD4680BD0CED00E00004FA0514ED00E000000000C4
:4002C000AD0100000080FF1FBC7600400481FF1F08ED00E00081FF1F80B584B000AFF860B9607A60F868B9687A6800F0D3F91037BD4680BD80B483B000AF0346FB71FEE770
:4003000080B483B000AF3D4B00221A603C4B10221A703C4B01221A703B4B00221A703B4B80221A803A4B01221A703A4B03221A70394B3A4A92B21A80394B47F608021A8067
:40034000384B00221A80384B4FF480421A80374B07221A70364B0A221A70364B10221A70BFF35F8F344B01221A70BFF35F8F00BF264B1B889BB2002BFAD100237B600DE006
:400380007B68DA002D4B134419462D4A7B6852F823309BB20B807B6801337B607B680F2BEED9BFF35F8F244B01221A70BFF35F8F00BF244B1B78DBB203F00103002BF8D118
:4003C00000BF214B1B78DBB203F00103002BF8D100BF1E4B1B78DBB203F00103002BF8D100BF1B4B1B78DBB203F00103002BF8D10C37BD465DF8047B704700BF3081FF1F05
:400400000076004010700040197000400078004002780040037800400478004028000000067800400476004006760040297000403970004069700040147000400C780040D5
:40044000B00600001870004028700040387000406870004080B582B000AF294B02221A704FF0402308221A70264B03221A70264B264A1278D2B21A70254B40F242221A805F
:40048000244B41F251221A800023FB7019237B6014E0FB785B00DAB21F4B1B78DBB203F00103DBB21343DBB203F00303FB704FF4F07000F0B9F87B68013B7B607B68002BF9
:4004C00002D0FB78032BE4D17B68002B02D10320FFF710FF114B4FF480721A800F4B07221A700F4B00221A700E4B48221A700B4B00221A700C4B02221A700837BD4680BDBA
:400500000043004000420040A1460040080100492242004020420040254200400440004006400040084000400140004080B483B000AF0B4B1B78FB710A4AFB7903F007030D
:40054000DBB21370084AFB791B09DBB21370074B44221A700C37BD465DF8047B704700BFCF0100496E5800406F5800407658004080B500AF72B6224B01221A70FFF76AFFE6
:40058000204A204B1B78DBB243F00403DBB21370FFF7B6FE1C4A1C4B1B78DBB243F00203DBB21370194A194B1B78DBB243F00203DBB21370164A164B1B78DBB243F0400397
:4005C000DBB21370134A134B1B78DBB243F01003DBB21370104811490A22FFF77DFE104A0F4B1B78DBB243F00803DBB21370FFF79DFF0C4806490E22FFF76EFE80BD00BF86
:4006000000480040E84600400350014013500140A0430040C2430040005100400800004822430040B04300400230800803D000BF01380046FCD17047EFF3108072B67047CB
:4006400080F31088704700BF0E4B70B51E460E4C0025E41AA410A54204D056F8253098470135F8E700F044F8084B094C1E46E41AA4100025A54204D056F825309847013512
:40068000F8E770BDFC060000FC060000FC0600000407000010B5431E0A44914204D011F8014B03F8014FF8E710BD000000000000C0000000B8000000B0000000A8000000E6
:4006C000A8000000A80000003081FF1F3081FF1F3081FF1F3081FF1F3081FF1F3081FF1F3081FF1F3081FF1F3081FF1F00000048F8B500BFF8BC08BC9E467047ED000000AF
:400700004D020000F8B500BFF8BC08BC9E467047C9000000280700000881FF1F0800000028000000000000000000000000000000000000000000000000000000000000001C
:400740000000000000000000000000000000000000000000000000000000000000000000000000000000000000000000000000000000000000000000000000000000000079
:400780000000000000000000000000000000000000000000000000000000000000000000000000000000000000000000000000000000000000000000000000000000000039
:4007C00000000000000000000000000000000000000000000000000000000000000000000000000000000000000000000000000000000000000000000000000000000000F9
:4008000000000000000000000000000000000000000000000000000000000000000000000000000000000000000000000000000000000000000000000000000000000000B8
:020000040003F7
:0200000480007A
:4000000000000000010000000400010E0E0000000000000000000000000000000000000000000000000000000000000000000000000000000000000000000000000000009E
:400040000000000000000000000000000000000000000000000000000000000000000000000000000000000000000000000000000000000000000000000000000000000080
:400080000000000000000000000000000000000000000000000000000000000000000000000000000000000000000000000000000000000000000000000000000000000040
:4000C0000000000000000000000000000000000000000000000000000000000000000000000000000000000000000000000000000000000000000000000000000000000000
:4001000000000000000000000000000000000000000000000000000000000000000000000000000000000000000000000000000000000000000000000000000000000000BF
:0200000490006A
:0400000000004005B7
:0200000490105A
:04000000BC90ACAF55
:0200000490303A
:0200000057891E
:0200000490402A
:4000000000000000000000000000000000000000000000000000000000000000000000000000000000000000000000000000000000000000000000000000000000000000C0
:400040000000000000000000000000000000000000000000000000000000000000000000000000000000000000000000000000000000000000000000000000000000000080
:400080000000000000000000000000000000000000000000000000000000000000000000000000000000000000000000000000000000000000000000000000000000000040
:4000C0000000000000000000000000000000000000000000000000000000000000000000000000000000000000000000000000000000000000000000000000000000000000
:0200000490501A
:0C00000000012E12306900012E1487F25E
:00000001FF