:400000000080002011000000153500001535000080B500AF024A034B1B68136003F07EFABC760040FA46004010B5054C237833B9044B13B10448AFF300800123237010BD08
:400040002081FF1F00000000183F0000084B10B51BB108480849AFF300800848036803B910BD074B002BFBD0BDE81040184700BF00000000183F00002481FF1F0881FF1F63
:400080000000000080B500AF4B4B00221A704A4B1B780133DAB2484B1A7000F03DFC0346002B01D1002384E0434B1B780133DAB2414B1A7000F044FC0346002B01D100238F
:4000C00077E03D4B1B780133DAB23B4B1A7000F075FD0346002B01D100236AE0364B1B780133DAB2344B1A7000F0BAFD0346002B01D100235DE0304B1B780133DAB22E4B38
:400100001A7000F003FE0346002B01D1002350E0294B1B780133DAB2274B1A7001F004F80346002B01D1002343E0234B1B780133DAB2214B1A7001F0E5FD0346002B01D19F
:40014000002336E01C4B1B780133DAB21A4B1A7002F034F80346002B01D1002329E0164B1B780133DAB2144B1A7002F0CBF90346002B01D100231CE00F4B1B780133DAB2A8
:400180000D4B1A7002F000FB0346002B01D100230FE0094B1B780133DAB2074B1A7002F019FC0346002B01D1002302E002F056FD0123184680BD00BF3E81FF1F80B582B03C
:4001C00000AF62B603F036FC0020002103F042FC204803F075FCFFF755FF0346FB71012003F0B0FCFB79012B07D10020002103F031FC194803F064FC2AE00020002103F04B
:4002000029FC164803F05CFC154B1B78184603F0F7FD02F029FD0346BB710120002103F019FC104803F04CFCBB79184603F0CCFDBB7903F02003002B0AD002F021FD034658
:400240007B71094803F03CFC7B79184603F0BCFDFEE700BF1C3F0000303F0000403F00003E81FF1F503F0000583F000080B485B000AF78600023FB730BE0FB7B7A6813440D
:40028000FA7BC2F1030207498A5C1A70FB7B0133FB73FB7B032BF0D91437BD465DF8047B704700BF6CC4030080B485B000AF78600023FB7309E0FB7B7A681344FA7B074923
:4002C0008A5C1A70FB7B0133FB73FB7B032BF2D91437BD465DF8047B704700BF60C3030080B485B000AF78600023FB7309E0FB7B7A681344FA7B07498A5C1A70FB7B013351
:40030000FB73FB7B032BF2D91437BD465DF8047B704700BF64C3030090B484B000AF03463A60FB800B46BB80FB88B3F5487F18D20023FB8110E0FB893A68D118FA88F88990
:40034000114C1346DB0013445B01034423441B780B70FB890133FB81FA89BB889A42EAD30EE00023FB8107E0FB893A68134400221A70FB890133FB81FA89BB889A42F3D3B1
:400380001037BD4690BC7047603F000080B485B000AF03463960FB800023FB8109E0FB893A681344FA8907498A5C1A70FB890133FB81FA89FB889A42F1D31437BD465DF817
:4003C000047B70476CC3030080B485B000AF78600023FB7309E0FB7B7A681344FA7B07498A5C1A70FB7B0133FB73FB7B012BF2D91437BD465DF8047B704700BF68C30300FC
:4004000080B400AF4FF480631846BD465DF8047B704700BF80B400AF4FF490731846BD465DF8047B704700BF80B400AF04231846BD465DF8047B704780B582B000AF002305
:40044000FB710023BB80724B714A1278D2B2D2B222F00E02D2B242F00C02D2B2D2B21A706C4A6C4B1B78DBB243F00403DBB21370694B694A1278D2B2D2B222F00E02D2B2BA
:4004800042F00C02D2B2D2B21A70624A614B1B78DBB223F00203DBB21370604B5F4A1278D2B2D2B222F00E02D2B242F00C02D2B2D2B21A70574A574B1B78DBB223F00103F2
:4004C000DBB21370534A534B1B78DBB223F00403DBB2137003F00AF84E4A4E4B1B78DBB243F00403DBB213700023BB8012E0494A484B1B78DBB223F00203DBB21370454A8A
:40050000444B1B78DBB243F00203DBB21370BB880133BB80BB887C2BE9D9414B99221A70404B7B22DA703F4B0C229A703D4B06225A703C4BDB221A70002002F0ADFDFB79A9
:400540000133FB71384B1B78012B02D0FB79062BF2D9354B1B78012B05D0334B1B7843F01003DBB250E02E4B8B221A702D4B4022DA702C4B05229A702A4B02225A70294BDC
:4005800010221A70012002F087FDFB790133FB71254B1B78022B02D1FB79062BF2D9224B1B78012B05D0204B1B7843F01003DBB22AE01B4BBB221A701A4BEA22DA70194B99
:4005C0007E229A70174B30225A70164BA9221A70012002F061FDFB790133FB71124B1B78022B02D1FB79062BF2D9FB79072B03D80D4B1B78012B05D00B4B1B7843F010039C
:40060000DBB201E0084B1B7818460837BD4680BD025000400051004001500040005000404581FF1F4081FF1F4481FF1F80B500AF02F0FCFE02F01AFF02F0BCFE02F08EFE9A
:4006400002F034FF02F052FF02F020FF02F0C8FE80BD00BF80B582B000AF0023FB80234B8B221A70224B4022DA70214B00229A701F4B47225A701E4B22221A7002F0CCFCB5
:400680001C4B1B78012B01D000232BE0174B9F221A7002F063FC174B1B78012B01D0002320E002F05BFC134B1B78012B01D0002318E0FB880133FB800D4B9B78022B03D013
:4006C000FB88B3F5595FECD9094B9B78022B01D1012307E0074B1B7843F02003DAB2054B1A70002318460837BD4680BD4581FF1F4081FF1F4481FF1F80B582B000AF244B15
:400700008B221A70234B4022DA70224B00229A70204B47225A701F4B22221A7002F07CFC1D4B1B78012B01D000232DE0184B9F221A7002F013FC184B1B78012B01D00023A2
:4007400022E00023FB8002F009FC134B1B78012B01D0002318E0FB880133FB800D4B9B78012B03D0FB88B3F5595FECD9094B9B78012B01D1012307E0074B1B7843F02003EA
:40078000DAB2054B1A70002318460837BD4680BD4581FF1F4081FF1F4481FF1F80B582B000AF786039604E4B8B221A704D4B4022DA704C4B00229A704A4B47225A70494B73
:4007C00020221A7002F028FC474B1B78012B01D0002380E0434B0022DA70424B00229A70404B00225A703E4BBB221A703D4BB6221A7002F011FC3C4B1B78012B01D0002335
:4008000069E0384BE1221A7002F006FC364B1B78012B01D000235EE0324B0E221A7002F0FBFB314B1B78012B01D0002353E02D4B03221A7002F0F0FB2B4B1B78012B01D06E
:40084000002348E0FFF758FF0346002B01D1002341E0234B8B221A70224B4022DA70214B00229A701F4B47225A701E4B20221A7002F0D2FB1C4B1B78012B01D000232AE04B
:40088000174B9F221A7002F069FB174B1B78012B01D000231FE002F061FB134B1B78012B01D0002317E00F4B1A787B681A7002F055FB0D4B1B78012B01D000230BE0094BE6
:4008C0001A783B681A70FFF7C5FE0346012B01D1012300E0002318460837BD4680BD00BF4581FF1F4081FF1F4481FF1F80B500AF02F024FD064BA5221A7002F02FFB054BCB
:400900001B78012B01D0002300E00123184680BD4581FF1F4481FF1F80B500AFFFF78CFD03461A46054B1A70044B1B78012B01D0002300E00123184680BD00BF4481FF1F75
:4009400080B500AFFFF7D2FF0346002B01D100232BE1974BA9221A70964B5022DA70954B00229A70934B00225A70924B00221A7002F052FB904B1B78012B01D0002314E162
:400980008B4BB1221A708B4B0022DA70894B00229A70884B00225A70864B00221A7002F03BFB854B1B78012B01D00023FDE0804BA3221A707F4B2222DA707E4B00229A7097
:4009C0007C4B00225A707B4B02221A7002F024FB794B1B78012B01D00023E6E0744B8B221A70744BE022DA70724B00229A70714BED225A706F4BF0221A7002F00DFB6E4BFA
:400A00001B78012B01D00023CFE0694BBB221A70684BA022DA70674B5F229A70654B00225A70644B01221A7002F0F6FA624B1B78012B01D00023B8E05D4B8B221A705D4BE4
:400A40004022DA705B4B08229A705A4B00225A70584B0C221A7002F0DFFA574B1B78012B01D00023A1E0524BBB221A70514B0022DA70504B00229A704E4B00225A704D4B73
:400A800002221A7002F0C8FA4B4B1B78012B01D000238AE0464B8B221A70464B4022DA70444B00229A70434B43225A70414BA0221A7002F0B1FA404B1B78012B01D00023F1
:400AC00073E03B4BBB221A703A4B0022DA70394B00229A70374B00225A70364BBF221A7002F09AFA344B1B78012B01D000235CE02F4B8B221A702F4B4022DA702D4B002256
:400B00009A702C4B42225A702A4B00221A7002F083FA294B1B78012B01D0002345E0244BBB221A70234B0022DA70224B00229A70204B00225A701F4B02221A7002F06CFA1A
:400B40001D4B1B78012B01D000232EE0184B8B221A70184B4022DA70164B00229A70154B46225A70134BE8221A7002F055FA124B1B78012B01D0002317E00D4BBB221A708B
:400B80000C4B0022DA700B4B00229A70094B00225A70084B40221A7002F03EFA064B1B78012B01D0002300E00123184680BD00BF4581FF1F4081FF1F4481FF1F80B582B0D8
:400BC00000AF3B461846FFF751FB224B8B221A70214B4022DA70204B08229A701E4B00225A701D4B1C221A7002F016FA1B4B1B78012B01D0002328E0164B9F221A7002F084
:400C0000FDF9164B1B78012B01D000231DE00023FB7116E0FB79104AD25CFB7907F108010B4413F8083C9A4208D00C4B1B7843F04003DAB2094B1A70002306E0FB790133EA
:400C4000FB71FB79032BE5D9012318460837BD4680BD00BF4581FF1F4081FF1F4481FF1F80B500AF264B8B221A70264B4022DA70244B00229A70234B47225A70214B2022AF
:400C80001A7002F0C9F9204B1B78012B01D0002334E01B4BBB221A701A4B0022DA70194B00229A70174B00225A70164BB6221A7002F0B2F9144B1B78012B01D000231DE0D9
:400CC000104BDC221A7002F0A7F90F4B1B78012B01D0002312E00B4B09221A7002F09CF9094B1B78012B01D0002307E0FFF7B2FC0346012B01D1012300E00023184680BD53
:400D00004581FF1F4081FF1F4481FF1F80B584B000AF07F108031846FFF7C6FA0023FB7394E0B14B8B221A70B04B4022DA70AF4B00229A70AD4B47225A70AC4B20221A70EB
:400D400002F06AF9AA4B1B78012B01D00023E1E1A54BBB221A70A54B0022DA70A34B00229A70A24B00225A70A04BB6221A7002F053F99F4B1B78012B01D00023CAE19B4B55
:400D8000D6221A7002F048F9994B1B78012B01D00023BFE1954B03221A7002F03DF9944B1B78012B01D00023B4E1904B80221A7002F032F98E4B1B78012B01D00023A9E12F
:400DC0008A4AFB7B137002F027F9894B1B78012B01D000239EE1FFF78FFC0346002B01D1002397E1804B8B221A70804B4022DA707E4B00229A707D4B47225A707B4B20223B
:400E00001A7002F009F97A4B1B78012B01D0002380E1754B9F221A7002F0F0F8744B1B78012B01D0002375E1FB7B704A127807F110010B4403F80C2CFFF70CFC0346002BF7
:400E400001D1002366E1FB7B0133FB73FB7B032B7FF667AF0023BB7300237B7300233B730023FB731FE0FB7B07F11002134413F80C2CFB7B07F110010B4413F8083C9A4219
:400E80000ED00123BB73FB7B032B09D1FA79FB7A5340DBB203F00803002B01D001237B73FB7B0133FB73FB7B032BDCD9BB7B012B40F01E81BB7ADBB25BB2002B06DA3B7940
:400EC00003F00C03082B01D0012300E000233B733B7B012B35D1444B8B221A70434B4022DA70424B00229A70404B50225A703F4B0A221A7002F090F83D4B1B78012B01D0DD
:400F0000002307E1384B9F221A7002F077F8384B1B78012B01D00023FCE0344B9B78DBB223F00F03DBB243F00503DBB2DAB22F4B9A7002F071F82E4B1B78012B01D0002335
:400F4000E8E00023FB737AE0274B8B221A70274B4022DA70254B00229A70244B47225A70224B20221A7002F057F8214B1B78012B01D00023CEE01C4BBB221A701B4B00221C
:400F8000DA701A4B00229A70184B00225A70174BB6221A7002F040F8154B1B78012B01D00023B7E0114BD3221A7002F035F8104B1B78012B01D00023ACE00C4B00221A70D8
:400FC00002F02AF80A4B1B78012B01D00023A1E0064B80221A7002F01FF8054B1B78012B08D0002396E000BF4581FF1F4081FF1F4481FF1F494AFB7B137002F00DF8484BD3
:401000001B78012B01D0002384E0FB7B07F11002134413F8082C414B1A7001F0FDFF404B1B78012B01D0002374E0FFF713FB0346002B01D100236DE0FB7B0133FB73FB7BA6
:40104000032B81D9374B8B221A70344B4022DA70324B00229A70314B47225A702F4B20221A7001F0D9FF2E4B1B78012B01D0002350E02C4BBB221A70284B0022DA70274B12
:4010800000229A70254B00225A70244BB6221A7001F0C2FF224B1B78012B01D0002339E01E4BD9221A7001F0B7FF1D4B1B78012B01D000232EE0194B06221A7001F0ACFF7C
:4010C000174B1B78012B01D0002323E0134B80221A7001F0A1FF124B1B78012B01D0002318E0FFF7B7FA0346002B01D1002311E07B7B012B0DD1FFF70FFC0346012B01D06D
:40110000002307E0FFF71CFC0346012B01D0002300E0012318461037BD4680BD4081FF1F4481FF1F4581FF1F80B5CEB000AFFFF767F90346A7F82E31FFF76CF90346A7F85D
:401140002C31FFF771F9034687F82B3107F2271207F5937310461946FFF720FB0346002B02D1002300F0C1BD07F2271207F5937310461946FFF712FB0346002B02D1002366
:4011800000F0B3BDC14BA3221A70C14B2222DA70BF4B00229A70BE4B00225A70BC4B02221A7001F039FFBB4B1B78012B02D0002300F09BBD002387F8373100F087BD97F802
:4011C000372197F82B31013B9A420DD197F837319BB21A461202D31A1B029AB2B7F82E311344A7F8303103E04FF48073A7F8303197F837319BB21B02A7F828310023A7F80F
:40120000343100F057BDB7F83421B7F82831134499B2B7F82C213B1D084611461A46FFF77BF89A4B8B221A70994B2022DA70984B00229A70964B00225A70954B00221A70E1
:4012400001F0EAFE934B1B78012B02D0002300F04CBD8E4BBB221A708D4A97F83731D3708B4B02229A708A4BD5225A70884BB6221A7001F0D1FE874B1B78012B02D00023A4
:4012800000F033BD0023A7F832314BE07F4B8B221A707F4B2022DA707D4B00229A70B7F8323104331B0ADAB2794B5A70B7F83231DBB20433DAB2764B1A7001F0ADFE754B22
:4012C0001B78012B02D0002300F00FBD6F4BBB221A70B7F8323103333A1DD25C6C4BDA70B7F8323102333A1DD25C694B9A70B7F8323101333A1DD25C654B5A70B7F83231AE
:401300003A1DD25C624B1A7001F086FE614B1B78012B02D0002300F0E8BCB7F832310433A7F83231B7F83221B7F82C319A42ADD3564B8B221A70564B2022DA70544B00220D
:401340009A70B7F82C3104331B0ADAB2504B5A70B7F82C31DBB20433DAB24D4B1A7001F05BFE4C4B1B78012B02D0002300F0BDBC464BBB221A70464BB622DA70444B002232
:401380009A70434B00225A70414B00221A7001F043FE404B1B78012B02D0002300F0A5BC3A4B8B221A703A4B2022DA70384B00229A70B7F82C3108331B0ADAB2344B5A70F2
:4013C000B7F82C31DBB20833DAB2314B1A7001F023FE304B1B78012B02D0002300F085BC2A4BBB221A702A4B0022DA70284A97F837319370264B07225A70254BDA221A7092
:4014000001F00AFE234B1B78012B02D0002300F06CBC1E4B8B221A701D4B2022DA701C4B00229A70B7F82C310C331B0ADAB2184B5A70B7F82C31DBB20C33DAB2144B1A70DC
:4014400001F0EAFD134B1B78012B02D0002300F04CBC0E4BBB221A700D4B0022DA7097F826210B4B9A7097F82721094B5A70B7F83431DAB2064B1A7001F0CEFD054B1B78C1
:40148000012B09D0002300F030BC00BF4581FF1F4081FF1F4481FF1FAE4B8B221A70AE4B4022DA70AC4B00229A70AB4B70225A70A94B18221A7001F0AFFDA84B1B78012B72
:4014C00002D0002300F011BCA24BBB221A70A24B0022DA70A04B00229A709F4B00225A709D4B00221A7001F097FD9C4B1B78012B01D00023F9E3974B8B221A70964B4022B5
:40150000DA70954B00229A70934B70225A70924B10221A7001F080FD904B1B78012B01D00023E2E38B4BBB221A708B4B0022DA70894B00229A70884B00225A70864B21226F
:401540001A7001F069FD854B1B78012B01D00023CBE3804B8B221A707F4B4022DA707E4B00229A707C4B76225A707B4B00221A7001F052FD794B1B78012B01D00023B4E303
:40158000744BBB221A70744B0022DA70724B00229A70714B00225A706F4B80221A7001F03BFD6E4B1B78012B01D000239DE3694B8B221A70684B4022DA70674B00229A7026
:4015C000654B76225A70644B04221A7001F024FD624B1B78012B01D0002386E35D4BBB221A705D4B4022DA705B4B00229A705A4B20225A70584B00221A7001F00DFD574BCD
:401600001B78012B01D000236FE3524B8B221A70514B4022DA70504B00229A704E4B78225A704D4B00221A7001F0F6FC4B4B1B78012B01D0002358E3464BBB221A70B7F873
:401640002C21474B13441B0EDAB2434BDA70B7F82C21434B13441B0CDAB23F4B9A70B7F82C213F4B13441B0ADAB23B4B5A70B7F82C31DBB20F33DAB2374B1A7001F0CCFC75
:40168000364B1B78012B01D000232EE3314B8B221A70314B4022DA702F4B00229A702E4B78225A702C4B04221A7001F0B5FC2B4B1B78012B01D0002317E3264BBB221A70C3
:4016C000254B4722DA70244B20229A70224B00225A70214B00221A7001F09EFC1F4B1B78012B01D0002300E3FEF7B4FF0346002B01D10023F9E2174B8B221A70164B4022C8
:40170000DA70154B00229A70134B70225A70124B14221A7001F080FC104B1B78012B01D00023E2E20B4BBB221A700B4B0022DA70094B00229A70084B00225A70064B01220B
:401740001A7001F069FC054B1B78012B0AD00023CBE200BF4581FF1F4081FF1F4481FF1F0F00FF01B7F834310133A7F83431B7F83421B7F82831134499B2B7F82C213B1D0E
:40178000084611461A46FEF7C7FDB94B8B221A70B84B2022DA70B74B00229A70B54B02225A70B44B00221A7001F036FCB24B1B78012B01D0002398E2AD4BBB221A70AD4A37
:4017C00097F83731D370AB4B02229A70A94BD5225A70A84BB6221A7001F01EFCA64B1B78012B01D0002380E20023A7F832314AE09F4B8B221A709F4B2022DA709D4B002280
:401800009A70B7F8323103F501731B0ADAB2994B5A70B7F83231DBB20433DAB2954B1A7001F0FAFB944B1B78012B01D000235CE28F4BBB221A70B7F8323103333A1DD25C31
:401840008C4BDA70B7F8323102333A1DD25C894B9A70B7F8323101333A1DD25C854B5A70B7F832313A1DD25C824B1A7001F0D4FB814B1B78012B01D0002336E2B7F83231E1
:401880000433A7F83231B7F83221B7F82C319A42AED3774B8B221A70764B2022DA70754B00229A70B7F82C3103F501731B0ADAB2704B5A70B7F82C31DBB20433DAB26D4B90
:4018C0001A7001F0A9FB6C4B1B78012B01D000230BE2674BBB221A70664BB622DA70654B00229A70634B00225A70624B00221A7001F092FB604B1B78012B01D00023F4E106
:401900005B4B8B221A705B4B2022DA70594B00229A70B7F82C3103F502731B0ADAB2554B5A70B7F82C31DBB20833DAB2514B1A7001F072FB504B1B78012B01D00023D4E14D
:401940004B4BBB221A704B4B0022DA70494A97F837319370474B07225A70464BDA221A7001F05AFB444B1B78012B01D00023BCE13F4B8B221A703F4B2022DA703D4B002299
:401980009A70B7F82C3103F503731B0ADAB2394B5A70B7F82C31DBB20C33DAB2354B1A7001F03AFB344B1B78012B01D000239CE12F4BBB221A702F4B0022DA7097F82621C4
:4019C0002C4B9A7097F827212A4B5A70B7F83431DAB2284B1A7001F01FFB274B1B78012B01D0002381E1224B8B221A70214B4022DA70204B00229A701E4B70225A701D4BA1
:401A000028221A7001F008FB1B4B1B78012B01D000236AE1164BBB221A70164B0022DA70144B00229A70134B01225A70114B00221A7001F0F1FA104B1B78012B01D000231D
:401A400053E10B4B8B221A700A4B4022DA70094B00229A70074B70225A70064B20221A7001F0DAFA044B1B78012B07D000233CE14581FF1F4081FF1F4481FF1F9D4BBB2204
:401A80001A709D4B0022DA709B4B00229A709A4B00225A70984B21221A7001F0BDFA974B1B78012B01D000231FE1924B8B221A70914B4022DA70904B00229A708E4B762264
:401AC0005A708D4B08221A7001F0A6FA8B4B1B78012B01D0002308E1864BBB221A70864B0022DA70844B00229A70834B00225A70814B80221A7001F08FFA804B1B78012B67
:401B000001D00023F1E07B4B8B221A707A4B4022DA70794B00229A70774B76225A70764B0C221A7001F078FA744B1B78012B01D00023DAE06F4BBB221A706F4B4022DA70CF
:401B40006D4B00229A706C4B20225A706A4B00221A7001F061FA694B1B78012B01D00023C3E0644B8B221A70634B4022DA70624B00229A70604B78225A705F4B08221A7081
:401B800001F04AFA5D4B1B78012B01D00023ACE0584BBB221A70B7F82C21594B13441B0EDAB2554BDA70B7F82C21554B13441B0CDAB2514B9A70B7F82C21514B13441B0A09
:401BC000DAB24D4B5A70B7F82C31DBB20F33DAB2494B1A7001F020FA484B1B78012B01D0002382E0434B8B221A70434B4022DA70414B00229A70404B78225A703E4B0C2262
:401C00001A7001F009FA3D4B1B78012B01D000236BE0384BBB221A70374B4722DA70364B20229A70344B02225A70334B00221A7001F0F2F9314B1B78012B01D0002354E0DE
:401C4000FEF708FD0346002B01D100234DE0294B8B221A70284B4022DA70274B00229A70254B70225A70244B24221A7001F0D4F9224B1B78012B01D0002336E01D4BBB2228
:401C80001A701D4B0022DA701B4B00229A701A4B00225A70184B01221A7001F0BDF9174B1B78012B01D000231FE0B7F834310133A7F83431B7F83421B7F830319A42FFF4E9
:401CC000A2AA97F83731013387F8373197F8372197F82B319A42FFF472AAFEF7BBFC0346002B01D1002300E00123184607F59C77BD4680BD4581FF1F4081FF1F4481FF1F5D
:401D00000F00FF0180B5ADF5167D00AFFEF778FB0346A7F84E32FEF77DFB0346A7F84C32FEF782FB034687F84B32002387F8573231E297F8572297F84B32013B9A420DD1D9
:401D400097F857329BB21A461202D31A1B029AB2B7F84E321344A7F8503203E04FF48073A7F8503297F857329BB21B02A7F848320023A7F8543202E2B7F85422B7F848323E
:401D8000134499B2B7F84C2207F59273084611461A46FEF7C1FAB7F854321B02C7F84432B74B8B221A70B74B4022DA70B54B00229A70B44B47225A70B24B20221A7001F028
:401DC0002BF9B14B1B78012B01D00023EBE1AC4BBB221A70AB4B0022DA70AA4B00229A70A84B00225A70A74BB6221A7001F014F9A54B1B78012B01D00023D4E1A04BBB2212
:401E00001A70A04B0022DA709E4B00229A709D4B00225A709B4BD7221A7001F0FDF89A4B1B78012B01D00023BDE1964B04221A7001F0F2F8944B1B78012B01D00023B2E1C2
:401E4000904A97F85732137001F0E6F88E4B1B78012B01D00023A6E18A4B00225A70D7F844321B0CDAB2874B1A7001F0D5F8864B1B78012B01D0002395E1D7F844321B0AD4
:401E8000DAB2804B1A7001F0C7F87F4B1B78012B01D0002387E1D7F84432DAB2794B1A7001F0BAF8784B1B78012B01D000237AE1744BFF221A7001F0AFF8734B1B78012B9A
:401EC00001D000236FE1FEF717FC0346002B01D1002368E16A4B8B221A706A4B4022DA70684B00229A70674B47225A70654B20221A7001F091F8644B1B78012B01D000237B
:401F000051E15F4B9F221A7001F028F85E4B1B78012B01D0002346E10023A7F8523212E001F01CF8584B1B78012B01D000233AE1B7F85232534A11783A1DD154B7F8523230
:401F40000133A7F85232B7F85232FF2BE8D9B7F84C32B3F5907F40F0EA80B7F84C32B3F5907F40F0E480B7F854325B0143F40003C7F84432424B8B221A70424B4022DA70F9
:401F8000404B00229A703F4B47225A703D4B20221A7001F041F83C4B1B78012B01D0002301E1374BBB221A70364B0022DA70354B00229A70334B00225A70324BB6221A7048
:401FC00001F02AF8304B1B78012B01D00023EAE02B4BBB221A702B4B0022DA70294B00229A70284B00225A70264BD7221A7001F013F8254B1B78012B01D00023D3E0214BE6
:4020000004221A7001F008F81F4B1B78012B01D00023C8E01B4A97F85732137000F0FCFF194B1B78012B01D00023BCE0D7F844321B0CDAB2134B1A7000F0EEFF124B1B78EF
:40204000012B01D00023AEE0D7F844321B0ADAB20C4B1A7000F0E0FF0B4B1B78012B01D00023A0E0D7F84432DAB2064B1A7000F0D3FF054B1B78012B08D0002393E000BFD9
:402080004581FF1F4081FF1F4481FF1F484B1F221A7000F0C1FF474B1B78012B01D0002381E0FEF729FB0346002B01D100237AE0414B8B221A703E4B4022DA703C4B002249
:4020C0009A703B4B47225A70394B20221A7000F0A3FF384B1B78012B01D0002363E0364B9F221A7000F03AFF324B1B78012B01D0002358E00023A7F8523214E000F02EFF0E
:402100002C4B1B78012B01D000234CE0B7F8523203F58073264A11783A1DD154B7F852320133A7F85232B7F852321F2BE6D90023A7F8523218E0B7F852323A1DD25CB7F84B
:40214000523207F59271CB5C9A4208D0194B1B7843F04003DAB2174B1A70002323E0B7F852320133A7F85232B7F85222B7F84C329A42E0D3B7F854320133A7F85432B7F850
:402180005422B7F850329A42FFF4F6AD97F85732013387F8573297F8572297F84B329A42FFF4C7AD0123184607F51677BD4680BD4081FF1F4481FF1F4581FF1F80B584B001
:4021C00000AF07F108031846FEF78AF80023FB7394E0B64B8B221A70B54B4022DA70B44B00229A70B24B47225A70B14B20221A7000F012FFAF4B1B78012B01D0002379E144
:40220000AA4BBB221A70AA4B0022DA70A84B00229A70A74B00225A70A54BB6221A7000F0FBFEA44B1B78012B01D0002362E1A04BD6221A7000F0F0FE9E4B1B78012B01D000
:40224000002357E19A4B03221A7000F0E5FE994B1B78012B01D000234CE1954BF8221A7000F0DAFE934B1B78012B01D0002341E18F4AFB7B137000F0CFFE8E4B1B78012BB2
:4022800001D0002336E1FEF737FA0346002B01D100232FE1854B8B221A70854B4022DA70834B00229A70824B47225A70804B20221A7000F0B1FE7F4B1B78012B01D0002344
:4022C00018E17A4B9F221A7000F098FE794B1B78012B01D000230DE1FB7B754A127807F110010B4403F80C2CFEF7B4F90346002B01D10023FEE0FB7B0133FB73FB7B032BFB
:402300007FF667AF0023FB730023BB730023FB7312E0FB7B07F11002134413F80C2CFB7B07F110010B4413F8083C9A4201D00123BB73FB7B0133FB73FB7B032BE9D9BB7BC3
:40234000012B40F0D6800023FB7373E0574B8B221A70574B4022DA70554B00229A70544B47225A70524B20221A7000F055FE514B1B78012B01D00023BCE04C4BBB221A706D
:402380004B4B0022DA704A4B00229A70484B00225A70474BB6221A7000F03EFE454B1B78012B01D00023A5E0414BD3221A7000F033FE404B1B78012B01D000239AE03C4B88
:4023C00000221A7000F028FE3A4B1B78012B01D000238FE0364BF8221A7000F01DFE354B1B78012B01D0002384E0314AFB7B137000F012FE2F4B1B78012B01D0002379E0B3
:40240000FB7B07F11002134413F8082C284B1A7000F002FE274B1B78012B01D0002369E0FEF718F90346002B01D1002362E0FB7B0133FB73FB7B032B88D91C4B8B221A70BF
:402440001B4B4022DA701A4B00229A70184B47225A70174B20221A7000F0DEFD154B1B78012B01D0002345E0104BBB221A70104B0022DA700E4B00229A700D4B00225A70A0
:402480000B4BB6221A7000F0C7FD0A4B1B78012B01D000232EE0064BD9221A7000F0BCFD044B1B78012B07D0002323E04581FF1F4081FF1F4481FF1F104B06221A7000F06D
:4024C000ABFD0F4B1B78012B01D0002312E00B4BF8221A7000F0A0FD094B1B78012B01D0002307E0FEF7B6F80346002B01D1002300E0012318461037BD4680BD4081FF1FEC
:402500004481FF1F80B5CEB000AFFDF779FF0346A7F82E31FDF77EFF0346A7F82C31FDF783FF034687F82B31B7F82E319B08A7F828310023A7F83031B7F828213B1D1046E1
:402540001946FDF723FFFA1CBB1C10461946FEF725F90346002B01D1002309E1002387F83731FDE097F8372197F82B31013B9A420DD197F837319BB21A461202D31A1B026D
:402580009AB2B7F82E311344A7F8323103E04FF48073A7F83231B7F832319B08A7F82631764B8B221A70764B4022DA70744B00229A70734B47225A70714B20221A7000F0E9
:4025C0002BFD704B1B78012B01D00023D0E06B4BBB221A706A4B0022DA70694B00229A70674B00225A70664BB6221A7000F014FD644B1B78012B01D00023B9E0604BD52228
:402600001A7000F009FD5F4B1B78012B01D00023AEE05B4B02221A7000F0FEFC594B1B78012B01D00023A3E0554A97F83731137000F0F2FC534B1B78012B01D0002397E058
:402640000023A7F8343129E0B7F83421B7F826319A4213D2B7F830313A1DD25C484B1A7000F0DAFC474B1B78012B01D000237FE0B7F830310133A7F830310AE0404B002268
:402680001A7000F0C9FC3F4B1B78012B01D000236EE0B7F834310133A7F83431B7F83421B7F82C319A42CFD3354BB6221A7000F0B3FC344B1B78012B01D0002358E0304B10
:4026C000DE221A7000F0A8FC2E4B1B78012B01D000234DE02A4B0B221A7000F09DFC294B1B78012B01D0002342E0254A97F83731137000F091FC234B1B78012B01D00023DE
:4027000036E01F4B00221A7000F086FC1D4B1B78012B01D000232BE0FB1C1A78184B1A7000F07AFC174B1B78012B01D000231FE0BB1C1A78124B1A7000F06EFC114B1B782C
:40274000012B01D0002313E0FDF784FF0346002B01D100230CE097F83731013387F8373197F8372197F82B319A42FFF4FBAE0123184607F59C77BD4680BD00BF4581FF1FAA
:402780004081FF1F4481FF1F80B5ADF5147D00AFFDF736FE0346A7F84632FDF745FE034687F84532B7F846329B08A7F842320023A7F84832B7F8422207F590731046194662
:4027C000FDF7E4FD002387F84F32CCE097F84F2297F84532013B9A420DD197F84F329BB21A461202D31A1B029AB2B7F846321344A7F84A3203E04FF48073A7F84A32B7F896
:402800004A329B08A7F840326F4B8B221A706F4B4022DA706D4B00229A706C4B47225A706A4B20221A7000F0F7FB694B1B78012B01D00023C2E0644BBB221A70634B0022F1
:40284000DA70624B00229A70604B00225A705F4BB6221A7000F0E0FB5D4B1B78012B01D00023ABE0594BDD221A7000F0D5FB584B1B78012B01D00023A0E0544B0A221A70C9
:4028800000F0CAFB524B1B78012B01D0002395E04E4A97F84F32137000F0BEFB4C4B1B78012B01D0002389E0484B00221A7000F0B3FB474B1B78012B01D000237EE0FDF7A3
:4028C0001BFF0346002B01D1002377E03E4B8B221A703E4B4022DA703C4B00229A703B4B47225A70394B20221A7000F095FB384B1B78012B01D0002360E0334B9F221A708E
:4029000000F02CFB324B1B78012B01D0002355E00023A7F84C321DE000F020FB2C4B1B78012B01D0002349E0B7F84C22B7F840329A420AD2B7F84832244A11783A46D154C5
:40294000B7F848320133A7F84832B7F84C320133A7F84C32B7F84C32FF2BDDD997F84F32013387F84F3297F84F2297F845329A42FFF42CAF0023A7F84C3218E0B7F84C32FD
:402980003A46D25CB7F84C3207F59071CB5C9A4208D00F4B1B7843F04003DAB20C4B1A7000230BE0B7F84C320133A7F84C32B7F84C22B7F842329A42E0D30123184607F5BB
:4029C0001477BD4680BD00BF4581FF1F4081FF1F4481FF1F80B586B000AF0023FB820023FB82FDF70DFD0346FB81FDF71DFD03467B7307F108031846FDF7E6FC00237B75FB
:402A0000F4E07A7D7B7B013B9A420AD17B7D9BB21A461202D31A1B029AB2FB8913443B8202E04FF480733B82894B8B221A70894B4022DA70874B00229A70864B47225A70D9
:402A4000844B20221A7000F0E7FA834B1B78012B01D00023F8E07E4BBB221A707D4B0022DA707C4B00229A707A4B00225A70794BB6221A7000F0D0FA774B1B78012B01D057
:402A80000023E1E0734BDF221A7000F0C5FA724B1B78012B01D00023D6E06E4B0C221A7000F0BAFA6C4B1B78012B01D00023CBE0684A7B7D137000F0AFFA674B1B78012BB3
:402AC00001D00023C0E0634B00221A7000F0A4FA614B1B78012B01D00023B5E05D4B00221A7000F099FA5C4B1B78012B01D00023AAE0584B00221A7000F08EFA564B1B78B0
:402B0000012B01D000239FE03B8ADBB2013BDAB2504B1A7000F080FA4F4B1B78012B01D0002391E0FDF7E8FD0346002B01D100238AE0474B8B221A70464B4022DA70454B4D
:402B400000229A70434B47225A70424B20221A7000F062FA404B1B78012B01D0002373E03B4B9F221A7000F0F9F93B4B1B78012B01D0002368E000F0F1F9374B1B78012BE3
:402B800001D0002360E000F0E9F9334B1B78012B01D0002358E000F0E1F92E4B1B787B712D4B1B78012B01D000234DE000F0D6F9284B1B783B71284B1B78012B01D00023F5
:402BC00042E07B799BB21B029AB2FB8A13449AB23B799BB21344FB82FDF73CFD0346002B01D1002330E07B7D01337B757A7D7B7B9A42FFF406AFFB8ADBB23B71FB8A1B0A71
:402C00009BB2DBB27B7100237B8219E07B8A07F11802134413F8142C7B8A07F118010B4413F8103C9A4208D00B4B1B7843F04003DAB2094B1A70002306E07B8A01337B8284
:402C40007B8A012BE2D9012318461837BD4680BD4581FF1F4081FF1F4481FF1F80B500AFFDF7E4FC80BD00BF80B400AF034B1B781846BD465DF8047B704700BF4481FF1FAB
:402C800080B400AF034B1B781846BD465DF8047B704700BF4081FF1F80B584B000AF0346FB710023FB730023FB7317E0FB7903F00103002B06D000F0B9FB00F0C7FB00F02E
:402CC000A5FB05E000F0B2FB00F0D0FB00F09EFBFB795B08FB71FB7B0133FB73FB7B072BE4D91037BD4680BD80B485B000AF0346FB710023FB730023FB733BE0FB7903F0B6
:402D00000103002B18D01F4A1E4B1B78DBB223F00203DBB213701B4A1A4B1B78DBB243F00103DBB21370174A164B1B78DBB243F00203DBB2137017E0124A124B1B78DBB237
:402D400023F00203DBB213700E4A0E4B1B78DBB223F00103DBB213700A4A0A4B1B78DBB243F00203DBB21370FB795B08FB71FB7B0133FB73FB7B072BC0D91437BD465DF8E3
:402D8000047B70470051004080B582B000AF0023FB7100237B710023BB710023FB7119E000F044FB00F092FB03467B7100F02EFBBB795B08BB717B79002B04D0BB7963F08A
:402DC0007F03BB7103E0BB7903F07F03BB71FB790133FB71FB79072BE2D9BB7918460837BD4680BD80B500AF00F0E4FA00F01EFB00F00CFB80BD00BF80B500AF00F0C4FAA7
:402E000000F014FB00F002FB80BD00BF80B582B000AF0023FB7100237B710023BB710023BB7113E000F002FB00F050FB03467B7100F0ECFA7A79BB7902FA03F3DAB2FB7919
:402E40001343DBB2FB71BB790133BB71BB79022BE8D9FB7918460837BD4680BD80B582B000AF0346FB7100F0E1FAFB79002B02D000F0ECFA01E000F0F9FA00F0C7FA08376B
:402E8000BD4680BD80B582B000AF00F0CFFA00F01DFB0346FB7100F0B9FAFB7918460837BD4680BD80B582B000AF00F0DFFA0023FB7106E000F0BAFA00F0A8FAFB79013320
:402EC000FB71FB79022BF5D90837BD4680BD00BF80B485B000AF0346FB710023FB730023BB730DE0FB7903F00103002B02D0FB7B0133FB73FB795B08FB71BB7B0133BB73C2
:402F0000BB7B072BEED9FB7B18461437BD465DF8047B704780B582B000AF0023FB710023BB710DE0BB790C4AD35C1846FFF7D0FF03461A46FB791344FB71BB790133BB7184
:402F4000BB79032BEED9FB7903F00103DBB218460837BD4680BD00BF4081FF1F90B583B000AF0023FB71224B1B781846FFF794FEFFF738FFFFF74AFF03461A461D4B1A7012
:402F80000023BB7109E0BC79FFF7FEFE03461A46194B1A55BB790133BB71BB79032BF2D9FFF770FF03467B71FFF726FFFFF77AFFFB790133FB710F4B1B78022B02D1FB79DC
:402FC000042BD0D90B4B1B78012B0DD1FFF7A2FF03461A467B79934206D0064B1B7843F00803DAB2034B1A700C37BD4690BD00BF4581FF1F4481FF1F4081FF1F80B500AFC5
:40300000FFF7ACFF034B1B78012B00D001E0FFF7A5FF80BD4481FF1F80B582B000AF0023FB71FFF777FF03467B71184B1B781846FFF732FEFFF7D6FEFFF7E8FE03461A4668
:40304000134B1A70FFF7D8FE0023BB7108E0BB79104AD35C1846FFF71FFEBB790133BB71BB79032BF3D97B791846FFF7F7FEFFF719FFFB790133FB71054B1B78022B02D133
:40308000FB79042BD1D90837BD4680BD4581FF1F4481FF1F4081FF1F80B582B000AF0346FB71894B00221A70884B1B781846FFF71BFE874B864A1278D2B2D2B222F00E022A
:4030C000D2B242F00202D2B2D2B21A70814A814B1B78DBB223F00203DBB213707D4A7D4B1B78DBB243F00203DBB21370794A794B1B78DBB223F00203DBB21370764B1B788B
:40310000DBB2DBB203F00103DAB26F4B1B78DBB21343DBB2DAB26C4B1A706E4A6D4B1B78DBB243F00203DBB213706A4A694B1B78DBB223F00203DBB21370674B1B78DBB20E
:4031400003F001035B00DAB25F4B1B78DBB21343DBB2DAB25C4B1A705E4A5E4B1B78DBB243F00203DBB213705A4A5A4B1B78DBB223F00203DBB21370574B1B78DBB203F008
:4031800001039B00DAB2504B1B78DBB21343DBB2DAB24D4B1A704F4A4E4B1B78DBB243F00203DBB213704A4B494A1278D2B2D2B222F00E02D2B242F00C02D2B2D2B21A70CC
:4031C000444A444B1B78DBB223F00203DBB21370404A404B1B78DBB243F00203DBB213703E4B1B781846FFF77FFD3C4B5B781846FFF77AFD394B9B781846FFF775FD374BFD
:40320000DB781846FFF770FD324A324B1B78DBB223F00203DBB21370FB79002B08D02D4A2C4B1B78DBB243F00103DBB2137007E0284A284B1B78DBB223F00103DBB213705A
:40324000244A244B1B78DBB243F00203DBB21370204A204B1B78DBB223F00103DBB213701C4A1C4B1B78DBB223F00203DBB21370184A184B1B78DBB243F00203DBB21370AB
:40328000144A144B1B78DBB223F00203DBB21370104A104B1B78DBB243F00203DBB213700C4A0C4B1B78DBB223F00203DBB21370084A084B1B78DBB243F00203DBB21370EA
:4032C0000837BD4680BD00BF4481FF1F4581FF1F0050004000510040015100404081FF1F80B582B000AF00F0B1F80023FB7106E000F09CF800F08AF8FB790133FB71FB7995
:40330000322BF5D90837BD4680BD00BF80B582B000AFFFF7E5FF00F0A9F80023FB7106E000F084F800F072F8FB790133FB71FB79022BF5D90837BD4680BD00BF80B500AFC3
:40334000FFF7CEFF9E20FFF7A7FCE720FFF7A4FCFFF7C6FFFFF7DAFF80BD00BF80B400AF084B084A1278D2B2D2B222F00E02D2B242F00202D2B2D2B21A70BD465DF8047BB1
:40338000704700BF0150004080B400AF084B084A1278D2B2D2B222F00E02D2B242F00C02D2B2D2B21A70BD465DF8047B704700BF0050004080B400AF084B084A1278D2B201
:4033C000D2B222F00E02D2B242F00202D2B2D2B21A70BD465DF8047B704700BF0050004080B400AF084B084A1278D2B2D2B222F00E02D2B242F00202D2B2D2B21A70BD4673
:403400005DF8047B704700BF0250004080B400AF054A054B1B78DBB243F00203DBB21370BD465DF8047B70470051004080B400AF054A054B1B78DBB223F00203DBB21370DD
:40344000BD465DF8047B70470051004080B400AF054A054B1B78DBB243F00103DBB21370BD465DF8047B70470051004080B400AF054A054B1B78DBB223F00103DBB213705C
:40348000BD465DF8047B70470051004080B400AF054A054B1B78DBB243F00403DBB21370BD465DF8047B70470051004080B400AF054A054B1B78DBB223F00403DBB2137016
:4034C000BD465DF8047B70470051004080B400AF054B1B78DBB203F00103DBB21846BD465DF8047B704700BF0151004080B483B000AF0023FB8002E0FB880133FB80FB884E
:4035000040F275229342F7D90C37BD465DF8047B704700BF80B400AFFEE700BF80B586B000AF224B7B61224B3B61204B7B6135E03B691B68FB603B695B68BB603B699B6893
:403540003B6000237B600CE0FB681A68BB681A60BB680433BB60FB680433FB607B6804337B607A683B689A42EED13B69DB683B6000237B6008E0BB6800221A60BB68043344
:40358000BB607B6804337B607A683B689A42F2D13B6910333B617B69013B7B617B69002BC6D100F07FFCFCF709FEFEE701000000E0C4030080B582B000AF174B174A1A606D
:4035C000174A174B1B6843F40073136000237B600FE07B68032B04D8124A7B6852F8233000E0114B11497A6841F822307B6801337B607B682F2BECD90D4B1B78DAB20D4BEC
:403600001A700D4B094A1A6000F004F90B4B00221A600837BD4680BD0CED00E00004FA0514ED00E000000000153500000080FF1FBC7600400481FF1F08ED00E00081FF1F4F
:4036400080B582B000AF78603960786800213A6800F059FC0837BD4680BD00BF80B584B000AFF860B9607A60F868B9687A6800F03FFC1037BD4680BD80B483B000AF0346C6
:40368000FB71FEE780B487B000AF7860396000233B6100237B6127E07B699B007A6813441B68BB60BB68FB73BB6823F0FF03BB6014E03B695B003A6813441B781A46BB682D
:4036C000134419463B695B003A6813445B780B703B6901333B61FB7B013BFB73FB7B002BE7D17B6901337B617B69002BD4D01C37BD465DF8047B704780B582B000AF294BCF
:4037000002221A704FF0402308221A70264B03221A70264B264A1278D2B21A70254B40F242221A80244B41F251221A800023FB7019237B6014E0FB785B00DAB21F4B1B78AD
:40374000DBB203F00103DBB21343DBB203F00303FB704FF4F07000F0E7F87B68013B7B607B68002B02D0FB78032BE4D17B68002B02D10320FFF780FF114B4FF480721A80AB
:403780000F4B07221A700F4B00221A700E4B48221A700B4B00221A700C4B02221A700837BD4680BD0043004000420040A146004008010049224200402042004025420040B8
:4037C0000440004006400040084000400140004080B483B000AF0B4B1B78FB710A4AFB7903F00703DBB21370084AFB791B09DBB21370074B44221A700C37BD465DF8047B20
:40380000704700BFCF0100496E5800406F5800407658004080B582B000AF72B6334B01221A70FFF769FF324A314B1B78DBB243F00403DBB213700023FB7113E0FA79134667
:403840005B0013445B002B4A13443B603B681A683B689B889BB210461946FFF7F1FEFB790133FB71FB79082BE8D94FF090402249FFF708FF214A214B1B78DBB243F00203E0
:40388000DBB213701E4A1E4B1B78DBB243F00203DBB213701B4A1B4B1B78DBB243F04003DBB21370184A184B1B78DBB243F01003DBB21370154816490A22FFF7CFFE15480B
:4038C00015490822FFF7CAFE144A144B1B78DBB243F00803DBB21370FFF77AFF104809490E22FFF7BBFE0837BD4680BD00480040E846004074C403000400004803500140CF
:4039000013500140A0430040C24300400051004008000048225100401400004822430040B0430040000000000230800803D000BF01380046FCD17047EFF3108072B6704713
:4039400080F31088704700BF80B582B000AF786008E00C4B1B681846FFF7E6FF7B68A3F500437B607B68B3F5004FF2D8064B1B687A6802FB03F31846FFF7D6FF0837BD468C
:4039800080BD00BF1881FF1F1081FF1F80B582B000AF0346FB80FB88044A127802FB03F31846FFF7C1FF0837BD4680BD1481FF1F80B500AF2820FFF7C7FF032000F0D4F96F
:4039C0000520FFF7C1FF032000F0CEF90F20FFF7BBFF032000F0C8F90120FFF7B5FF022000F0C2F90520FFF7AFFF062000F0AAF80E2000F0A7F82C2000F0A4F8082000F099
:403A0000A1F8012000F09EF80C2000F09BF8032000F098F80520FFF797FF80BD80B500AF0C2000F08FF8024B01221A7080BD00BF3C81FF1F80B500AF054B1B78002B04D1E7
:403A4000FFF7B6FF024B01221A70FFF7E7FF80BD3D81FF1F80B582B000AF03460A46FB711346BB71FB79032B26D801A252F823F0813A00008F3A00009D3A0000AB3A00002C
:403A8000BB79803BDBB2184600F05CF815E0BB79403BDBB2184600F055F80EE0BB796C3BDBB2184600F04EF807E0BB792C3BDBB2184600F047F800E000BF0837BD4680BD78
:403AC00080B584B000AF78600123FB737B681B78BB730BE0BB7B184600F01AF8FB7B7A6813441B78BB73FB7B0133FB73BB7B002BF0D11037BD4680BD80B582B000AF03468F
:403B0000FB71FB79184600F003F80837BD4680BD80B584B000AF0346FB7100F02DF8FB791B09FB73FB7B184600F0E2F8FB7903F00F03FB73FB7B184600F0DAF81037BD4690
:403B400080BD00BF80B584B000AF0346FB7100F013F8FB791B09FB73FB7B184600F004F9FB7903F00F03FB73FB7B184600F0FCF81037BD4680BD00BF80B582B000AF4FF47C
:403B8000CA737B60554A554B1B78DBB223F07F03DBB21370524B1B78DBB223F00F03FB704F4AFB7843F00F03DBB213704D4B1B78DBB223F00F03FB704A4AFB7813704A4BD4
:403BC0001B78DBB223F00F03FB70474AFB781370424A424B1B78DBB223F02003DBB213703E4A3E4B1B78DBB243F04003DBB213700020FFF7CBFE394A384B1B78DBB243F020
:403C00001003DBB213700120FFF7C0FE374B1B78FB70324A314B1B78DBB223F01003DBB213700020FFF7B2FEFB7803F00803FB702A4A2A4B1B78DBB243F01003DBB21370BD
:403C40000120FFF7A3FE254A244B1B78DBB223F01003DBB21370FB78002B02D10A20FFF795FE7B68013B7B60FB78002B02D07B68002BBDD1194A194B1B78DBB223F04003F1
:403C8000DBB21370154A154B1B78DBB223F07F03DBB21370124A124B1B78DBB223F00F03DBB213700F4B1B78DBB223F00F03FB700C4AFB7843F00F03DBB213700A4B1B7852
:403CC000DBB223F00F03FB70074AFB7843F00F03DBB213700837BD4680BD00BF205100402251004023510040245100402151004080B582B000AF0346FB711A4A194B1B78AB
:403D0000DBB243F02003DBB21370164A154B1B78DBB223F04003DBB213700020FFF736FE104A104B1B78DBB223F00F03DBB213700C490C4B1B78DAB2FB791343DBB243F0A1
:403D40001003DBB20B700120FFF720FE054A054B1B78DBB223F01003DBB213700837BD4680BD00BF2051004080B582B000AF0346FB71144A134B1B78DBB223F06003DBB265
:403D80001370104A0F4B1B78DBB223F00F03DBB213700C490B4B1B78DAB2FB791343DBB243F01003DBB20B700120FFF7EFFD054A044B1B78DBB223F01003DBB213700837D2
:403DC000BD4680BD2051004080B582B000AF0346FB71FB791B09DBB21A46084B9B5C1846FFF78AFEFB7903F00F03044AD35C1846FFF782FE0837BD4680BD00BFACC40300E1
:403E000080B586B000AF78600A23FB75FB7D07F118021344002203F8102CFB7D013BFB751CE079681E4BA3FB0123DA0813469B0013445B00CA1AD3B23033BB75FB7D07F199
:403E400018021344BA7D03F8102C7B68144AA2FB0323DB087B60FB7D013BFB757B68092BDFD879680E4BA3FB0123DA0813469B0013445B00CA1AD3B23033BB75FB7D07F1BF
:403E800018021344BA7D03F8102CFB7D07F1080213441846FFF714FE1837BD4680BD00BFCDCCCCCC0E4B70B51E460E4C0025E41AA410A54204D056F8253098470135F8E708
:403EC00038F0FCFA084B094C1E46E41AA4100025A54204D056F8253098470135F8E770BDC8C40300C8C40300C8C40300D0C4030010B5431E0A44914204D011F8014B03F893
:403F0000014FF8E710BD03460244934202D003F8011BFAE7704700000000000050726F6772616D6D696E672050536F43000000004853535020537563636573730000000071
:403F400048535350204661696C20537465700000457272200000000020535043200000000080002011000000990000009900000008B5044B1A6803F53F5302331A6000F0A2
:403F80003DF800BFFA46004010B5054C237833B9044B13B10448AFF300800123237010BD2081FF1F000000002C04000008B5064B1BB106480649AFF300800648036813B1E6
:403FC000054B03B1984708BD000000002C0400002481FF1F0881FF1F0000000008B562B64FF47A7400F068F9C043C0B200F058F9204600F07DF9F5E7FEE700BF80B5104F92
:40400000104E002415E031687368B568224604E051F8040B43F8040B0432AA42F8D1F168224602E043F8044B04328A42FAD11036013F002FE7D100F071F9FFF7CFFFFEE735
:40404000010000008404000010B5124A124B1A6008331A6842F400721A6000230F48104C0152004001150140011B0140024401400145014001460140014701400248014019
:40408000104908E0032B02D854F8232000E0024641F8232001332F2BF4D90B4B1A780B4B1A70084A0A4B1A6000F0AEF80022094B1A6010BD0004FA050CED00E09900000078
:4040C000000000000080FF1FBC7600400481FF1F08ED00E00081FF1FFEE700BFF0B400231F4611E050F82760F2B226F0FF0608E001EB430511F813406D78A5550133013A84
:40410000D2B2002AF4D101370A2FEBD9F0BC7047064B1B78DBB203F00701054A11701B09013213704422034B1A707047CF0100496E5800407658004008B50A46002100F01E
:404140002CF908BDF8B540F2E732264B1A801B2202331A70022203F27E231A7008234FF040221370032102F5007211701E4A1178C9B21E4A1170A2F27F42138041F25122D2
:4041800001490140014C0140024D01403004EC10EC105420D402A420A420A4202510C8201B4B1A80002519241A4F4FF4F0760AE03B7803F0010343EA450505F00305304685
:4041C00000F0A2F8013C0CB1032DF1D114B90320FFF792FF104B4FF480721A8007221A7000220E490A704820023108701A700222033B1A7003F2A1331A7842F001021A705F
:40420000F8BD00BF8040004008010049A14600402042004025420040044000400640004008B500F0C1F808BD70B572B60024214D09E004EB44035B002B4418689988FFF7B4
:404240008BFF0134E4B2072CF3D94FF090401A49FFF754FF194B1A7842F002021A7010331A7842F002021A70154C237843F040032370144B1A7842F010021A70124813496A
:404280000822FFF7CDFF124B1A7842F008021A70104E01253570FFF765FF812333700E4BB510A420B420EC08000C0C000400000000000000000000000000000000000000CD
:4042C0001D70FFF745FF0D4821460E22FFF7B8FF70BD00BF300400002C00004803500140A0430040C24300406251004048000048224300400048004004000840B04300409F
:40430000044B1A7802F0F702C00000F0080002431A70704760510040024B1878C0F3C000704700BF615100400230800800F0058000BF013800467FF4FCAF7047EFF3108016
:4043400072B6704780F31088704700BFAFF3008038B50446084D04E02868FFF7E5FFA4F50044B4F5004FF7D8034B586800FB04F0FFF7DAFF38BD00BF0C81FF1F70B50E4B94
:404380000E4D0024ED1AAD101E46AC4204D056F8242090470134F8E700F042F8084D094B0024ED1AAD101E46AC4204D056F8242090470134F8E770BD6C0400006C040000AC
:4043C0000000000000000000000000000000000000000000000000000000000000000000740400006C04000010B50023934203D0CC5CC4540133F9E710BD024403469342C0
:4044000002D003F8011BFAE77047000000000000005100406000C05100401000F0510040100000000140001000140140000800400140000A004C014000020050014020009F
:40444000F8B500BFF8BC08BC9E4670474D000000E9000000F8B500BFF8BC08BC9E46704729000000980400000881FF1F180000002000000000000000000000000000E02E56
:40448000C05D00001800000000366E010000000000000000000000000000000000000000000000000000000000000000000000000000000000000000000000000000000022
:4044C00000000000000000000000000000000000000000000000000000000000000000000000000000000000000000000000000000000000000000000000000000000000BC
:40450000000000000000000000000000000000000000000000000000000000000000000000000000000000000000000000000000000000000000000000000000000000007B
:40454000000000000000000000000000000000000000000000000000000000000000000000000000000000000000000000000000000000000000000000000000000000003B
:4045800000000000000000000000000000000000000000000000000000000000000000000000000000000000000000000000000000000000000000000000000000000000FB
:020000040003F7
:40C34000000000000000000000000000000000000000000000000000000000000000000000004007BC90ACAFAB9C000000000000000000005555555555555555AAAAAAAA38
:40C38000AAAAAAAAFFFFFFFFFFFFFFFFFFFFFFFFFFFFFFFFFFFFFFFFFFFFFFFFFFFFFFFFFFFFFFFFFFFFFFFFFFFFFFFFFFFFFFFFFFFFFFFFFFFFFFFFFFFFFFFFFFFFFFFF11
:40C3C000FFFFFFFFFFFFFFFFFFFFFFFFFFFFFFFFFFFFFFFFFFFFFFFFFFFFFFFFFFFFFFFFFFFFFFFFFFFFFFFFFFFFFFFFFFFFFFFFFFFFFFFFFFFFFFFFFFFFFFFFFFFFFFFF7D
:40C40000FFFFFFFFFFFFFFFFFFFFFFFFFFFFFFFFFFFFFFFFFFFFFFFFFFFFFFFFFFFFFFFFFFFFFFFFFFFFFFFFFFFFFFFFFFFFFFFFFFFFFFFFFFFFFFFFFFFFFFFFFFFFFFFF3C
:40C44000FFFFFFFFFFFFFFFFFFFFFFFFFFFFFFFFFFFFFFFFFFFFFFFFFFFFFFFFFFFFFFFFFFFFFFFFFFFFFFFFFFFFFFFF2E123069000000001051004010003051004040005D
:40C48000C05100401000F0510040100000000140001000140140000800400140000A004C01400002005001402000000030313233343536373839414243444546F8B500BF03
:40C4C000F8BC08BC9E4670474D000000B5350000F8B500BFF8BC08BC9E46704729000000F0C403000881FF1F1800000028000000000000008014EF03D00101004200000012
:40C500000000E88000000000000000000000000000000000000000000000000000000000000000000000000000000000000000000000000000000000000000000000000093
:40C5400000000000000000000000000000000000000000000000000000000000000000000000000000000000000000000000000000000000000000000000000000000000BB
:40C58000000000000000000000000000000000000000000000000000000000000000000000000000000000000000000000000000000000000000000000000000000000007B
:40C5C000000000000000000000000000000000000000000000000000000000000000000000000000000000000000000000000000000000000000000000000000000000003B
:40C6000000000000000000000000000000000000000000000000000000000000000000000000000000000000000000000000000000000000000000000000000000000000FA
:0200000480007A
:400000000152004004010000040001060600000000000000007F7F000000000000000000000000000000000000000000000000000000000000000000000000000000000019
:400040000000000000000000000000000000000000000000000000000000000000000000000000000000000000000000000000000000000000000000000000000000000080
:400080000000000000000000000000000000000000000000000000000000000000000000000000000000000000000000000000000000000000000000000000000000000040
:4000C0000000000000000000000000000000000000000000000000000000000000000000000000000000000000000000000000000000000000000000000000000000000000
:4001000000000000000000000000000000000000000000000000000000000000000000000000000000000000000000000000000000000000000000000000000000000000BF
:0200000490006A
:0400000000004005B7
:0200000490105A
:04000000BC90ACAF55
:0200000490303A
:020000009EDF81
:0200000490402A
:4000000000000000000000000000000000000000000000000000000000000000000000000000000000000000000000000000000000000000000000000000000000000000C0
:400040000000000000000000000000000000000000000000000000000000000000000000000000000000000000000000000000000000000000000000000000000000000080
:400080000000000000000000000000000000000000000000000000000000000000000000000000000000000000000000000000000000000000000000000000000000000040
:4000C0000000000000000000000000000000000000000000000000000000000000000000000000000000000000000000000000000000000000000000000000000000000000
:0200000490501A
:0C00000000012E12306900012E2DCF48A7
:00000001FF