:400000000040002011000000AD200000AD20000080B500AF024A034B1B68136002F078F8BC760040FA46004010B5054C237833B9044B13B10448AFF300800123237010BD4B
:4000400060C1FF1F00000000A46C0000084B10B51BB108490848AFF300800848036803B910BD074B002BFBD0BDE81040184700BF0000000064C1FF1FA46C0000C8C0FF1FF2
:400080000000000080B592B000AF62B60121002002F0D2F8204B4FF400421A6004F0C8FB1E4B00221A8002F097FA0346002B06D002F086FA0346002B01D002F085FC02F0D5
:4000C0007FFA0346002BEED002F008FD0346002BE9D03B1D184602F025FD0346A7F846303A1DB7F846301146184601F0F3F80C4B1B78012B01D100F0C3FEB7F84630402BD3
:40010000D1D100BF02F0FCFC0346002BFAD00021002002F0ADFCC6E700E100E07CC1FF1F91C1FF1F80B582B000AF0346FB71FB790121184600F02EF9FA2004F0B5FEFB7916
:400140000021184600F026F900BF0837BD4680BD80B500AF0C21002000F01CF90C21012000F018F90C21022000F014F90C21032000F010F90C21042000F00CF90C21052001
:4001800000F008F90C21062000F004F90C21072000F000F90C21082000F0FCF80C21092000F0F8F80C210A2000F0F4F80C210B2000F0F0F80C210C2000F0ECF80C210D2078
:4001C00000F0E8F80C210E2000F0E4F80C210F2000F0E0F80C21102000F0DCF80C21112000F0D8F80C21122000F0D4F80C21132000F0D0F80C21142000F0CCF80C211520FB
:4002000000F0C8F80C21162000F0C4F80C21172000F0C0F80C21182000F0BCF80C21192000F0B8F80021002000F0B4F80021012000F0B0F80021022000F0ACF80021032012
:4002400000F0A8F80021042000F0A4F80021052000F0A0F80021062000F09CF80021072000F098F80021082000F094F80021092000F090F800210A2000F08CF800210B202A
:4002800000F088F800210C2000F084F800210D2000F080F800210E2000F07CF800210F2000F078F80021102000F074F80021112000F070F80021122000F06CF800211320AA
:4002C00000F068F80021142000F064F80021152000F060F80021162000F05CF80021172000F058F80021182000F054F80021192000F050F81920FFF715FF1020FFF712FF9B
:400300000B20FFF70FFF0C20FFF70CFF0E20FFF709FF0F20FFF706FF0020FFF703FF0120FFF700FF0320FFF7FDFE0420FFF7FAFE0220FFF7F7FE0620FFF7F4FE0520FFF781
:40034000F1FE0720FFF7EEFE0920FFF7EBFE0820FFF7E8FE0A20FFF7E5FE0D20FFF7E2FE1120FFF7DFFE1220FFF7DCFE1320FFF7D9FE1420FFF7D6FE1520FFF7D3FE16203D
:40038000FFF7D0FE1720FFF7CDFE1820FFF7CAFE00BF80BD80B582B000AF03460A46FB711346BB71FB79192B00F2BA8001A252F823F000BF1D0400002704000031040000CB
:4003C0003B040000450400004F04000059040000630400006D04000077040000810400008B040000950400009F040000A9040000B3040000BD040000C7040000D10400005D
:40040000DB040000E5040000EF040000F9040000030500000D05000017050000BB79184604F0B8FE7CE0BB79184604F021FE77E0BB79184605F060F872E0BB79184604F083
:40044000C5FE6DE0BB79184605F038F868E0BB79184604F069FF63E0BB79184604F07EFF5EE0BB79184604F097FF59E0BB79184604F0B0FF54E0BB79184604F0C9FF4FE0C0
:40048000BB79184604F0E2FF4AE0BB79184605F08BF845E0BB79184605F068F840E0BB79184605F047F83BE0BB79184605F0B4F836E0BB79184605F091F831E0BB79184698
:4004C00004F0E2FF2CE0BB79184604F099FE27E0BB79184604F026FE22E0BB79184604F0E5FD1DE0BB79184604F0FEFD18E0BB79184604F0A3FE13E0BB79184604F02CFEA3
:400500000EE0BB79184604F0D5FE09E0BB79184604F0B2FE04E0BB79184604F0E9FE00BF00BF0837BD4680BD80B584B000AF78605023FB734FF48073BB8100233B720023D1
:400540007B7207F10801F87B0023022204F05CFB00BF04F065FC034603F00203002BF8D0012004F0C3FCBB89DBB2013BDAB2F87B0023796804F0CCFB00BF04F051FC034658
:4005800003F00103002BF8D000BF1037BD4680BD80B598B000AF7860002387F850300023A7F85E300023A7F85C300023A7F85E30C3E000233B73B7F85E301A0107F10C0324
:4005C0006249184605F034FF0023A7F85C301DE0B7F85E301A01B7F85C3013441A467B6813441B781A4607F150035949184605F01FFF07F1500207F10C031146184605F0AF
:400600003BFFB7F85C300133A7F85C30B7F85C300F2BDDD907F10C03184605F03CFF03461A4607F10C0313444A4A1188927819809A7007F10C03184605F02DFF03469AB22A
:4006400007F10C031146184602F012FA00BF02F057FA0346002BFAD000233B730023A7F85A303FE0B7F85E301A01B7F85A3013441A467B6813441B78202B1DD9B7F85E30B1
:400680001A01B7F85A3013441A467B6813441B787E2B11D8B7F85A30B7F85E201101B7F85A200A4411467A680A44127807F160010B4403F8542C07E0B7F85A3007F1600233
:4006C00013442E2203F8542CB7F85A30013307F160021344002203F8542CB7F85A300133A7F85A30B7F85A300F2BBBD907F10C03184605F0D0FE03461A4607F10C03134451
:40070000154A1188927819809A7007F10C03184605F0C1FE03469AB207F10C031146184602F0A6F900BF02F0EBF90346002BFAD0B7F85E300133A7F85E30B7F85E300F2B31
:400740007FF637AF00BF6037BD4680BDA86C0000B06C0000B86C0000BC6C000080B590B000AF0346FB800023FB87FB88012B4BD100237B8743E00023BB87BB8F5A1CBA8706
:4007800007F140021344002203F8342CBB8F5A1CBA8719467B8F5B01DAB207F140030B4403F8342C00233B871EE0FB8F6C2B0CD8BB8F5A1CBA871946FB8F654AD25C07F14D
:4007C00040030B4403F8342C08E0BB8F5A1CBA8707F140021344002203F8342CFB8F0133FB873B8F01333B873B8F1F2BDDD907F10C03184600F0B2F87B8F01337B877B8F02
:40080000032BB8D901239EE0FB88022B4BD10023FB8643E00023BB87BB8F5A1CBA8707F140021344002203F8342CBB8F5A1CBA871946FB8E5B01DAB207F140030B4403F8FA
:40084000342C0023BB861EE0FB8F742B0CD8BB8F5A1CBA871946FB8F3E4AD25C07F140030B4403F8342C08E0BB8F5A1CBA8707F140021344002203F8342CFB8F0133FB87ED
:40088000BB8E0133BB86BB8E1F2BDDD907F10C03184600F063F8FB8E0133FB86FB8E032BB8D901234FE0FB88032B4BD100237B8643E00023BB87BB8F5A1CBA8707F14002F4
:4008C0001344002203F8342CBB8F5A1CBA8719467B8E5B01DAB207F140030B4403F8342C00233B861EE0FB8F682B0CD8BB8F5A1CBA871946FB8F184AD25C07F140030B4407
:4009000003F8342C08E0BB8F5A1CBA8707F140021344002203F8342CFB8F0133FB873B8E01333B863B8E1F2BDDD907F10C03184600F014F87B8E01337B867B8E032BB8D937
:40094000012300E0002318464037BD4680BD00BFC06C0000306D0000A86D000080B584B000AF78605023FB732223BB73BA7BF87B0023796804F048F900BF04F051FA034632
:4009800003F00203002BF8D00A2004F08DFA00BF1037BD4680BD00BF80B500AF0C210020FFF7F8FC0C210120FFF7F4FC0C210220FFF7F0FC0C210320FFF7ECFC0C210420A3
:4009C000FFF7E8FC0C210520FFF7E4FC0C210620FFF7E0FC0C210720FFF7DCFC0C210820FFF7D8FC0C210920FFF7D4FC0C210A20FFF7D0FC0C210B20FFF7CCFC0C210C20EB
:400A0000FFF7C8FC0C210D20FFF7C4FC0C210E20FFF7C0FC0C210F20FFF7BCFC0C211020FFF7B8FC0C211120FFF7B4FC0C211220FFF7B0FC0C211320FFF7ACFC0C2114206A
:400A4000FFF7A8FC0C211520FFF7A4FC0C211620FFF7A0FC0C211720FFF79CFC0C211820FFF798FC0C211920FFF794FC01210220FFF790FC00210020FFF78CFC002101205B
:400A8000FFF788FC00210320FFF784FC00210420FFF780FC00210520FFF77CFC00210620FFF778FC00210720FFF774FC00210820FFF770FC00210920FFF76CFC00210A209A
:400AC000FFF768FC00210B20FFF764FC00210C20FFF760FC00210D20FFF75CFC00210E20FFF758FC00210F20FFF754FC00211020FFF750FC00211120FFF74CFC002112201A
:400B0000FFF748FC00211320FFF744FC00211420FFF740FC00211520FFF73CFC00211620FFF738FC00211720FFF734FC00211820FFF730FC00211920FFF72CFC0120FFF7DD
:400B4000F1FA0320FFF7EEFA0420FFF7EBFA0B20FFF7E8FA0C20FFF7E5FA0E20FFF7E2FA0F20FFF7DFFA1020FFF7DCFA0620FFF7D9FA0520FFF7D6FA0720FFF7D3FA09209F
:400B8000FFF7D0FA0820FFF7CDFA0A20FFF7CAFA0D20FFF7C7FA0020FFF7C4FA00BF80BD80B500AF0C210020FFF7F4FB0C210120FFF7F0FB0C210220FFF7ECFB0C21032037
:400BC000FFF7E8FB0C210420FFF7E4FB0C210520FFF7E0FB0C210620FFF7DCFB0C210720FFF7D8FB0C210820FFF7D4FB0C210920FFF7D0FB0C210A20FFF7CCFB0C210B20F9
:400C0000FFF7C8FB0C210C20FFF7C4FB0C210D20FFF7C0FB0C210E20FFF7BCFB0C210F20FFF7B8FB0C211020FFF7B4FB0C211120FFF7B0FB0C211220FFF7ACFB0C21132078
:400C4000FFF7A8FB0C211420FFF7A4FB0C211520FFF7A0FB0C211620FFF79CFB0C211720FFF798FB0C211820FFF794FB0C211920FFF790FB00210020FFF78CFB0021012044
:400C8000FFF788FB00210320FFF784FB00210420FFF780FB00210520FFF77CFB00210620FFF778FB00210720FFF774FB00210820FFF770FB00210920FFF76CFB00210A20A0
:400CC000FFF768FB00210B20FFF764FB00210C20FFF760FB00210D20FFF75CFB00210E20FFF758FB00210F20FFF754FB00211020FFF750FB00211120FFF74CFB0021122020
:400D0000FFF748FB00211320FFF744FB00211420FFF740FB00211520FFF73CFB00211620FFF738FB00211720FFF734FB00211820FFF730FB00211920FFF72CFB01210220B6
:400D4000FFF728FB1120FFF7EDF91220FFF7EAF91420FFF7E7F91520FFF7E4F91720FFF7E1F91920FFF7DEF91320FFF7DBF91620FFF7D8F91820FFF7D5F90620FFF7D2F946
:400D80000520FFF7CFF90720FFF7CCF90920FFF7C9F90820FFF7C6F90A20FFF7C3F90D20FFF7C0F90020FFF7BDF90120FFF7BAF90B20FFF7B7F90C20FFF7B4F90E20FFF79E
:400DC000B1F90F20FFF7AEF91020FFF7ABF90320FFF7A8F90420FFF7A5F900BF80BD00BF80B500AF174800F009FB174800F006FB164800F003FB164800F000FB154800F01D
:400E0000FDFA154800F0FAFA144800F0F7FA144800F0F4FA134800F0F1FA134800F0EEFA124800F0EBFA124800F0E8FA114800F0E5FA114800F0E2FA104800F0DFFA00BF12
:400E400080BD00BF146E0000446E0000646E0000806E0000A86E0000C46E0000E86E0000086F0000246F0000506F0000646F0000786F00009C6F0000AC6F0000C06F00000C
:400E800080B5C0B000AF00BF01F03AFE0346002BFAD0A74B1B78722B03D0A54B1B78522B11D1A44800F0AAFA3B461846FFF73CFB3B461846FFF76CFB00BF01F021FE034601
:400EC000002BFAD0D4E19A4B1B78772B03D0984B1B78572B1AD1984B1B88002B03D1974800F08CFAC4E1964800F088FA924B1B881846FFF733FC0346012B03D1914800F094
:400F00007DFAB5E1904800F079FAB1E1884B1B78742B03D0864B1B78542B32D1864B1B88002B03D1854800F069FAA1E1824B1B88062B08D1854800F061FA00F0A1FA84481B
:400F400000F05CFA94E17C4B1B88072B08D1814800F054FA00F044FD7F4800F04FFA87E1754B1B88082B08D17C4800F047FA00F02DFE7B4800F042FA7AE17A4800F03EFAEE
:400F800076E16B4B1B78622B03D0694B1B78422B61D1694B1B88002B03D1684800F02EFA66E1654B1B88022B08D16F4800F026FAFFF7CEF86D4800F021FA59E15E4B1B88C4
:400FC000052B08D16A4800F019FAFFF7E9FD694800F014FA4CE1584B1B88042B08D1664800F00CFAFFF7D8FC644800F007FA3FE1514B1B88012B08D1614800F0FFF9FFF737
:40100000A7F8604800F0FAF932E14B4B1B88062B08D15D4800F0F2F900F0E6FA5B4800F0EDF925E1444B1B88072B08D1584800F0E5F900F0D5FC554800F0E0F918E13E4B0D
:401040001B88082B03D1534800F0D8F910E1454800F0D4F90CE1364B1B78642B03D0344B1B78442B59D1344B1B88002B03D1334800F0C4F9FCE0304B1B88022B08D146484A
:4010800000F0BCF900F0B2FB444800F0B7F9EFE0294B1B88052B08D1414800F0AFF900F099FB404800F0AAF9E2E0234B1B88042B08D13D4800F0A2F900F092FB3B4800F038
:4010C0009DF9D5E01C4B1B88012B08D1384800F095F900F079FB374800F090F9C8E0164B1B88062B08D1344800F088F900F0D4FB324800F083F9BBE00F4B1B88072B08D151
:401100002F4800F07BF900F05BFD2E4800F076F9AEE0144800F072F9AAE0054B1B78312B54D1054B01221A80274800F067F99FE094C1FF1FD86F00007CC1FF1FF06F0000C5
:401140001070000028700000447000007C700000A8700000D0700000F87000001C7100005471000088710000A4710000E471000024720000607200009C720000D472000086
:40118000087300004073000078730000A8730000C87300000074000010740000387400006C74000090740000C0740000E07400000C7500002C750000587500007C750000D0
:4011C000A8750000C8750000F07500002C4B1B78322B06D12B4B03221A802B4800F00EF946E0274B1B78332B06D1264B02221A80264800F003F93BE0214B1B78342B06D11A
:40120000204B04221A80224800F0F8F830E01C4B1B78352B06D11B4B05221A801D4800F0EDF825E0164B1B78362B06D1154B06221A80194800F0E2F81AE0114B1B78372BCE
:4012400006D1104B07221A80144800F0D7F80FE00B4B1B78382B06D10A4B08221A80104800F0CCF804E00F4800F0C8F8FFF7B8FD00F01AF800BF07F58077BD4680BD00BFDE
:4012800094C1FF1F7CC1FF1F0C76000024760000487600006476000084760000A0760000BC760000E876000080B400AF064B00221A70064B00221A70054B00221A7000BF74
:4012C000BD4680BC704700BF90C1FF1F94C1FF1F91C1FF1F80B598B000AF03463960FB8000233B73002387F85F3074E097F85F303A6813441B780A2B06D097F85F303A6893
:4013000013441B780D2B06D1384B01221A70384800F074F85AE097F85F303A6813441B787F2B35D097F85F304F2B31D8314B1B78194697F85F303A6813441A782E4B5A5436
:401340002C4B1B780133DAB22A4B1A70FB8807F160021344002203F8542C97F85F3097F85F2039680A44127807F160010B4403F8542C97F85F30013307F1600213440022E6
:4013800003F8542C07F10C03184600F037F81DE0184B1B78002B19D097F85F303A6813441B787F2B12D1134B1B78013BDAB2114B1A7008233B7320237B730823BB730023CB
:4013C000FB7307F10C03184600F018F897F85F30013387F85F3097F85F309BB2FA889A4284D800BF6037BD4680BD00BF91C1FF1F0477000090C1FF1F94C1FF1F80B582B00C
:4014000000AF7860786805F046F803469BB21946786801F02DFB00BF01F072FB0346002BFAD000BF0837BD4680BD00BF80B582B000AF7123BB7104F06DF90023FB7118E015
:40144000FB7943F00403DBB23B71391DB8790023012204F079FB00BF04F0E4FD034603F00203002BF8D0202000F074F9FB790133FB71FB79032BE3D900BF0837BD4680BD3B
:4014800080B582B000AF7123FB712023BB71FFF7CDFF4E48FFF7B2FF4D48FFF7AFFF87E03946F8790023012204F0DEFB00BF04F0B9FD034603F00103002BF8D03B781B0992
:4014C0007B717B7903F00103002B17D04148FFF795FF04233B703946F8790023012204F033FB00BF04F09EFD034603F00203002BF8D0BB790821184600F0CAF87B7903F0F0
:401500000203002B17D005233B703946F8790023012204F019FB00BF04F084FD034603F00203002BF8D02C48FFF768FFBB790821184600F0ADF87B7903F00403002B17D0FA
:4015400006233B703946F8790023012204F0FCFA00BF04F067FD034603F00203002BF8D01E48FFF74BFFBB790821184600F090F87B7903F00803002B17D007233B703946FB
:40158000F8790023012204F0DFFA00BF04F04AFD034603F00203002BF8D01148FFF72EFFBB790821184600F073F8C82003F07CFC01F094FA0346002B3FF472AF0948FFF706
:4015C0001DFF00BF0837BD4680BD00BF0877000028770000407700004877000050770000587700006077000080B582B000AF7123BB7120237B71FFF719FF2448FFF7FEFE60
:401600000023FB713AE0FB7943F00403DBB23B703946B8790023012204F096FA00BF04F001FD034603F00203002BF8D07B790121184600F07DF8C82003F036FC7B790221BF
:40164000184600F075F8C82003F02EFC7B790421184600F06DF8C82003F026FC7B790821184600F065F8C82003F01EFC7B790021184600F05DF8FB790133FB71FB79032BB6
:40168000C1D900BF0837BD4680BD00BF0877000080B584B000AF03460A46FB711346BB7104F0E6FC0021202004F070FBBB79184604F010FC04F0D6FBFB790121184604F09D
:4016C00065FB002004F056FC0346FB7304F0CAFB04F0CEFCFB7B18461037BD4680BD00BF80B582B000AF0346FB710B46BB7113467B7104F0BDFC0D4ABB7913700B4A7B794B
:401700005370F87900230222084904F01DFA00BF04F088FC034603F00203002BF8D004F0A7FC00BF0837BD4680BD00BFE4C1FF1F80B582B000AF03460A46FB711346BB7170
:40174000BA79FB790A211846FFF7CAFF00BF0837BD4680BD80B582B000AF0346FB7103F0D9FFFB79F02200211846FFF7B9FFFB79002209211846FFF7B3FFFB790022042172
:401780001846FFF7ADFFFB79002205211846FFF7A7FFFB79F02201211846FFF7A1FFFB79F02202211846FFF79BFFFB79F02206211846FFF795FFFB7908211846FFF768FF53
:4017C00000BF0837BD4680BD80B400AF00BFBD4680BC704780B400AF00BFBD4680BC704780B400AF00BFBD4680BC704780B400AF00BFBD4680BC704780B584B000AF0346EA
:401800000A46FB711346BB7104F032FC0021202004F0BCFABB79184604F05CFB04F022FBFB790121184604F0B1FA002004F0A2FB0346FB7304F016FB04F01AFCFB7B18466E
:401840001037BD4680BD00BF80B582B000AF0346FB710B46BB7113467B7104F009FC0D4ABB7913700B4A7B795370F87900230222084904F069F900BF04F0D4FB034603F065
:401880000203002BF8D004F0F3FB00BF0837BD4680BD00BFE4C1FF1FB0B598B000AF4648FFF7ACFD712387F85D30012387F85E304248FFF7A3FD03F02DFF4148FFF79EFDDB
:4018C000002387F85F3064E007F10C033D4A1C4615460FCD0FC495E8070003C4227097F85F303033DBB23B7200237B7207F1080207F10C031146184604F0BEFD07F10C035D
:40190000184604F0C8FD03461A4607F10C0313442D4A1188927819809A7007F10C031846FFF76CFD97F85F3043F00403DBB23B71391D97F85D000023012204F005F900BF3E
:4019400004F070FB034603F00203002BF8D01F48FFF754FDF02200212020FFF775FF00212020FFF749FF034687F85C3097F85C30F02B03D11648FFF741FD05E01548FFF782
:401980003DFD002387F85E3097F85F30013387F85F3097F85F30032B96D997F85E30012B03D10D48FFF72AFD02E00C48FFF726FD00BF6037BD46B0BD7C7700008C77000008
:4019C000A8770000C4770000E0770000E4770000F877000004780000247800003878000080B500AFFFF760FC0C210C20FEF7D2FC0C210B20FEF7CEFC0C210E20FEF7CAFC25
:401A00000C210F20FEF7C6FC0C210820FEF7C2FC0C210720FEF7BEFC0C210520FEF7BAFC01210C20FEF7B6FC01210B20FEF7B2FC01210E20FEF7AEFC00210F20FEF7AAFCCC
:401A400000210820FEF7A6FC00210720FEF7A2FC00210520FEF79EFC00210F20FEF79AFC00210820FEF796FC00210720FEF792FC00210520FEF78EFC4FF4FA7003F014FAED
:401A800001210820FEF786FC00210720FEF782FC00210520FEF77EFC4FF4FA7003F004FA00210820FEF776FC01210720FEF772FC00210520FEF76EFC4FF4FA7003F0F4F9C9
:401AC00001210820FEF766FC01210720FEF762FC00210520FEF75EFC4FF4FA7003F0E4F900210820FEF756FC00210720FEF752FC01210520FEF74EFC4FF4FA7003F0D4F989
:401B000001210820FEF746FC00210720FEF742FC01210520FEF73EFC4FF4FA7003F0C4F900210820FEF736FC01210720FEF732FC01210520FEF72EFC4FF4FA7003F0B4F947
:401B400001210820FEF726FC01210720FEF722FC01210520FEF71EFC4FF4FA7003F0A4F901210F20FEF716FC00210C20FEF712FC4FF4FA7003F098F901210C20FEF70AFCF3
:401B800000210B20FEF706FC4FF4FA7003F08CF901210B20FEF7FEFB00210E20FEF7FAFB4FF4FA7003F080F901210E20FEF7F2FB00F094FF0346002B00D14DE700BF80BD06
:401BC00080B400AF00BFBD4680BC704780B582B000AF2848FFF712FCFFF766FB2648FFF70DFC04F0AFFA2548FFF708FC00237B7133E07B79184600F045F80023FB800EE0CE
:401C0000FB88184604F0D8FA00BF1D4B1B78DBB203F00103002BF8D0FB880133FB80FB887F2BEDD90023FB8011E0FB8843F480539BB2184604F0C0FA00BF114B1B78DBB2F7
:401C400003F00103002BF8D0FB880133FB80FB887F2BEAD97B7901337B717B79072BC8D900F03CFF0346002B00D1BFE700BF0837BD4680BD547800007C7800009C78000055
:401C80006B64004080B582B000AF0346FB71FB79184604F0EDFA00BF0837BD4680BD00BF80B582B000AF786039603A680021786804F0B5FB00BF0837BD4680BD80B584B02B
:401CC00000AFF860B9607A607A68B968F86804F09BFB00BF1037BD4680BD00BF80B584B000AFF860B9607A607A68B968F86804F08BFB00BF1037BD4680BD00BF80B483B04C
:401D000000AF0346FB71FEE780B487B000AF7860396000233B6100237B6127E07B699B007A6813441B68BB60BB68FB73BB6823F0FF03BB6014E03B695B003A6813441B7851
:401D40001A46BB68134419463B695B003A6813445B780B703B6901333B61FB7B013BFB73FB7B002BE7D17B6901337B617B69212BD4D900BF1C37BD4680BC704780B582B0B7
:401D800000AF394B09221A80384B18221A70384B1F221A80374B18221A70374B4FF6FF721A80364B1B221A70042235493548FFF795FF354B06221A70344B52221A70344B4D
:401DC000344A1278D2B21A70334B40F618021A80324B41F251221A800023FB7019237B6014E0FB785B00DAB22D4B1B78DBB203F00103DBB21343DBB203F00303FB704FF40F
:401E0000F07004F061FA7B68013B7B607B68002B02D0FB78032BE4D17B68002B02D10320FFF76CFF1F4B4FF480721A801D4B07221A701D4B00221A701C4B48221A70194B37
:401E400000221A701A4B00221A701A4B02221A70194A194B1B78DBB243F00703DBB2137000BF0837BD4680BD80400040824000408440004086400040884000408A40004002
:401E8000C0780000004100400043004000420040A14600400F0100492242004020420040254200400440004006400040084000400940004001400040A243004080B483B0CF
:401EC00000AF0B4B1B78FB710A4AFB7903F00703DBB21370084AFB791B09DBB21370074B44221A7000BF0C37BD4680BC704700BFCF0100496E5800406F58004076580040E2
:401F000080B586B000AF72B64F4B60221A70FFF735FF4D4B00221A700023FB7513E0FA7D13465B0013445B00484A13443B613B691A683B699B889BB219461046FFF7B0FED0
:401F4000FB7D0133FB75FB7D072BE8D90023FB751CE0FA7D13469B0013445B003C4A1344FB60FB681B68BB60FB685B687B60FB681A7A5B7A1B0213437B807B881A46796876
:401F8000B868FFF7ABFEFB7D0133FB75FB7D002BDFD030493048FFF7B7FE304A2F4B1B78DBB243F00203DBB213702D4A2C4B1B78DBB243F00203DBB213702A4A294B1B782B
:401FC000DBB243F04003DBB21370274A264B1B78DBB243F01003DBB21370082223492448FFF77CFE0A2223492348FFF777FE0A2222492348FFF772FE082222492248FFF739
:402000006DFE082221492248FFF768FE082221492148FFF763FE082220492148FFF75EFE204A204B1B78DBB243F00803DBB21370FFF744FF0E220B491B48FFF73FFE00BFE4
:402040001837BD4680BD00BF00480040C4780000F478000088790000007900000350014013500140A0430040C2430040C080000002510040C8800000C0510040D480000008
:40208000F0510040E080000012510040E880000022510040F080000052510040F88000006251004022430040B043004080B500AF04F07EF903461B680C2B00D1FEE7FEE7FE
:4020C00080B584B000AF78600F4B1A687B6813441A460E4BD31A802B09DC0B4B1B68FB60094B1A687B681344074A136007E004F05FF902460C2313604FF0FF33FB60FB6850
:4021000018461037BD4680BDCCC0FF1FF8C2FF1F80B586B000AF224B7B61224B3B61204B7B6135E03B691B68FB603B695B68BB603B699B683B6000237B600CE0FB681A685B
:40214000BB681A60BB680433BB60FB680433FB607B6804337B607A683B689A42EED13B69DB683B6000237B6008E0BB6800221A60BB680433BB607B6804337B607A683B682D
:402180009A42F2D13B6910333B617B69013B7B617B69002BC6D104F011F9FDF773FFFEE701000000C483000080B582B000AF184B184A1A60184A184B1B6843F40073136010
:4021C00000237B600FE07B68032B04D8134A7B6852F8233000E0124B12497A6841F822307B6801337B607B682F2BECD90E4B1B78DAB20E4B1A700E4B0A4A1A60FFF780FE39
:402200000C4B00221A6000BF0837BD4680BD00BF0CED00E00004FA0514ED00E000000000AD20000000C0FF1FBC760040C4C0FF1F08ED00E0C0C0FF1F80B582B000AF034660
:402240000A46FB711346BB71094B1B78002B04D100F010F8064B01221A70BA79FB791146184600F0D9F800BF0837BD4680BD00BF7EC1FF1F80B582B000AF04F044F803463A
:40228000FB71544A534B1B78DBB243F00103DBB21370514A504B1B78DBB243F00103DBB213704E4B01221A704D4B02221A704D4A4C4B1B78DBB203F07F03DBB213700020F3
:4022C00002F014FE484A484B1B78DBB223F00603DBB21370454A454B1B78DBB223F02003DBB21370404A404B1B78DBB243F00103DBB21370012002F0F9FD282002F0F6FD32
:402300003B4A3B4B1B78DBB203F07F03DBB21370374A374B1B78DBB223F04003DBB21370314A314B1B78DBB243F00203DBB21370022002F0DBFD2C4A2B4B1B78DBB243F0DA
:402340000403DBB213702B4B00221A702A4B00221A70FB79184603F0DAFF0721172002F001FE2649172002F0D5FD0721182002F0F9FD2349182002F0CDFD0721152002F0B4
:40238000F1FD2049152002F0C5FD0721012002F0E9FD1D49012002F0BDFD0721022002F0E1FD1A49022002F0B5FD0721032002F0D9FD1749032002F0ADFD07210C2002F0CE
:4023C000D1FD14490C2002F0A5FD00BF0837BD4680BD00BFA5430040B54300409D60004009600040106000409443004012600040F851004084600040856000401933000018
:40240000012C00000D330000253200006D320000B9320000E136000080B584B000AF03460A46FB711346BB710023FB7306E0FB7B334A0121D154FB7B0133FB73FB7B012B2A
:40244000F5D9304AFB7913702F4B00221A702F4B00221A702E4B00221A702E4B00221A702D4B00221A702D4B00221A702C4B00221A702C4B4FF400021A602A4B4FF0807240
:402480001A60284B4FF400121A60264B02221A60244B04221A60234B08221A60BB79002B02D0012B09D011E01F4A1F4B1B78DBB223F00103DBB2137011E01B4A1A4B1B78A1
:4024C000DBB243F00103DBB2137008E0164A164B1B78DBB243F00103DBB2137000BF134B03221A70124B80221A70012003F0ECFE104B04221A7000BF1037BD4680BD00BF95
:402500009CC2FF1F01C2FF1F04C2FF1F20C2FF1F23C2FF1F18C2FF1F22C2FF1F25C2FF1F00C2FF1F00E100E00960004028600040086000401260004080B483B000AF0023B3
:40254000FB7106E0FB79144A0121D154FB790133FB71FB79012BF5D9104B00221A70104B00221A700F4B00221A700F4B00221A700E4B00221A700E4B00221A700D4B0022D0
:402580001A700D4B03221A700C4B80221A7000BF0C37BD4680BC70479CC2FF1F04C2FF1F20C2FF1F23C2FF1F18C2FF1F22C2FF1F25C2FF1F00C2FF1F28600040086000405D
:4025C00080B400AF034B1B78DBB21846BD4680BC704700BF23C2FF1F80B483B000AF0023FB71084B1B78DBB2002B05D0054B1B78FB71044B00221A70FB7918460C37BD46FA
:4026000080BC704720C2FF1F80B483B000AF0346FB71FA79064913465B0013449B000B4401331B78DBB218460C37BD4680BC704728C2FF1F80B485B000AF0346FB71002342
:40264000FB81FB79002B1CD0FB79082B19D8104AFB791B0113441B78DBB29BB203F00F03FB81FB891B029AB20949FB791B010B4401331B78DBB29BB21343FB81FB89023B3A
:40268000FB81FB8918461437BD4680BC704700BFFC5F0040B0B485B000AF03463960FB711346BB80FB79002B6DD0FB79082B6AD8B988FA79364813465B0013449B00034413
:4026C00006331B889BB2C3F5007399420CD9FA792F4913465B0013449B000B4406331B889BB2C3F50073BB802A4CF979BB881B0A9BB2D8B2FA79264D13465B0013449B00A4
:402700002B4403331B78DBB20343DAB20B0123441A70204AFB79B988C9B21B01134401330A461A703B68002B13D00023FB810CE01948FB79FA8939680A4412781B0103447A
:4027400008331A70FB890133FB81FA89BB889A42EED3FA790E4913465B0013449B000B44013300221A700B48F979FA79084C13465B0013449B00234405331B78DAB20B0162
:40278000034402331A7000BF1437BD46B0BC704728C2FF1FFC5F00407060004080B584B000AF03463960FB711346BB803B68002B30D0FB79002B2DD0FB79082B2AD8FB79AF
:4027C0001846FFF737FF03461A46BB88934205D9FB791846FFF72EFF034600E0BB88BB800023FB810DE0FB893A6813440D49FA7912010A4408321278D2B21A70FB89013357
:40280000FB81FA89BB889A42EDD3FB79184600F00BF801E00023BB80BB8818461037BD4680BD00BF7060004090B482B000AF0346FB71FB79002B1CD0FB79082B19D8FA794F
:402840000E4913465B0013449B000B44013300221A700B48F979FA79084C13465B0013449B00234405331B78DAB20B01034402331A7000BF0837BD4690BC704728C2FF1F1E
:40288000FC5F004080B582B000AF0023FB71314B1B79DBB2184600F067F80346BB712D4B1B78DBB25BB2002B15DA2A4B5B78DBB2212B00D048E0284B07221A80BA7913467F
:4028C000DB009B1A254A1344234A536000F012FB0346FB7138E01F4B5B78DBB2202B02D0222B1AD030E01C4B07221A80BA791346DB009B1A194A1344174A5360BB79BA79EF
:4029000017498A5CD2B242F00102D1B2144AD15400F06EFB0346FB7116E0BB790D4A9278D2B291B20F4A22F81310BB79BA790C498A5CD2B242F00202D1B2094AD15400F055
:40294000F5FB0346FB7100BFFB7918460837BD4680BD00BF006000400CC2FF1FD0C0FF1FE8C1FF1FFCC1FF1F80B485B000AF0346FB710023FB73FF23BB7317E0FB7B104A92
:40298000D35C7B737A7B0F4913465B0013449B000B440A331B78DBB2FA799A4203D1FB7BBB730223FB73FB7B0133FB73FB7B012BE4D9BB7B18461437BD4680BC704700BFF6
:4029C000F0C1FF1F28C2FF1F80B582B000AF0023BB71224B00221A70214B00221A70204B00225A700023FB7110E0FB791D4AD35C7B717B79002B06D07B79082B03D87B79B3
:402A00001846FFF711FFFB790133FB71FB79012BEBD9154B1B78DBB2002B18D0114B1B78DBB2002B13D0114B1B78DBB2002B0ED00D4B1B78DBB2082B09D80A4B1B78DBB217
:402A4000082B04D8094B1B78DBB2082B01D90123BB71BB7918460837BD4680BD7FC1FF1FE8C1FF1FF4C1FF1FECC1FF1FF0C1FF1F80B584B000AF78600B467B80144B1B78A5
:402A80001A46144B9B5CFB73FA7B134913465B0013449B000B4408331B889BB27A889A420CD9FA7B0C4913465B0013449B000B4408331B887B80002002F0EAF97A88FB7B39
:402AC00079681846FFF7E6FD00BF1037BD4680BD7FC1FF1FECC1FF1F28C2FF1F80B500AF054B1B781A46054B9B5CDBB21846FFF78BFD0346184680BD7FC1FF1FF4C1FF1F5B
:402B000080B500AF054B1B781A46054B9B5CDBB21846FFF779FD0346184680BD7FC1FF1FECC1FF1F80B584B000AF78600D4B1B781A460D4B9B5CFB73FA7B0C4913465B004D
:402B400013449B000B4408331B889AB2FB7B79681846FFF723FE0346BB81BB8918461037BD4680BD7FC1FF1FF4C1FF1F28C2FF1F80B485B000AF78600B46FB701346BB7007
:402B80007B68DB7803F00303FB737B689B785BB2002B1ADAFB7B032B0AD0BB7803F001031449FA78CA54BB7843F00103BB701BE0BB789B08DBB203F001030F49FA78CA54EF
:402BC000BB7843F00403BB700EE0FB7B032B0BD0BB785B08DBB203F001030849FA78CA54BB7843F00203BB70BB7818461437BD4680BC7047ECC1FF1FF0C1FF1FF4C1FF1F00
:402C000080B582B000AF374B1B78BB71BB7903F01003002B62D00123FB7197F90630002B12DABB7903F00F03012B02D00023FB711CE000F061F82C4B1B78DBB25BB2002B5F
:402C400014DA0023FB7111E0BB7903F04003002B02D000F095F809E0BB7903F02003002B02D000F0B3F801E00023FB71FB79002B34D01C4B1B78BB7197F90630002B2DDB05
:402C80001A4B1B78DAB21A4B1B78DBB21343BB71184ABB791370174B1B78DBB2BA799A421CD1114B1B78FB710E4B1B78DBB223F07F03BB71BB79002B0AD10A4B0A4A1278F0
:402CC000D2B21A70074B1B78DBB203F00F03FB71054B1B78DBB2FA799A42E2D100BF0837BD4680BD2860004021C2FF1F96C2FF1F24C2FF1F2960004080B582B000AF1D4BA9
:402D00001B78FB711B4AFB7913701A4B1B78FB7197F90730002B03DA174AFB79137025E0022000F045FA154B1B78DBB203F06003202B08D0402B0BD0002B0ED100F0D6FC4C
:402D40000346FB710CE003F0E9FA0346FB7107E001F0DEFC0346FB7102E00023FB7100BFFB79002B02D1044B03221A7000BF0837BD4680BD2860004021C2FF1F0060004079
:402D800080B500AF104B1B78DBB2062B19D801A252F823F0C32D0000C32D0000B12D0000C32D0000B72D0000C32D0000BD2D000000F0F8F806E000F0A7F903E000F0D2F932
:402DC00000E000BF00BF80BD04C2FF1F80B500AF124B1B78DBB2062B1DD801A252F823F0172E0000172E0000FD2D0000172E0000032E0000172E0000092E000000F0D8F867
:402E00000AE000F027F907E0032000F0D1F9044B03221A7000E000BF00BF80BD04C2FF1F21C2FF1F80B483B000AF0023FB71294B1B78DBB29AB2284B1B889BB213449AB2CB
:402E4000254B1A8015E02549FB79254A52681278D2B2CA54224B5B680133214A5360FB790133FB711E4B1B889BB2013B9AB21C4B1A801B4B1B889BB2002B02D0FB79072BAB
:402E8000E1D9144B1B78DBB2082B02D0FB79002B0FD0144B1B78DBB283F07F03DB43DAB2104B1A70104B0F221A70104B02221A7005E00D4B02221A700C4B02221A700C4AEE
:402EC000FB791370034AFB79137000BF0C37BD4680BC704700C2FF1F02C2FF1F006000400CC2FF1F96C2FF1F21C2FF1F04C2FF1F24C2FF1F80B582B000AF164B1B889BB28B
:402F0000002B02D100F02EF81EE0134B02221A70124B00221A7000F06BF9114BDB79DBB29BB21B029AB20E4B9B79DBB29BB21343FB80084B1B889BB2FA889A4202D2054A47
:402F4000FB881380FFF76EFF012318460837BD4680BD00BF0CC2FF1F04C2FF1F96C2FF1F0060004080B400AF094B02221A70094B80221A70084B0F221A70084B00221A70C0
:402F8000074B00221A7001231846BD4680BC704704C2FF1F96C2FF1F21C2FF1F00C2FF1F24C2FF1F80B500AFFFF73CFF00BF80BD80B500AF0A4B1B78DBB29AB2094B1B88AF
:402FC0009BB213449AB2074B1A80074B00221A70012000F0EDF8054B03221A7000BF80BD00C2FF1F02C2FF1F04C2FF1F21C2FF1F80B582B000AF124B04221A70114B80223E
:403000001A7000F0F5F8104BDB79DBB29BB21B029AB20D4B9B79DBB29BB21343FB800B4B1B889BB2FA889A4202D2084AFB881380074B0B221A70012318460837BD4680BD36
:4030400004C2FF1F96C2FF1F006000400CC2FF1F21C2FF1F80B483B000AF0023BB71234B1B78DBB203F00F03DBB2023BFB71FB799AB21F4B1B889BB213449AB21C4B1A807D
:4030800018E01C4B5B681C49BA798A5CD2B21A70184B5B680133174A5360BB790133BB71FB79013BFB71134B1B889BB2013B9AB2104B1A800F4B1B889BB2002B02D0FB79BE
:4030C000002BDED10D4AFB7913700D4B1B78DBB283F07F03DB43DAB2094B1A70094B0B221A7000BF0C37BD4680BC70472960004002C2FF1F0CC2FF1F0060004024C2FF1F75
:4031000096C2FF1F21C2FF1F80B500AF054B00221A70012000F04CF8034B03221A7000BF80BD00BF04C2FF1F21C2FF1F80B400AF084B06221A70084B06221A70074B802265
:403140001A70074B00221A7001231846BD4680BC704700BF04C2FF1F21C2FF1F96C2FF1F24C2FF1F80B500AF0D4B1B78DBB2002B0AD00C4A0A4B1B78DBB263F07F03DBB2A3
:403180001370074B00221A70074B00221A70012000F00EF8054B03221A7000BF80BD00BF22C2FF1F0860004004C2FF1F21C2FF1F80B483B000AF0346FB710B4B9B68002BE1
:4031C0000CD0094B9B68FA791A70074B9B68074A128892B25A80044B00229A6000BF0C37BD4680BC704700BF0CC2FF1F02C2FF1F80B400AF094B00221A80094B9B68002BDC
:4032000007D0074B9B6800221A70054B9B6800225A8000BFBD4680BC704700BF02C2FF1F0CC2FF1F80B400AF0D4B01221A700D4B9B7C0D4B1B7BDBB203F00303012B08D056
:40324000094BDB7BDBB283F07F03DB43DAB2064BDA73054B01225A7300BFBD4680BC70470B600040FC5F004028C2FF1F80B400AF0E4B02221A700E4B93F822300D4B1B7E86
:40328000DBB203F00303012B08D00A4BDB7EDBB283F07F03DB43DAB2064BDA76054B01225A7600BFBD4680BC704700BF0B600040FC5F004028C2FF1F80B400AF104B0422A0
:4032C0001A70104B93F832300F4B93F82430DBB203F00303012B0AD00B4B93F82730DBB283F07F03DB43DAB2074B83F82720064B012283F8252000BFBD4680BC704700BF17
:403300000B600040FC5F004028C2FF1F80B400AF00BFBD4680BC704780B500AFFFF70CF900BF80BD80B582B000AF0023FB71714B1B79BB716F4B1B78DBB25BB2002B6CDA53
:403340006C4B5B78DBB2013B052B00F2BE8001A252F823F0B7330000D1330000FB330000CB340000CB3400006D330000614BDB78DBB2212B0CD100F0C7F85F4B1B889BB2E2
:40338000002B00F0A480FFF7B5FD0346FB719EE0584BDB78DBB2222B40F0998000F0F2F8554B1B889BB2002B00F09180FFF7A2FD0346FB718BE000F02DF94F4B1B889BB2EF
:4033C000002B00F08680FFF795FD0346FB7180E0BB79012B7FD8474B9B78DBB2002B7AD1454B01221A80BB79444A1344424A5360FFF780FD0346FB716DE0BB79012B6CD8F2
:403400003D4B01221A80BB793D4A13443A4A5360FFF770FD0346FB715FE0364B5B78DBB20A2B10D00B2B3DD0092B00D05CE000F0F1F8314B1B889BB2002B50D0FFF7D8FDD3
:403440000346FB714BE0BB79012B4AD8294B9B78DBB2002B45D1BB79264AD278D1B2274AD154BB79254AD35CDAB2BB792549CB5CDBB29A4204D2BB79224A0021D1540CE056
:40348000BB79204AD35CDBB2012B06D9BB79BA791A498A5CD1B21B4AD154FFF747FE0346FB711EE0BB79012B1DD8124B9B78DBB2012B18D8BB790F4A9278D1B2104AD154F5
:4034C000FFF734FE0346FB710DE000BF0CE000BF0AE000BF08E000BF06E000BF04E000BF02E000BF00E000BFFB7918460837BD4680BD00BF006000400CC2FF1FA4C2FF1FA0
:403500009CC2FF1FA0C2FF1F80B584B000AF194B1B78DBB2013BDBB2184600F041FFF860154B1B79FB72FB7A0233DB00FA681344FB60FB685B68FB60FB7A104AD35CDBB23E
:40354000DB00FA681344FB60FB685B68FB60FB682033FB60FB685B687B607B681B78DBB29AB2074B1A80064A7B68536000BF1037BD4680BD23C2FF1F0060004094C2FF1F4B
:403580000CC2FF1F80B584B000AF1E4B1B78DBB2013BDBB2184600F003FFF8601A4B1B79FB72FB7A0233DB00FA681344FB60FB685B68FB60FB7A154AD35CDBB2DB00FA68C0
:4035C0001344FB60FB685B68FB60FB681833FB60FB685B687B607B6801331B78DBB29BB21B029AB27B681B78DBB29BB213439AB2074B1A807B680233054A536000BF1037A3
:40360000BD4680BD23C2FF1F0060004094C2FF1F0CC2FF1F80B584B000AF2D4B00221A802C4B1B78DBB2013BDBB2184600F0B8FEF860294BDB78FB72274B1B79BB72BB7AA3
:403640000233DB00FA681344FB60FB685B68FB60BB7A012B38D8BB7A204AD35CDBB2DB00FA681344FB60FB685B68FB60FB7A002B2AD0FB7A032B27D8FB7A03F10053013B35
:40368000DB00FA681344FB60134B9B78FB72FB681B78FA7A9A4217D8FB685B687B60FA7A13465B0013449B001A467B6813447B607B685B68064A53607B681A88044B1A8061
:4036C0007B689B68024A936000BF1037BD4680BD0CC2FF1F23C2FF1F0060004094C2FF1F80B500AF01F0C4FB00BF80BD80B586B000AF0023FB759D4B1B78FB7100233B6179
:403700009B4B00221A8097F90730002B80F20481964B5B78DBB20A2B00F21B8201A252F823F000BF6F380000533B0000533B0000533B0000533B0000533B00005137000045
:40374000533B0000E3380000533B0000F9380000864BDB78DBB2012B0ED100F049FEB860BB685B68824A5360814B12221A80FFF7C1FB0346FB75EEE17C4BDB78DBB2022BC9
:4037800025D17A4B9B78DBB2184600F009FEB860BB68002B00F0DF81BB685B68744A5360734B5B6803331B78DBB29BB21B029AB26F4B5B6802331B78DBB29BB213439AB2FE
:4037C0006B4B1A80FFF796FB0346FB75C3E1674BDB78DBB2032B45D10023FB73654B3B6109E03B691B78BB71BB793A6913443B61FB7B0133FB735D4B9B78DBB2FA7B9A421B
:4038000004D23B691B78DBB2002BEAD1574B9B78DBB2EE2B01D1584B3B61544B9B78DBB2002B0BD0514B9B78DAB2544B1B7C9A4204D1534800F0ACF9514B3B613B691B7896
:40384000DBB2002B00F087813B691B78DBB29AB2474B1A80464A3B695360FFF74BFB0346FB7578E102F05AFD0346FB7573E1FB7903F00303002B20D0022B00D030E03C4BB5
:4038800002221A80394B1B79DBB203F07F023D4913465B0013449B000B4402331B78DAB2394B1A70384B00225A70314B364A5A60FFF720FB0346FB7512E02D4B02221A803D
:4038C000324B1B78DAB2304B1A702F4B00225A70274B2D4A5A60FFF70DFB0346FB7500BF40E1234B01221A80214B294A5A60FFF701FB0346FB7535E11D4B01221A801B4B77
:403900001B79DBB21A46234B1344194A5360FFF7F1FA0346FB7525E1144B5B78DBB2013B0A2B00F21A8101A252F823F0373A00005B3B0000C53A00005B3B000059390000A0
:403940005B3B00005B3B00005B3B00009D3900005B3B0000F3390000044B9B78DAB20E4B1A70FFF7E3FB0346FB75FBE0006000400CC2FF1FEC8100002C83000094810000F7
:40398000CCC2FF1F28C2FF1F80C1FF1F25C2FF1F23C2FF1F94C2FF1F22C2FF1F744B9B787B717B79002B06D07B79013BDBB2184600F0F6FCB8607B79002B02D0BB68002B6F
:4039C00003D17B79002B40F0CA806A4B1B78DBB27A799A4208D0674A7B791370664B01221A70012000F0DCF9FFF7A0FB0346FB75B5E000F055FE0346002B00F0B2805C4B13
:403A00001B793B715A4B1B79DAB25C4B1A703B795B4AD35CDAB23B795A49CB5CDBB29A4204D0554B01221A7000F08CFBFFF77EFB0346FB7595E0FB7903F00303012B20D097
:403A4000012B0CD3022B00D03BE0494B9B78DBB2002B31D100F078FD0346FB752CE0444B9B78DBB2012B29D1474B1B78DBB223F00203DAB2444B1A70FFF758FB0346FB75D2
:403A80001CE03B4B1B79DBB2012B19D8384B9B78DBB2DB43DBB2364A1279D2B2114610463A4A125CD2B21340DAB2384B5A54FFF73DFB0346FB7503E000BF53E000BF51E00A
:403AC00000BF4FE0FB7903F00303012B20D0012B0CD3022B00D03BE0254B9B78DBB2002B31D100F0BDFC0346FB752CE0204B9B78DBB2012B29D1244B1B78DBB243F0020389
:403B0000DAB2214B1A70FFF711FB0346FB751CE0174B1B79DBB2012B19D8154B9B78DBB2DB43DBB2124A1279D2B211461046174A125CD2B21340DAB2144B5A54FFF7F6FAC4
:403B40000346FB7503E000BF0CE000BF0AE000BF08E000BF06E000BF04E000BF02E000BF00E000BFFB7D18461837BD4680BD00BF0060004023C2FF1F20C2FF1F18C2FF1FA8
:403B800008C2FF1F94C2FF1F25C2FF1F98C2FF1FB0B58AB000AF7860324B07F114041D460FCD0FC42B682370002387F826307B68002B52D07B6822221A707B68013303222C
:403BC0001A7007F10C03184601F0F0F9022387F827303EE097F827307A68134497F8262007F128010A4412F81C2C1209D2B207F128010A4412F8142C1A7097F82730013332
:403C00007A68134400221A7097F8273002337A68134497F8262007F128010A4412F81C2C02F00F0207F128010A4412F8142C1A7097F8273003337A68134400221A7097F8DF
:403C40002630013387F8263097F82730043387F8273097F82730212BBCD900BF2837BD46B0BD00BF8081000090B482B000AF0123FB7180E0464AFB791B0113440C221A7099
:403C8000FA79444913465B0013449B000B4405331B78DBB2002B1CD0FA793E4913465B0013449B000B4404331B78DBB25BB2002B07DA394AFB791B01134402330C221A70EA
:403CC0000EE0354AFB791B011344023308221A7006E0314AFB791B011344023380221A702B48F979FA792B4C13465B0013449B00234406331B889BB2DAB20B0103440633C1
:403D00001A702348F979FA79224C13465B0013449B00234406331B889BB21B0A9BB2DAB20B01034407331A701948F979FA79194C13465B0013449B00234406331B889BB20F
:403D4000DAB20B01034404331A701148F979FA79104C13465B0013449B00234406331B889BB21B0A9BB2DAB20B01034405331A70FB790133FB71FB79082B7FF67BAF074B14
:403D8000FF221A7000BF0837BD4690BC704700BF7060004028C2FF1FFC5F00400A60004080B58AB000AF0346FB7100237B84002387F8273050E097F82720B34913465B0094
:403DC00013449B000B4400221A7097F82720AE4913465B0013449B000B44023300221A7097F82720A84913465B0013449B000B44033300221A7097F82720A34913465B001F
:403E000013449B000B44083300221A8097F827209D4913465B0013449B000B440A3300221A7097F82720984913465B0013449B000B44013300221A7097F82720924913461A
:403E40005B0013449B000B44053300221A7097F82730013387F8273097F82730082BAAD9FB79002B16D0002387F825300EE097F82530864A0021D15497F82530844A0021FF
:403E8000D15497F82530013387F8253097F82530012BECD97F4B1B78DBB2002B00F04A810023FB767B4B1B78DBB2013BDBB2184600F076FA78617B695B683B613B69073351
:403EC0001B7803F04003002B08D0734B1B78DBB243F00103DAB2704B1A7007E06E4B1B78DBB223F00103DAB26B4B1A707B6908337B617B691B7887F82730012387F825302D
:403F0000B6E07B695B68FB61002387F82630A3E097F82520FB699B7803F07F039A4240F0938097F82520584913465B0013449B000B4408331B889AB2FB699B889A420CD2B9
:403F400097F82520FB6998884F4913465B0013449B000B44083302461A80FB691B781A464A4B9B5CDAB2FB695B789A426CD197F82520FB699878444913465B0013449B0005
:403F80000B44043302461A7097F82520FB69D8783D4913465B0013449B000B4402461A70FB69DB7803F00303FB73FB699B785BB2002B1CDA97F82520FB7B012B01D10720A2
:403FC00000E00D20304913465B0013449B000B44053302461A7097F825202B4913465B0013449B000B44013301221A701BE097F82520FB7B012B01D1052000E00920224942
:4040000013465B0013449B000B44053302461A7097F825201C4913465B0013449B000B44013300221A70FB699B790A2B03D0FB699B79022B08D1FA7E97F825301946F86959
:40404000FEF796FD0346FB76FB690833FB6197F82630013387F8263097F8262097F827309A42FFF455AF97F82530013387F8253097F82530082B7FF644AF7B695B68FB6119
:40408000002387F8253020E028C2FF1F94C2FF1F08C2FF1F23C2FF1F25C2FF1FFB699B7803F07F02FB691878244913465B0013449B000B440A3302461A70FB690833FB6152
:4040C00097F82530013387F8253097F8252097F827309A42E2D300F09DF90246184B1A6000237B84012387F827301DE097F82720124913465B0013449B000B4406337A8C60
:404100001A8097F827200D4913465B0013449B000B4408331B889AB27B8C13447B8497F82730013387F8273097F82730082BDDD9FFF79AFD00BF2837BD4680BD28C2FF1F8B
:404140001CC2FF1F90B585B000AF8F4B1B78DBB2002B00F015818C4B1B78DBB2013BDBB2184600F01DF978607B6808337B607B681B78FB707B685B68BB60844B1B78BB704B
:404180000023FB73F7E0BB681B78BA789A4240F0EC80BB787E4AD35CDAB2BB685B789A4240F0E380BB689B7803F07F037B70BB68DB7803F003033B707A78764913465B0007
:4041C00013449B000B44033300221A707A78BB689878704913465B0013449B000B44043302461A707A78BB68D8786A4913465B0013449B000B4402461A707A78BB689888AC
:40420000644913465B0013449B000B44083302461A80BB689B785BB2002B1ADA7A783B78012B01D1072000E00D205A4913465B0013449B000B44053302461A707A78554954
:4042400013465B0013449B000B44013301221A7019E07A783B78012B01D1052000E009204C4913465B0013449B000B44053302461A707A78474913465B0013449B000B4493
:40428000013300221A70444A7B781B011344023301221A70404879787A783E4C13465B0013449B00234408331B889BB21B0A9BB2DAB20B0103441A70374879787A78354C5D
:4042C00013465B0013449B00234408331B889BB2DAB20B01034401331A70304879787A782C4C13465B0013449B00234406331B889BB2DAB20B01034406331A7027487978DE
:404300007A78244C13465B0013449B00234406331B889BB21B0A9BB2DAB20B01034407331A701E4879787A781A4C13465B0013449B00234406331B889BB2DAB20B0103440C
:4043400004331A70154879787A78124C13465B0013449B00234406331B889BB21B0A9BB2DAB20B01034405331A70BB680833BB60FB7B0133FB73FA7BFB789A42FFF403AF9B
:4043800000BF1437BD4690BD23C2FF1F18C2FF1F94C2FF1F28C2FF1FFC5F00407060004080B485B000AF0346FB710F4B1B78DBB20E4ADB0013445B68FB60FB681033FB6091
:4043C000FB681B78FA799A4202D30023FB6005E0FB79DB00FA6813445B68FB60FB6818461437BD4680BC704701C2FF1F2483000080B400AF054B1B78DBB2054ADB001344BC
:404400005B681846BD4680BC704700BF01C2FF1F2483000080B584B000AF104B1B78DBB2013BDBB21846FFF7BBFFB860BB68002B0DD0BB685B681B79FB71FB790233DB0007
:40444000BA681344BB60BB685B68FB6001E00023FB60FB6818461037BD4680BD23C2FF1F80B582B000AF0023FB71344B1B79DBB203F07F03BB71BB79002B5AD0BB79082BE7
:4044800057D8BA79B9792E480B465B000B449B00034402331B78DBB243F00103D8B2284913465B0013449B000B44023302461A70BA79234913465B0013449B000B440333C8
:4044C00000221A70BA79B9791D480B465B000B449B00034401331B78DBB243F00203D8B2174913465B0013449B000B44013302461A70BA79124913465B0013449B000B4475
:4045000004331B78DBB25BB2002B07DA0D4ABB791B01134402338D221A7006E0094ABB791B011344023389221A70FEF7FFFD0346FB71FB7918460837BD4680BD00600040BE
:4045400028C2FF1FFC5F004080B582B000AF0023FB71504B1B79DBB203F07F03BB71BB79002B00F09280BB79082B00F28E80BA79B97949480B465B000B449B0003440233C6
:404580001B78DBB223F00103D8B2434913465B0013449B000B44023302461A70BA793E4913465B0013449B000B44033300221A703A49BB793948BA79120102441278D2B24F
:4045C00002F07F02D2B21B010B441A70BA79B97931480B465B000B449B00034401331B78DBB223F00203D8B22B4913465B0013449B000B44013302461A70BA7926491346B4
:404600005B0013449B000B4404331B78DBB25BB2002B1BDABA79204913465B0013449B000B4401331B78DBB2012B07D11B4ABB791B01134402330C221A7022E0174ABB79E1
:404640001B01134402330D221A701AE0BA79124913465B0013449B000B4401331B78DBB2012B07D10D4ABB791B011344023308221A7006E0094ABB791B01134402330922DD
:404680001A70FEF753FD0346FB71FB7918460837BD4680BD0060004028C2FF1FFC5F004080B584B000AF0023FB73154B1B79BB73144B1B78DBB2013BDBB21846FFF770FE0D
:4046C000B860BB685B681B79FB71BA7BFB799A4202D9BB7B022B0ED8BB7BBA7B0A498A5CD1B20A4AD154BB7B054A9278D1B2064AD1540123FB73FB7B18461037BD4680BDFF
:404700000060004023C2FF1F94C2FF1F08C2FF1F80B582B000AF0023FB710F4B1B78DBB25BB2002B12DA0C4B5B78DBB2012B00D00CE00A4B0A4A5A60094B1B789AB2074BB0
:404740001A80FEF7D7FB0346FB7100BFFB7918460837BD4680BD00BF006000400CC2FF1F4083000080B500AF144B02221A70144B81221A70134B08221A70134B28221A7044
:40478000124B00221A70124B4FF400421A6007210F2000F0E7FB0F490F2000F0BBFB0E4B10221A700D4B00221A700D4B00221A700C4B00221A7000BF80BD00BFD649004004
:4047C000C8490040CA490040DB490040DC49004080E100E061480000A6C2FF1FA8C2FF1FB7C2FF1FB6C2FF1F80B582B000AF01F08AFD0346FB710C4A0B4B1B78DBB243F0E5
:404800000403DBB21370094A084B1B78DBB243F00403DBB21370FB79184601F078FD00BF0837BD4680BD00BFA5430040B543004080B500AF084B1B78002B04D1FFF792FF6B
:40484000054B01221A70FFF7CFFF044B4FF400421A6000BF80BD00BF82C1FF1F00E100E080B582B000AFA74B1B78FB71A64B1B78DBB203F04003DBB2002B00F0A981FB79B8
:4048800003F00103002B00F080819F4B1B78DBB2453B052B00F2758101A252F823F000BFB9480000DF490000834B0000834B0000B9480000CB4A0000FB7923F02003FB7193
:4048C000FB7903F00A03DBB2082B46D18E4B1B78DBB2452B3AD18D4B1B78DBB2002B0FD08B4A8C4B1B681B78DBB21370854B04221A70894B01221A70834B46221A7044E13F
:40490000864B1B78DBB203F00203002B0FD0844B1B78DBB243F00A03DAB2814B1A707A4B60221A707F4B4FF400421A602DE17E4A7D4B1B78DBB243F01003DBB213707B4BFF
:4049400010221A706F4B04221A701EE16D4B00221A706D4B4A221A7017E1FB7903F00A03DBB20A2B37D16E4B1B78DBB263F05F03DAB26B4B1A70694B1B78DBB203F00203A4
:40498000002B19D0604B1B78DBB203F00803002B01D0092300E00A23DAB2614B1B78DBB21343DAB25E4B1A70574B60221A705D4B4FF400421A60E8E05B4A5B4B1B78DBB2F0
:4049C00043F01003DBB21370584B10221A704D4B04221A70D9E0002000F05AFAD5E0FB7903F00203002B42D14B4B1B78DAB2474B1B78DBB29A4214D2454A464B1B684649E3
:404A00000978C9B20B441B78DBB213703D4B04221A70414B1B78DBB20133DAB23E4B1A70B3E03E4B1B78DBB203F00203002B0FD03B4B1B78DBB243F00A03DAB2384B1A7014
:404A4000314B60221A70374B4FF400421A609CE0354A354B1B78DBB243F01003DBB21370324B10221A70274B04221A708DE02B4B1B78DBB203F00203002B0FD0284B1B78D6
:404A8000DBB263F06503DAB2254B1A701E4B60221A70244B4FF400421A6076E0224A224B1B78DBB243F01003DBB213701F4B10221A70144B04221A70194B1B78DBB263F094
:404AC0006F03DAB2164B1A705FE0194B1B68194A1278D2B213440E4A1278D2B21A70154B1B78DBB20133DAB2124B1A70114B1B78DAB2114B1B78DBB29A421FD2014B102286
:404B00001A7042E0D7490040A6C2FF1FB8C2FF1FD8490040ACC2FF1FB6C2FF1FB5C2FF1FA8C2FF1F80E100E0D6490040D9490040B0C2FF1FB7C2FF1FB4C2FF1F2C4B1B78E4
:404B4000DBB203F00203002B0FD02A4B1B78DBB243F00903DAB2274B1A70274B60221A70264B4FF400421A600FE0254A244B1B78DBB243F01003DBB21370224B00221A7000
:404B800003E0002000F084F900BFFB7903F02003002B28D0184B1B78DBB203F00803002B01D0012300E00223DAB2124B1B78DBB21343DAB20F4B1A70114A114B1B78DBB2CD
:404BC00023F01003DBB213700B4B10221A700AE0094B1B78DBB203F01003DBB2002B02D1054B10221A7000BF0837BD4680BD00BFB5C2FF1FA8C2FF1FA6C2FF1F80E100E091
:404C0000D6490040D749004080B485B000AF396011461A460346FB710B46BB7113467B710223FB733B68002B56D02E4B1B78DBB2102B0CD12C4B1B78DBB203F00803002BDE
:404C400002D10023FB7315E00123FB7312E0254B1B78DBB2602B0DD10023FB73234B4FF400421A60224B1B78DBB223F00803DAB21F4B1A70FB7B002B2ED11A4B45221A703F
:404C80001C4B00221A701C4ABB7913701B4A3B6813601B4A7B791370154B1B78DBB223F00203DAB2124B1A70164AFB795B00DBB213707B7903F00103002B06D00A4B1222AE
:404CC0001A70114B04221A7002E0074B01221A700E4B4FF400421A60FB7B18461437BD4680BC7047A6C2FF1FD949004080E200E0A8C2FF1FB6C2FF1FB8C2FF1FACC2FF1F64
:404D0000B5C2FF1FD8490040D749004000E100E080B485B000AF396011461A460346FB710B46BB7113467B710223FB733B68002B59D0304B1B78DBB2102B0CD12E4B1B7834
:404D4000DBB203F00803002B02D10023FB7315E00123FB7312E0274B1B78DBB2602B0DD10023FB73254B4FF400421A60244B1B78DBB223F00803DAB2214B1A70FB7B002BD5
:404D800031D11C4B49221A701E4B00221A701E4ABB7913701D4A3B6813601D4A7B791370174B1B78DBB223F00103DAB2144B1A70184AFB795B00DBB243F00103DBB21370F3
:404DC0007B7903F00103002B06D00B4B12221A70114B04221A7002E0074B01221A700F4B4FF400421A60FB7B18461437BD4680BC704700BFA6C2FF1FD949004080E200E06F
:404E0000A8C2FF1FB7C2FF1FB4C2FF1FB0C2FF1FB5C2FF1FD8490040D749004000E100E080B483B000AF0E4B4FF400421A600D4B1B78FB710C4B1B78DBB203F04003DBB219
:404E4000002B03D0FB7943F00403FB71074B4FF400421A60FB7918460C37BD4680BC704780E100E0A8C2FF1FA6C2FF1F00E100E080B400AF054B1B78DBB203F040039B0981
:404E8000DBB21846BD4680BC704700BF8F45004080B483B000AF0346FB7101BE00BF0C37BD4680BC704700BF80B582B000AF786008E00C4B1B68184601F006FA7B68A3F583
:404EC00000437B607B68B3F5004FF2D8064B1B687A6802FB03F3184601F0F6F900BF0837BD4680BDF8C0FF1FF0C0FF1F80B582B000AF0346FB80FB88054A127802FB03F3FE
:404F0000184601F0E1F900BF0837BD4680BD00BFF4C0FF1F80B584B000AF03463960FB710F4B1B68FB60FB791F2B02D90020FFF7AFFFFB7903F01F0310339B00FA6813445E
:404F40001B68BB60FB7903F01F0310339B00FA6813443A681A60BB6818461037BD4680BD08ED00E080B582B000AF03460A46FB711346BB71BB79072B02D90020FFF788FFFC
:404F8000FB791F2B02D90020FFF782FFFB7903F01F0303F1604303F56443BA795201D2B21A7000BF0837BD4680BD00BF80B483B000AF7860264B1B78DBB21A467B681A6035
:404FC000244B1B78DBB21B027A6812681A437B681A60214B1B78DBB21B047A6812681A437B681A601D4B1B78DBB21B067A6812681A437B681A607B680433194A1278D2B2E4
:405000001A60184B1B78DBB21A027B6804337968043109680A431A60134B1B78DBB21A047B6804337968043109680A431A600F4B1B78DBB21A067B680433796804310968B0
:405040000A431A6000BF0C37BD4680BC704700BF0301004904010049EC460040020100490101004900010049050100490601004980B485B000AF0346FB710B4B1B78DBB2E2
:4050800023F00203FB730849FB795B00DBB203F00203DAB2FB7B1343DBB20B7000BF1437BD4680BC704700BF0051004080B485B000AF0346FB710B4B1B78DBB223F040037C
:4050C000FB730849FB799B01DBB203F04003DAB2FB7B1343DBB20B7000BF1437BD4680BC704700BF2051004080B485B000AF0346FB710B4B1B78DBB223F02003FB73084916
:40510000FB795B01DBB203F02003DAB2FB7B1343DBB20B7000BF1437BD4680BC704700BF2051004080B485B000AF0346FB71094B1B78DBB203F07F03FB730649FB79DB0169
:40514000DAB2FB7B1343DBB20B7000BF1437BD4680BC70472051004080B485B000AF0346FB710B4B1B78DBB223F01003FB730849FB791B01DBB203F01003DAB2FB7B13437B
:40518000DBB20B7000BF1437BD4680BC704700BF2051004080B485B000AF0346FB710A4B1B78DBB223F00103FB730749FB7903F00103DAB2FB7B1343DBB20B7000BF14378B
:4051C000BD4680BC704700BF0051004080B485B000AF0346FB71094B1B78DBB203F07F03FB730649FB79DB01DAB2FB7B1343DBB20B7000BF1437BD4680BC7047C0510040F5
:4052000080B485B000AF0346FB710B4B1B78DBB223F04003FB730849FB799B01DBB203F04003DAB2FB7B1343DBB20B7000BF1437BD4680BC704700BF5051004080B485B0DA
:4052400000AF0346FB710B4B1B78DBB223F00803FB730849FB79DB00DBB203F00803DAB2FB7B1343DBB20B7000BF1437BD4680BC704700BF2051004080B485B000AF03466C
:40528000FB710B4B1B78DBB223F00403FB730849FB799B00DBB203F00403DAB2FB7B1343DBB20B7000BF1437BD4680BC704700BF2051004080B485B000AF0346FB710B4BAA
:4052C0001B78DBB223F00203FB730849FB795B00DBB203F00203DAB2FB7B1343DBB20B7000BF1437BD4680BC704700BF2051004080B485B000AF0346FB710A4B1B78DBB251
:4053000023F00103FB730749FB7903F00103DAB2FB7B1343DBB20B7000BF1437BD4680BC704700BF2051004080B485B000AF0346FB71094B1B78DBB203F07F03FB730649EA
:40534000FB79DB01DAB2FB7B1343DBB20B7000BF1437BD4680BC70471051004080B485B000AF0346FB710B4B1B78DBB223F04003FB730849FB799B01DBB203F04003DAB225
:40538000FB7B1343DBB20B7000BF1437BD4680BC704700BF1051004080B485B000AF0346FB710B4B1B78DBB223F02003FB730849FB795B01DBB203F02003DAB2FB7B1343B6
:4053C000DBB20B7000BF1437BD4680BC704700BF1051004080B485B000AF0346FB710B4B1B78DBB223F01003FB730849FB791B01DBB203F01003DAB2FB7B1343DBB20B709A
:4054000000BF1437BD4680BC704700BF1051004080B485B000AF0346FB710B4B1B78DBB223F00803FB730849FB79DB00DBB203F00803DAB2FB7B1343DBB20B7000BF1437A8
:40544000BD4680BC704700BF1051004080B485B000AF0346FB710B4B1B78DBB223F00403FB730849FB799B00DBB203F00403DAB2FB7B1343DBB20B7000BF1437BD4680BC7B
:40548000704700BF1051004080B485B000AF0346FB71094B1B78DBB203F07F03FB730649FB79DB01DAB2FB7B1343DBB20B7000BF1437BD4680BC70475051004080B485B068
:4054C00000AF0346FB710B4B1B78DBB223F04003FB730849FB799B01DBB203F04003DAB2FB7B1343DBB20B7000BF1437BD4680BC704700BFC051004080B485B000AF034619
:40550000FB710B4B1B78DBB223F02003FB730849FB795B01DBB203F02003DAB2FB7B1343DBB20B7000BF1437BD4680BC704700BF5051004080B485B000AF0346FB710A4BFF
:405540001B78DBB223F00103FB730749FB7903F00103DAB2FB7B1343DBB20B7000BF1437BD4680BC704700BF5051004080B485B000AF0346FB710B4B1B78DBB223F0400332
:40558000FB730849FB799B01DBB203F04003DAB2FB7B1343DBB20B7000BF1437BD4680BC704700BF6051004080B485B000AF0346FB71094B1B78DBB203F07F03FB730649D6
:4055C000FB79DB01DAB2FB7B1343DBB20B7000BF1437BD4680BC70476051004080B485B000AF0346FB710B4B1B78DBB223F01003FB730849FB791B01DBB203F01003DAB233
:40560000FB7B1343DBB20B7000BF1437BD4680BC704700BF6051004080B485B000AF0346FB710B4B1B78DBB223F02003FB730849FB795B01DBB203F02003DAB2FB7B1343E3
:40564000DBB20B7000BF1437BD4680BC704700BF6051004080B582B000AF1B4B00221A701A4B01221A7000F04EFE0346FB71184A174B1B78DBB243F01003DBB21370FB7999
:40568000184600F044FE134B0F221A70124B08221A70124B01221A6007210020FFF762FC0F490020FFF736FC0E4B10221A700E4B00221A700D4B00221A700D4B00221A70D8
:4056C00000BF0837BD4680BD776400408764004097640040266400403664004080E100E041570000B9C2FF1FC3C2FF1FC5C2FF1FC0C2FF1F80B400AF054A054B1B78DBB24B
:4057000043F00203DBB2137000BFBD4680BC70477764004080B500AF074B1B78002B04D1FFF798FF044B01221A70FFF7E3FF034B01221A6000BF80BD83C1FF1F00E100E01D
:4057400080B582B000AFA64B1B78FB71A54B1B78DBB203F04003DBB2002B00F0CD81FB7903F00103002B00F0A4819E4B1B78DBB2453B052B00F2998101A252F823F000BFB8
:4057800099570000DF580000AB5A0000AB5A000099570000155A0000FB7923F02003FB71FB7903F00A03DBB2082B54D18D4B1B78DBB2452B42D18C4B1B78DBB2002B15D068
:4057C0008A4A8B4B1B681B78DBB21370894B06221A70894BFF221A70884B00221A70884B01221A707F4B46221A7062E1854B1B78DBB203F00203002B0ED0834B1B78DBB2F7
:4058000043F00A03DAB2804B1A70764B60221A707E4B01221A604CE17D4A7D4B1B78DBB243F02003DBB21370724B52221A70724BFF221A70714B00221A703AE16D4B022250
:405840001A706D4BFF221A706C4B00221A70654B4A221A702DE1FB7903F00A03DBB20A2B39D1694B1B78DBB263F05F03DAB2664B1A70644B1B78DBB203F00203002B18D0BA
:40588000584B1B78DBB203F00803002B01D0092300E00A23DAB25C4B1B78DBB21343DAB2594B1A704F4B60221A70584B01221A60FFE0574A564B1B78DBB243F02003DBB285
:4058C00013704C4B52221A704B4BFF221A704B4B00221A70EDE00020FFF7DAFAE9E0FB7903F00203002B4AD1454B1B78DAB23E4B1B78DBB29A421AD23C4A3D4B1B684049A1
:405900000978C9B20B441B78DBB21370394B06221A70394BFF221A70384B00221A70384B1B78DBB20133DAB2354B1A70C1E0354B1B78DBB203F00203002B0ED0324B1B7826
:40594000DBB243F00A03DAB22F4B1A70254B60221A702E4B01221A60ABE02D4A2C4B1B78DBB243F02003DBB21370224B52221A70214BFF221A70214B00221A7099E0214BBA
:405980001B78DBB203F00203002B0ED01E4B1B78DBB263F06503DAB21B4B1A70114B60221A701A4B01221A6083E0194A184B1B78DBB243F02003DBB213700E4B52221A7096
:4059C0000D4BFF221A700D4B00221A700E4B1B78DBB263F06F03DAB20B4B1A7069E000BF67640040B9C2FF1FC2C2FF1F05650040BCC2FF1F77640040156500405565004093
:405A0000C0C2FF1FC1C2FF1FC3C2FF1F80E100E087640040404B1B68404A1278D2B213443F4A1278D2B21A703C4B1B78DBB20133DAB23A4B1A70394B1B78DAB2394B1B78C8
:405A4000DBB29A4209D2384B02221A70374BFF221A70374B00221A702BE0364B1B78DBB203F00203002B0ED0334B1B78DBB243F00903DAB2304B1A70304B60221A70304B39
:405A800001221A6015E02F4A2E4B1B78DBB243F02003DBB21370244B12221A70234BFF221A70234B00221A7003E00020FFF7F0F900BFFB7903F02003002B28D01F4B1B7831
:405AC000DBB203F00803002B01D0012300E00223DAB2194B1B78DBB21343DAB2164B1A70184A184B1B78DBB223F02003DBB21370124B10221A700AE0104B1B78DBB203F07D
:405B00001003DBB2002B02D10C4B10221A7000BF0837BD4680BD00BFC8C2FF1FC5C2FF1F05650040C4C2FF1F776400401565004055650040C1C2FF1FC3C2FF1FB9C2FF1F70
:405B400080E100E08764004080B485B000AF396011461A460346FB710B46BB7113467B710223FB733B68002B5DD0324B1B78DBB2102B0CD1304B1B78DBB203F01003002BCB
:405B800002D10023FB7314E00123FB7311E0294B1B78DBB2602B0CD10023FB73274B01221A60274B1B78DBB223F00803DAB2244B1A70FB7B002B36D11E4B45221A70214BCB
:405BC00000221A70204ABB791370204A3B6813601F4A7B7913701A4B1B78DBB223F00203DAB2174B1A701B4AFB795B00DBB213707B7903F00103002B09D0174B32221A70F0
:405C0000164BFF221A70164B00221A7008E0124B82221A70114BFF221A70114B00221A70104B01221A60FB7B18461437BD4680BC704700BFB9C2FF1F6764004080E200E017
:405C4000C3C2FF1FC0C2FF1FC2C2FF1FBCC2FF1FC1C2FF1F0565004077640040156500405565004000E100E080B485B000AF396011461A460346FB710B46BB7113467B71E9
:405C80000223FB733B68002B60D0334B1B78DBB2102B0CD1314B1B78DBB203F01003002B02D10023FB7314E00123FB7311E02A4B1B78DBB2602B0CD10023FB73284B0122D1
:405CC0001A60284B1B78DBB223F00803DAB2254B1A70FB7B002B39D11F4B49221A70224B00221A70214ABB791370214A3B681360204A7B7913701B4B1B78DBB223F00103AF
:405D0000DAB2184B1A701C4AFB795B00DBB243F00103DBB213707B7903F00103002B09D0164B32221A70164BFF221A70154B00221A7008E0114B82221A70114BFF221A7022
:405D4000104B00221A70104B01221A60FB7B18461437BD4680BC7047B9C2FF1F6764004080E200E0C3C2FF1FC5C2FF1FC4C2FF1FC8C2FF1FC1C2FF1F05650040776400402F
:405D8000156500405565004000E100E080B485B000AF03460A46FB711346BB710223FB73294B1B78DBB2102B47D1284B1B78DBB203F01003002B3ED1254B01221A60FB79FE
:405DC0005B00FB71BB79002B07D0FB7943F00103FB711D4B49221A7002E01B4B45221A701C4AFB7913701C4B82221A701B4BFF221A701B4B00221A7000BF184B1B78DBB2A2
:405E0000002BFAD100BF114B1B78DBB203F00103002BF8D00D4B1B78DBB203F00A03DBB20A2B05D1084B10221A700323FB7304E00023FB7301E00123FB73FB7B184614378D
:405E4000BD4680BC704700BFB9C2FF1F6764004080E100E00565004077640040156500405565004080B483B000AF0223FB71144B1B78DBB203F00403002B1BD0114B522209
:405E80001A70114BFF221A70104B00221A7000BF0D4B1B78DBB2002BFAD10D4B10221A7000BF074B1B78DBB203F02103002BF8D00023FB71FB7918460C37BD4680BC704734
:405EC00067640040776400401565004055650040B9C2FF1F80B485B000AF0346FB710223FB731E4B1B78DBB203F00403002B2ED01B4AFB7913701B4B06221A701A4BFF2229
:405F00001A701A4B00221A7000BF174B1B78DBB2002BFAD1164B46221A7000BF0F4B1B78DBB203F00103002BF8D00C4B1B78DBB203F00203002B05D10D4B60221A70002322
:405F4000FB7304E00A4B60221A700323FB73FB7B18461437BD4680BC704700BF6764004005650040776400401565004055650040B9C2FF1F80B485B000AF0346FB710023F9
:405F8000FB73224B1B78DBB203F00403002B37D01F4B1B78DBB2492B11D11E4B02221A701D4BFF221A701D4B00221A7000BF1A4B1B78DBB2002BFAD1154B4A221A7000BF4D
:405FC000124B1B78DBB203F00103002BF8D0144B1B78FB73FB79002B0FD00E4B02221A700D4BFF221A700D4B00221A7000BF0A4B1B78DBB2002BFAD102E0054B60221A70E6
:40600000FB7B18461437BD4680BC704767640040B9C2FF1F7764004015650040556500400565004080B483B000AF0D4B01221A600C4B1B78FB710C4B1B78DBB203F0400320
:40604000DBB2002B03D0FB7943F00403FB71074B01221A60FB7918460C37BD4680BC704780E100E0C3C2FF1FB9C2FF1F00E100E080B483B000AF094B01221A60084B1B7856
:40608000FB71074B00221A70064B01221A60FB7918460C37BD4680BC704700BF80E100E0C3C2FF1F00E100E080B500AF084B1F221A7000F09BF800F063F800F06FF8054BA2
:4060C00000221A70044B00221A7000BF80BD00BF846400408B6400408A64004080B582B000AF00F010F90346FB71134A124B1B78DBB243F02003DBB21370104A0F4B1B786E
:40610000DBB243F01003DBB213700D4A0C4B1B78DBB243F01003DBB21370FB79184600F0F6F800F0B5F800F01FF800F023F800BF0837BD4680BD00BF946400409B64004085
:406140009A64004080B500AF064B1B78002B04D1FFF7AAFF034B01221A70FFF7BFFF00BF80BD00BF84C1FF1F80B400AF00BFBD4680BC704780B400AF00BFBD4680BC70477D
:4061800080B483B000AF044B1B78FB71FB7918460C37BD4680BC70476B64004080B483B000AF044B1B78FB71FB7918460C37BD4680BC70476A64004080B483B000AF034685
:4061C000FB8000BF074B1B78DBB203F00403002BF8D0054AFB88138000BF0C37BD4680BC704700BF6B6400404A64004080B582B000AF01E01A4B1B881A4B1B78DBB203F076
:406200002003002BF6D100F07EF80346FB71164A154B1B78DBB243F00103DBB21370124A114B1B78DBB223F00103DBB213700F4A0E4B1B78DBB243F00103DBB213700B4A9A
:406240000A4B1B78DBB223F00103DBB21370FB79184600F05CF800BF0837BD4680BD00BF5A6400406A6400409A6400409B64004080B483B000AF0346FB71044AFB791370D6
:4062800000BF0C37BD4680BC704700BF7A64004080B400AF094A094B1B78DBB243F00203DBB21370064A064B1B78DBB243F00203DBB2137000BFBD4680BC7047A243004034
:4062C000B243004000000000142816D902B4012114381049097811F0C001890904B40E4A515C04BC00BF00BF00BF8841FDD500BF00BF02BC704700BF00BF70F10400FCD5F0
:4063000070470B050709EFF3108072B6704780F310887047004800400263000080B582B000AF0023BB711F4B1B78DBB203F00303012B02D0022B04D012E01A4B1B79FB7148
:4063400011E0184B1B79DBB203F07F02164913465B0013449B000B440A331B78FB7102E00023FB7100BFFB79022B15D80F4B1A68FB7913441B78022B06D0032B09D1FCF7AE
:40638000D1FF0346BB7107E0FCF77CFA0346BB7102E00023BB7100BFBB7918460837BD4680BD00BF0060004028C2FF1F1CC2FF1F014B1868704700BF5CC1FF1F0E4B70B574
:4063C0001E460E4C0025E41AA410A54204D056F8253098470135F8E701F0E2FF084B094C1E46E41AA4100025A54204D056F8253098470135F8E770BDAC830000AC83000024
:40640000AC830000B483000010B5431E0A44914204D011F8014B03F8014FF8E710BD03460244934202D003F8011BFAE7704700000EB400B54FF402719CB0ADF814106FF009
:406440000041049107914FF6FF711DAB02900690084853F8042BADF81610006802A9019300F07AF8029B00221A701CB05DF804EB03B070475CC1FF1F024610B513461C7873
:406480000132002CFAD1013B11F8012B03F8012F002AF9D110BD034613F8012B002AFBD1181A013870472DE9F0478E6882469E420C46914698463ED88A8912F4906F3AD093
:4064C0002568096902236F1A656905EB450595FBF3F57B1C43449D4238BF1D4653050FD5294600F03FFB064698B13A462169FFF78BFFA38923F4906343F08003A38113E021
:406500002A4600F08DFB064670B92169504600F0DDFA0C23CAF80030A3894FF0FF3043F04003A381BDE8F08726613E44266046466561ED1BA560464528BF464649463246B3
:40654000206800F0A7FAA36800209B1BA36023681E442660BDE8F0872DE9F04F9DB003938B8980461C060D4616460DD50B695BB9402100F0F7FA2860286118B90C23C8F82F
:406580000030CDE040236B610023099320238DF82930DFF89CB130238DF82A3037463C4614F8013B1BB9B7EB060910D003E0252BF9D02746F3E74B46324629464046FFF7B6
:4065C00072FF013000F0A780099B4B4409933B78002B00F0A08000234FF0FF3204930793059206938DF853301A930126052221784E4800F041FA671C049B38B14B4A3C46B2
:40660000801A06FA00F018430490EFE7D90644BF20228DF853201A0744BF2B228DF8532022782A2A03D0079A00210A200BE0039A111D12680391002A10DA524243F0020038
:40664000079204900BE027463B780134303B092B03D800FB02320121F5E701B107923B782E2B1ED17B782A2B0AD1039B02371A1D1B680392002BB8BF4FF0FF33059310E0DC
:40668000002319460593781C0A2407463A780130303A092A03D804FB01210123F5E703B1059103223978224800F0E6F940B14023CBEB000003FA00F0049B0137184304901F
:4066C000397806221B487E1C8DF8281000F0D4F988B1194B33B9039B073323F007030833039314E003AB00932A46144B04A94046AFF3008007E003AB00932A460F4B04A903
:40670000404600F093F8B0F1FF3F824603D0099B5344099342E7AB895B0601D4099801E04FF0FF301DB0BDE8F08F00BF6A830000708300007483000000000000A7640000F2
:406740002DE9F04791461F460A698B6806469342B8BF1346C9F8003091F843200C46DDF8208012B10133C9F800302368990642BFD9F800300233C9F80030256815F00605BE
:4067800010D104F1190A07E00123524639463046C04701301AD00135E368D9F800209B1A9D42F1DB94F843302268003318BF012392060FD5E118302081F843005A1C94F81A
:4067C00045102244023382F8431003E04FF0FF30BDE8F08704F1430239463046C0470130F4D02268D9F80050E36802F00602042A08BF5D1B2269A3680CBF25EAE5750025F8
:406800009342C4BF9B1AED184FF000091A344D4509D00123224639463046C0470130D5D009F10109F3E70020BDE8F0872DE9F04317460A7E85B06E2A984606460C460C9BAF
:4068400001F1430E00F0AE8011D8632A22D009D8002A00F0BB80582A40F0CA8081F84520834955E0642A1ED0692A1CD0C0E0732A00F0B08009D86F2A2ED0702A40F0B8806C
:406880000A6842F020020A603EE0752A24D0782A3AD0ADE01A6801F14205111D1960136884F84230A8E021681A6811F0800F02D0111D196008E011F0400F02F104011960AE
:4068C00002D0B2F9003000E01368002B3CDA2D225B4284F8432037E021681A6811F0800F02D0111D196007E011F0400F02F10401196001D0138800E01368227E5C496F2A0C
:4069000014BF0A2208221BE078225A4984F845202268186812F0800F00F104051D6003D1550601D5038800E00368D00744BF42F0200222601BB9226822F020022260102232
:40694000002084F8430001E049490A226568002DA56008DB206820F0040020602BB9002D7DD175460CE0002B79D07546B3FBF2F002FB1033CB5C05F8013D03460028F5D1FD
:40698000082A0BD12368DA0708D5236962689A42DEBF302305F8013C05F1FF35C5EB0E0323612EE008681A6810F0800F496903D0101D1860136808E010F0400F02F1040053
:4069C0001860136801D0198000E0196000232361754616E01A68111D1960156800216268284600F049F808B1401B6060636804E004F1420584F8422001232361002384F875
:406A00004330CDF800803B4603AA21463046FFF797FE013002D14FF0FF3026E023692A4639463046C0470130F5D023689B0710D5002504F1190907E001234A4639463046C4
:406A4000C0470130E7D00135E368039A9B1A9D42F2DBE068039B9842B8BF184605E00B7804F1420584F842308AE705B0BDE8F0837B8300008C83000010B5C9B202449042DE
:406A8000034605D01C7801308C42F8D1184610BD002010BD884210B501EB020301D8421E0BE09842FBD28118D21AD34204D013F8014D01F8014DF8E710BD994204D011F887
:406AC000014B02F8014FF8E710BD000038B50546002944D051F8043C0C1F002BB8BFE41800F0D4F81E4A1368114613B96360146030E0A3420DD92268A018834201BF186872
:406B00005B681218226063600C6023E0A24203D813465A68002AF9D118681918A1420BD12168014458188242196013D110685268014419605A600DE002D90C232B6009E002
:406B400021686018824201BF106852680918216062605C602846BDE8384000F098B838BD8CC1FF1F70B5CD1C25F0030508350C2D38BF0C25002D064601DBA94202D90C2300
:406B8000336046E000F082F8234B1C681A462146A1B10B685B1B0ED40B2B03D90B60CC18CD501EE08C420BBF63684B681360636018BF0C4615E00C464968E9E7174C236835
:406BC0001BB9304600F052F820602946304600F04DF8431C18D0C41C24F00304A0420DD12560304600F053F804F10B00231D20F00700C31A0ED05A42E25070BD211A304681
:406C000000F034F80130EBD10C233360304600F03EF8002070BD00BF8CC1FF1F88C1FF1FF8B5074615460E4621B91146BDE8F840FFF798BF1AB9FFF749FF2846F8BD00F0E7
:406C400027F885420ED929463846FFF78BFF044650B131462A46FFF7D7FB31463846FFF735FF01E03046F8BD2046F8BD38B5064C0023054608462360FBF722FA431C02D1DC
:406C8000236803B12B6038BDF0C2FF1F7047704751F8040C0028BEBF091851F8043CC018043870470000000025303478200000002025303278000000202000000A0D0000CD
:406CC000522D5069010002006D0000000100000031000000C0E97339595C8BAF624F1932FE3F2DD5050001000F0A6C616E642D626F617264732E636F6D5250502D55494F5C
:406D00002D3136F29F0200010020000000000000000000000000000000000000000000000000000000000000000000ED6E000000522D5069010002007500000001000000FF
:406D4000390000007B276F9972256CBD33463E359FC8A73E040001000F126C616E642D626F617264732E636F6D52415350492D504C55532D4756532D4346477A4302000194
:406D80000020000000000000000000000000000000000000000000000000000000000000000000ED6E000000522D50690100020069000000010000002D0000004B1F090F04
:406DC0007FF8178B674A555836E2DE6E060001000F066C616E642D626F617264732E636F6D525050534F43E474020001002000000000000000000000000000000000000096
:406E0000000000000000000000000000000000ED6E0000000A0D4C616E6420426F617264732C204C4C43202D20525069204361726420546573742053746174696F6E0A0DD4
:406E40000000000031202D2053656C656374205250502D55494F2D313620436172640A0D0000000032202D2053656C65637420525050534F4320436172640A0D00000000FC
:406E800033202D2053656C6563742052415350492D504C55532D4756532D43464720436172640A0D0000000034202D2053656C6563742052415350492D4756532043617204
:406EC000640A0D0035202D2053656C6563742052415350492D504C55532D47565320436172640A0D0000000036202D2053656C656374205250492D4932432D4855422043CF
:406F00006172640A0D00000037202D2053656C656374205250492D5350493820436172640A0D000038202D2053656C656374205350492D504F5458322043617264202876DF
:406F40006961205250492D53504938290A0D000052202D205265616420454550524F4D0A0D00000057202D20577269746520454550524F4D0A0D000042202D20426F756E60
:406F80006365204C4544206163726F73732043617264204750494F730A0D000054202D205465737420436172640A0D0044202D20446562756720436172640A0D000000009B
:406FC0003F202D205072696E742074686973206D656E750A0D000000526561642066726F6D2074686520454550524F4D0A0D00004D7573742066697273742073656C656347
:4070000074206361726420747970650A0D000000577269746520746F2074686520454550524F4D2E2E2E0000436F6D706C6574656420454550524F4D2077726974650A0D61
:4070400000000000454550524F4D207772697465206661696C65642028646F657320746869732063617264206861766520616E20454550524F4D3F0A0D0000005465737462
:40708000696E67205250492D4932432D48554220696E7075742C20706C6561736520776169740A0D00000000436F6D706C657465642054657374696E67205250492D493240
:4070C000432D48554220696E7075740A0D00000054657374696E67205250492D5350493820696E7075742C20706C6561736520776169740A0D000000436F6D706C65746565
:40710000642054657374696E67205250492D5350493820696E7075740A0D000054657374696E67205350492D504F54583220636172642028766961205250492D53504938F8
:40714000292C20706C6561736520776169740A0D00000000436F6D706C657465642054657374696E67205350492D504F54583220636172642028766961205250492D5350C6
:407180004938290A0D00000043617264206E6F742079657420696D706C656D656E7465640A0D0000426C696E6B696E6720746865204C454473206F6E20746865205261734B
:4071C00050492D504C55532D4756532D43464720636172642C20706C6561736520776169740A0D00436F6D706C6574656420626C696E6B696E6720746865204C454473200B
:407200006F6E207468652052617350492D504C55532D4756532D43464720636172640A0D00000000426C696E6B696E6720746865204C454473206F6E20746865205241537A
