:400000000040002011000000D1050000D105000080B500AF024A034B1B68136000F00AFBBC760040FA46004010B5054C237833B9044B13B10448AFF300800123237010BDA6
:40004000B8C1FF1F00000000685A0000084B10B51BB108490848AFF300800848036803B910BD074B002BFBD0BDE81040184700BF00000000BCC1FF1F685A0000C8C0FF1FDE
:4000800000000000F0B599B002AF62B60121002000F064FB00F032FD0346002B06D000F021FD0346002B01D000F020FF00F01AFD0346002BEED000F0A3FF0346002B27D0F7
:4000C00007F11403184600F0BFFF0346A7F85430B7F85430002B1BD000BF00F0A3FF0346002BFAD0B7F8542007F114031146184600F050FFB7F85430402B09D100BF00F054
:4001000091FF0346002BFAD00021002000F042FF00F0C0FF034687F8573097F85730002BB8D097F8573003F00103002B1ED000F0DBFF054601F04AF803461E4601F030F884
:4001400003461A461A4B53F822301B781C4601F011F803461A46174B53F8223038460193009433462A46144903F048FC97F8573003F00203002B8DD001F03EF8034687F895
:40018000573097F8573003F00103002B01D00B4A00E00B4A97F8573003F00203002B01D0064B00E0064B3846064903F027FC71E7CCC0FF1FE0C0FF1FA05A0000B05A0000F2
:4001C000B45A0000B85A000080B582B000AF786039603A680021786802F097FF00BF0837BD4680BD80B584B000AFF860B9607A607A68B968F86802F07DFF00BF1037BD46B2
:4002000080BD00BF80B584B000AFF860B9607A607A68B968F86802F06DFF00BF1037BD4680BD00BF80B483B000AF0346FB71FEE780B487B000AF7860396000233B6100237C
:400240007B6127E07B699B007A6813441B68BB60BB68FB73BB6823F0FF03BB6014E03B695B003A6813441B781A46BB68134419463B695B003A6813445B780B703B6901338B
:400280003B61FB7B013BFB73FB7B002BE7D17B6901337B617B69212BD4D900BF1C37BD4680BC704780B582B000AF334B00221A80324B58221A70042231493248FFF7A2FFCE
:4002C000314B06221A70314B52221A70304B314A1278D2B21A70304B40F618021A802F4B41F251221A800023FB7019237B6014E0FB785B00DAB22A4B1B78DBB203F001032A
:40030000DBB21343DBB203F00303FB704FF4F07002F056FE7B68013B7B607B68002B02D0FB78032BE4D17B68002B02D10320FFF779FF1C4B4FF480721A801A4B07221A7010
:40034000194B00221A70194B48221A70154B00221A70174B00221A70164B02221A70164A154B1B78DBB243F00103DBB2137000BF0837BD4680BD00BF8040004082400040C6
:40038000C85A0000004100400043004000420040A14600400F0100492242004020420040254200400440004006400040084000400940004001400040A243004080B483B000
:4003C00000AF0B4B1B78FB710A4AFB7903F00703DBB21370084AFB791B09DBB21370074B44221A7000BF0C37BD4680BC704700BFCF0100496E5800406F58004076580040FD
:4004000080B586B000AF72B6544B60221A70FFF749FF524B00221A700023FB7513E0FA7D13465B0013445B004D4A13443B613B691A683B699B889BB219461046FFF7C4FEB4
:40044000FB7D0133FB75FB7D052BE8D90023FB751CE0FA7D13469B0013445B00414A1344FB60FB681B68BB60FB685B687B60FB681A7A5B7A1B0213437B807B881A4679688E
:40048000B868FFF7BFFEFB7D0133FB75FB7D022BDFD935493548FFF7CBFE354A344B1B78DBB243F00203DBB21370324A314B1B78DBB243F00203DBB213702F4A2E4B1B78EB
:4004C000DBB243F04003DBB213702C4A2B4B1B78DBB243F01003DBB21370082228492948FFF790FE0A2228492848FFF78BFE0A2227492848FFF786FE082227492748FFF7E6
:4005000081FE082226492748FFF77CFE082226492648FFF777FE082225492648FFF772FE082225492548FFF76DFE082224492548FFF768FE244A244B1B78DBB243F00803E5
:40054000DBB21370FFF73AFF0E220B491F48FFF749FE00BF1837BD4680BD00BF00480040CC5A0000F05A0000985B0000105B00000350014013500140A0430040C243004011
:40058000386100000251004040610000C05100404C610000F05100405861000012510040606100002251004068610000325100407061000042510040786100005251004033
:4005C000806100006251004022430040B043004080B500AF02F062FD03461B680C2B00D1FEE7FEE780B584B000AF78600F4B1A687B6813441A460E4BD31A802B09DC0B4BEA
:400600001B68FB60094B1A687B681344074A136007E002F043FD02460C2313604FF0FF33FB60FB6818461037BD4680BDECC0FF1FD0C2FF1F80B586B000AF224B7B61224BA7
:400640003B61204B7B6135E03B691B68FB603B695B68BB603B699B683B6000237B600CE0FB681A68BB681A60BB680433BB60FB680433FB607B6804337B607A683B689A4210
:40068000EED13B69DB683B6000237B6008E0BB6800221A60BB680433BB607B6804337B607A683B689A42F2D13B6910333B617B69013B7B617B69002BC6D102F0F5FCFFF7C8
:4006C000E1FCFEE7010000001065000080B582B000AF184B184A1A60184A184B1B6843F40073136000237B600FE07B68032B04D8134A7B6852F8233000E0124B12497A68D7
:4007000041F822307B6801337B607B682F2BECD90E4B1B78DAB20E4B1A700E4B0A4A1A60FFF76EFE0C4B00221A6000BF0837BD4680BD00BF0CED00E00004FA0514ED00E0A9
:4007400000000000D105000000C0FF1FBC760040C4C0FF1F08ED00E0C0C0FF1F80B582B000AF03460A46FB711346BB71094B1B78002B04D100F010F8064B01221A70BA798E
:40078000FB791146184600F0D9F800BF0837BD4680BD00BFD4C1FF1F80B582B000AF02F02EFC0346FB71544A534B1B78DBB243F00103DBB21370514A504B1B78DBB243F08C
:4007C0000103DBB213704E4B01221A704D4B02221A704D4A4C4B1B78DBB203F07F03DBB21370002002F028FB484A484B1B78DBB223F00603DBB21370454A454B1B78DBB2A1
:4008000023F02003DBB21370404A404B1B78DBB243F00103DBB21370012002F00DFB282002F00AFB3B4A3B4B1B78DBB203F07F03DBB21370374A374B1B78DBB223F0400373
:40084000DBB21370314A314B1B78DBB243F00203DBB21370022002F0EFFA2C4A2B4B1B78DBB243F00403DBB213702B4B00221A702A4B00221A70FB79184602F0C4FB0721C8
:40088000172002F015FB2649172002F0E9FA0721182002F00DFB2349182002F0E1FA0721152002F005FB2049152002F0D9FA0721002002F0FDFA1D49002002F0D1FA07216B
:4008C000012002F0F5FA1A49012002F0C9FA0721022002F0EDFA1749022002F0C1FA07210C2002F0E5FA14490C2002F0B9FA00BF0837BD4680BD00BFA5430040B5430040BB
:400900009D60004009600040106000409443004012600040F85100408460004085600040C5190000AD120000B9190000D118000019190000651900008D1D000080B584B06B
:4009400000AF03460A46FB711346BB710023FB7306E0FB7B334A0121D154FB7B0133FB73FB7B012BF5D9304AFB7913702F4B00221A702F4B00221A702E4B00221A702E4BAA
:4009800000221A702D4B00221A702D4B00221A702C4B00221A702C4B4FF400021A602A4B4FF080721A60284B4FF400121A60264B01221A60244B02221A60234B04221A605F
:4009C000BB79002B02D0012B09D011E01F4A1F4B1B78DBB223F00103DBB2137011E01B4A1A4B1B78DBB243F00103DBB2137008E0164A164B1B78DBB243F00103DBB2137084
:400A000000BF134B03221A70124B80221A70012002F0D6FA104B04221A7000BF1037BD4680BD00BF98C2FF1FFDC1FF1F00C2FF1F1CC2FF1F1FC2FF1F14C2FF1F1EC2FF1F4D
:400A400021C2FF1FFCC1FF1F00E100E00960004028600040086000401260004080B483B000AF0023FB7106E0FB79144A0121D154FB790133FB71FB79012BF5D9104B00226B
:400A80001A70104B00221A700F4B00221A700F4B00221A700E4B00221A700E4B00221A700D4B00221A700D4B03221A700C4B80221A7000BF0C37BD4680BC704798C2FF1F91
:400AC00000C2FF1F1CC2FF1F1FC2FF1F14C2FF1F1EC2FF1F21C2FF1FFCC1FF1F286000400860004080B400AF034B1B78DBB21846BD4680BC704700BF1FC2FF1F80B483B013
:400B000000AF0023FB71084B1B78DBB2002B05D0054B1B78FB71044B00221A70FB7918460C37BD4680BC70471CC2FF1F80B483B000AF0346FB71FA79064913465B0013441B
:400B40009B000B4401331B78DBB218460C37BD4680BC704724C2FF1F80B485B000AF0346FB710023FB81FB79002B1CD0FB79082B19D8104AFB791B0113441B78DBB29BB25F
:400B800003F00F03FB81FB891B029AB20949FB791B010B4401331B78DBB29BB21343FB81FB89023BFB81FB8918461437BD4680BC704700BFFC5F0040B0B485B000AF0346D8
:400BC0003960FB711346BB80FB79002B6DD0FB79082B6AD8B988FA79364813465B0013449B00034406331B889BB2C3F5007399420CD9FA792F4913465B0013449B000B4484
:400C000006331B889BB2C3F50073BB802A4CF979BB881B0A9BB2D8B2FA79264D13465B0013449B002B4403331B78DBB20343DAB20B0123441A70204AFB79B988C9B21B0128
:400C4000134401330A461A703B68002B13D00023FB810CE01948FB79FA8939680A4412781B01034408331A70FB890133FB81FA89BB889A42EED3FA790E4913465B0013446E
:400C80009B000B44013300221A700B48F979FA79084C13465B0013449B00234405331B78DAB20B01034402331A7000BF1437BD46B0BC704724C2FF1FFC5F00407060004089
:400CC00080B584B000AF03463960FB711346BB803B68002B30D0FB79002B2DD0FB79082B2AD8FB791846FFF737FF03461A46BB88934205D9FB791846FFF72EFF034600E02C
:400D0000BB88BB800023FB810DE0FB893A6813440D49FA7912010A4408321278D2B21A70FB890133FB81FA89BB889A42EDD3FB79184600F00BF801E00023BB80BB881846F5
:400D40001037BD4680BD00BF7060004090B482B000AF0346FB71FB79002B1CD0FB79082B19D8FA790E4913465B0013449B000B44013300221A700B48F979FA79084C13469C
:400D80005B0013449B00234405331B78DAB20B01034402331A7000BF0837BD4690BC704724C2FF1FFC5F004080B582B000AF0023FB71314B1B79DBB2184600F067F803463B
:400DC000BB712D4B1B78DBB25BB2002B15DA2A4B5B78DBB2212B00D048E0284B07221A80BA791346DB009B1A254A1344234A536000F0D6FB0346FB7138E01F4B5B78DBB25F
:400E0000202B02D0222B1AD030E01C4B07221A80BA791346DB009B1A194A1344174A5360BB79BA7917498A5CD2B242F00102D1B2144AD15400F032FC0346FB7116E0BB79D1
:400E40000D4A9278D2B291B20F4A22F81310BB79BA790C498A5CD2B242F00202D1B2094AD15400F0B9FC0346FB7100BFFB7918460837BD4680BD00BF0060004008C2FF1FAC
:400E8000F0C0FF1FE4C1FF1FF8C1FF1F80B485B000AF0346FB710023FB73FF23BB7317E0FB7B104AD35C7B737A7B0F4913465B0013449B000B440A331B78DBB2FA799A424A
:400EC00003D1FB7BBB730223FB73FB7B0133FB73FB7B012BE4D9BB7B18461437BD4680BC704700BFECC1FF1F24C2FF1F80B582B000AF0023BB71224B00221A70214B002201
:400F00001A70204B00225A700023FB7110E0FB791D4AD35C7B717B79002B06D07B79082B03D87B791846FFF711FFFB790133FB71FB79012BEBD9154B1B78DBB2002B18D001
:400F4000114B1B78DBB2002B13D0114B1B78DBB2002B0ED00D4B1B78DBB2082B09D80A4B1B78DBB2082B04D8094B1B78DBB2082B01D90123BB71BB7918460837BD4680BD70
:400F8000D5C1FF1FE4C1FF1FF0C1FF1FE8C1FF1FECC1FF1F80B584B000AF78600B467B80144B1B781A46144B9B5CFB73FA7B134913465B0013449B000B4408331B889BB216
:400FC0007A889A420CD9FA7B0C4913465B0013449B000B4408331B887B80002001F020FF7A88FB7B79681846FFF7E6FD00BF1037BD4680BDD5C1FF1FE8C1FF1F24C2FF1F11
:4010000080B500AF054B1B781A46054B9B5CDBB21846FFF78BFD0346184680BDD5C1FF1FF0C1FF1F80B500AF054B1B781A46054B9B5CDBB21846FFF779FD0346184680BDC9
:40104000D5C1FF1FE8C1FF1F80B584B000AF78600D4B1B781A460D4B9B5CFB73FA7B0C4913465B0013449B000B4408331B889AB2FB7B79681846FFF723FE0346BB81BB897F
:4010800018461037BD4680BDD5C1FF1FF0C1FF1F24C2FF1F80B483B000AF0023FB710F4B1B78DBB2002B13D10D4B1B781A460D4B9B5CDBB2002B0BD0094B1B781A46094BCE
:4010C0009B5CFB71064B1B781A46064B00219954FB7918460C37BD4680BC704700C2FF1FD5C1FF1FE4C1FF1F80B483B000AF1F4B1B7819461E4A0B46DB005B1A1344033380
:401100001B78DBB27B607B681A02184B1B78184617490346DB001B1A0B4402331B78DBB213437B607B681A02104B1B78184610490346DB001B1A0B4401331B78DBB21343DD
:401140007B607B681A02094B1B78184608490346DB001B1A0B441B78DBB213437B607B6818460C37BD4680BC704700BFD5C1FF1FF0C0FF1F80B400AF074B1B781946074AD3
:401180000B46DB005B1A134404331B78DBB21846BD4680BC704700BFD5C1FF1FF0C0FF1F80B400AF074B1B781946074A0B46DB005B1A134405331B78DBB21846BD4680BCE6
:4011C000704700BFD5C1FF1FF0C0FF1F80B400AF074B1B781946074A0B46DB005B1A134406331B78DBB21846BD4680BC704700BFD5C1FF1FF0C0FF1F80B400AF054B1B78D3
:401200001A46054B33F812309BB21846BD4680BC704700BFD5C1FF1FF8C1FF1F80B485B000AF78600B46FB701346BB707B68DB7803F00303FB737B689B785BB2002B1ADAB7
:40124000FB7B032B0AD0BB7803F001031449FA78CA54BB7843F00103BB701BE0BB789B08DBB203F001030F49FA78CA54BB7843F00403BB700EE0FB7B032B0BD0BB785B086C
:40128000DBB203F001030849FA78CA54BB7843F00203BB70BB7818461437BD4680BC7047E8C1FF1FECC1FF1FF0C1FF1F80B582B000AF374B1B78BB71BB7903F01003002B44
:4012C00062D00123FB7197F90630002B12DABB7903F00F03012B02D00023FB711CE000F061F82C4B1B78DBB25BB2002B14DA0023FB7111E0BB7903F04003002B02D000F0B0
:4013000095F809E0BB7903F02003002B02D000F0B3F801E00023FB71FB79002B34D01C4B1B78BB7197F90630002B2DDB1A4B1B78DAB21A4B1B78DBB21343BB71184ABB7902
:401340001370174B1B78DBB2BA799A421CD1114B1B78FB710E4B1B78DBB223F07F03BB71BB79002B0AD10A4B0A4A1278D2B21A70074B1B78DBB203F00F03FB71054B1B7896
:40138000DBB2FA799A42E2D100BF0837BD4680BD286000401DC2FF1F92C2FF1F20C2FF1F2960004080B582B000AF1D4B1B78FB711B4AFB7913701A4B1B78FB7197F907305C
:4013C000002B03DA174AFB79137025E0022000F045FA154B1B78DBB203F06003202B08D0402B0BD0002B0ED100F0D6FC0346FB710CE001F00FFE0346FB7107E001F0D6FC2E
:401400000346FB7102E00023FB7100BFFB79002B02D1044B03221A7000BF0837BD4680BD286000401DC2FF1F0060004080B500AF104B1B78DBB2062B19D801A252F823F033
:401440006F1400006F1400005D1400006F140000631400006F1400006914000000F0F8F806E000F0A7F903E000F0D2F900E000BF00BF80BD00C2FF1F80B500AF124B1B78B8
:40148000DBB2062B1DD801A252F823F0C3140000C3140000A9140000C3140000AF140000C3140000B514000000F0D8F80AE000F027F907E0032000F0D1F9044B03221A7058
:4014C00000E000BF00BF80BD00C2FF1F1DC2FF1F80B483B000AF0023FB71294B1B78DBB29AB2284B1B889BB213449AB2254B1A8015E02549FB79254A52681278D2B2CA54B3
:40150000224B5B680133214A5360FB790133FB711E4B1B889BB2013B9AB21C4B1A801B4B1B889BB2002B02D0FB79072BE1D9144B1B78DBB2082B02D0FB79002B0FD0144B1F
:401540001B78DBB283F07F03DB43DAB2104B1A70104B0F221A70104B02221A7005E00D4B02221A700C4B02221A700C4AFB791370034AFB79137000BF0C37BD4680BC70472F
:40158000FCC1FF1FFEC1FF1F0060004008C2FF1F92C2FF1F1DC2FF1F00C2FF1F20C2FF1F80B582B000AF164B1B889BB2002B02D100F02EF81EE0134B02221A70124B002298
:4015C0001A7000F06BF9114BDB79DBB29BB21B029AB20E4B9B79DBB29BB21343FB80084B1B889BB2FA889A4202D2054AFB881380FFF76EFF012318460837BD4680BD00BF05
:4016000008C2FF1F00C2FF1F92C2FF1F0060004080B400AF094B02221A70094B80221A70084B0F221A70084B00221A70074B00221A7001231846BD4680BC704700C2FF1F08
:4016400092C2FF1F1DC2FF1FFCC1FF1F20C2FF1F80B500AFFFF73CFF00BF80BD80B500AF0A4B1B78DBB29AB2094B1B889BB213449AB2074B1A80074B00221A70012000F088
:40168000EDF8054B03221A7000BF80BDFCC1FF1FFEC1FF1F00C2FF1F1DC2FF1F80B582B000AF124B04221A70114B80221A7000F0F5F8104BDB79DBB29BB21B029AB20D4BE3
:4016C0009B79DBB29BB21343FB800B4B1B889BB2FA889A4202D2084AFB881380074B0B221A70012318460837BD4680BD00C2FF1F92C2FF1F0060004008C2FF1F1DC2FF1F6A
:4017000080B483B000AF0023BB71234B1B78DBB203F00F03DBB2023BFB71FB799AB21F4B1B889BB213449AB21C4B1A8018E01C4B5B681C49BA798A5CD2B21A70184B5B68E9
:401740000133174A5360BB790133BB71FB79013BFB71134B1B889BB2013B9AB2104B1A800F4B1B889BB2002B02D0FB79002BDED10D4AFB7913700D4B1B78DBB283F07F0356
:40178000DB43DAB2094B1A70094B0B221A7000BF0C37BD4680BC704729600040FEC1FF1F08C2FF1F0060004020C2FF1F92C2FF1F1DC2FF1F80B500AF054B00221A70012000
:4017C00000F04CF8034B03221A7000BF80BD00BF00C2FF1F1DC2FF1F80B400AF084B06221A70084B06221A70074B80221A70074B00221A7001231846BD4680BC704700BF80
:4018000000C2FF1F1DC2FF1F92C2FF1F20C2FF1F80B500AF0D4B1B78DBB2002B0AD00C4A0A4B1B78DBB263F07F03DBB21370074B00221A70074B00221A70012000F00EF835
:40184000054B03221A7000BF80BD00BF1EC2FF1F0860004000C2FF1F1DC2FF1F80B483B000AF0346FB710B4B9B68002B0CD0094B9B68FA791A70074B9B68074A128892B228
:401880005A80044B00229A6000BF0C37BD4680BC704700BF08C2FF1FFEC1FF1F80B400AF094B00221A80094B9B68002B07D0074B9B6800221A70054B9B6800225A8000BF0C
:4018C000BD4680BC704700BFFEC1FF1F08C2FF1F80B400AF0D4B01221A700D4B9B7C0D4B1B7BDBB203F00303012B08D0094BDB7BDBB283F07F03DB43DAB2064BDA73054BDB
:4019000001225A7300BFBD4680BC70470B600040FC5F004024C2FF1F80B400AF0E4B02221A700E4B93F822300D4B1B7EDBB203F00303012B08D00A4BDB7EDBB283F07F03ED
:40194000DB43DAB2064BDA76054B01225A7600BFBD4680BC704700BF0B600040FC5F004024C2FF1F80B400AF104B04221A70104B93F832300F4B93F82430DBB203F0030326
:40198000012B0AD00B4B93F82730DBB283F07F03DB43DAB2074B83F82720064B012283F8252000BFBD4680BC704700BF0B600040FC5F004024C2FF1F80B400AF00BFBD4612
:4019C00080BC704780B500AFFFF748F800BF80BD80B582B000AF0023FB71714B1B79BB716F4B1B78DBB25BB2002B6CDA6C4B5B78DBB2013B052B00F2BE8001A252F823F0B2
:401A0000631A00007D1A0000A71A0000771B0000771B0000191A0000614BDB78DBB2212B0CD100F0C7F85F4B1B889BB2002B00F0A480FFF7B5FD0346FB719EE0584BDB786C
:401A4000DBB2222B40F0998000F0F2F8554B1B889BB2002B00F09180FFF7A2FD0346FB718BE000F02DF94F4B1B889BB2002B00F08680FFF795FD0346FB7180E0BB79012B3A
:401A80007FD8474B9B78DBB2002B7AD1454B01221A80BB79444A1344424A5360FFF780FD0346FB716DE0BB79012B6CD83D4B01221A80BB793D4A13443A4A5360FFF770FD78
:401AC0000346FB715FE0364B5B78DBB20A2B10D00B2B3DD0092B00D05CE000F0F1F8314B1B889BB2002B50D0FFF7D8FD0346FB714BE0BB79012B4AD8294B9B78DBB2002B7D
:401B000045D1BB79264AD278D1B2274AD154BB79254AD35CDAB2BB792549CB5CDBB29A4204D2BB79224A0021D1540CE0BB79204AD35CDBB2012B06D9BB79BA791A498A5C3B
:401B4000D1B21B4AD154FFF747FE0346FB711EE0BB79012B1DD8124B9B78DBB2012B18D8BB790F4A9278D1B2104AD154FFF734FE0346FB710DE000BF0CE000BF0AE000BF86
:401B800008E000BF06E000BF04E000BF02E000BF00E000BFFB7918460837BD4680BD00BF0060004008C2FF1FA0C2FF1F98C2FF1F9CC2FF1F80B584B000AF194B1B78DBB24E
:401BC000013BDBB2184600F041FFF860154B1B79FB72FB7A0233DB00FA681344FB60FB685B68FB60FB7A104AD35CDBB2DB00FA681344FB60FB685B68FB60FB682033FB60AF
:401C0000FB685B687B607B681B78DBB29AB2074B1A80064A7B68536000BF1037BD4680BD1FC2FF1F0060004090C2FF1F08C2FF1F80B584B000AF1E4B1B78DBB2013BDBB2DB
:401C4000184600F003FFF8601A4B1B79FB72FB7A0233DB00FA681344FB60FB685B68FB60FB7A154AD35CDBB2DB00FA681344FB60FB685B68FB60FB681833FB60FB685B680D
:401C80007B607B6801331B78DBB29BB21B029AB27B681B78DBB29BB213439AB2074B1A807B680233054A536000BF1037BD4680BD1FC2FF1F0060004090C2FF1F08C2FF1F27
:401CC00080B584B000AF2D4B00221A802C4B1B78DBB2013BDBB2184600F0B8FEF860294BDB78FB72274B1B79BB72BB7A0233DB00FA681344FB60FB685B68FB60BB7A012B3A
:401D000038D8BB7A204AD35CDBB2DB00FA681344FB60FB685B68FB60FB7A002B2AD0FB7A032B27D8FB7A03F10053013BDB00FA681344FB60134B9B78FB72FB681B78FA7A5D
:401D40009A4217D8FB685B687B60FA7A13465B0013449B001A467B6813447B607B685B68064A53607B681A88044B1A807B689B68024A936000BF1037BD4680BD08C2FF1F9E
:401D80001FC2FF1F0060004090C2FF1F80B500AF01F036F800BF80BD80B586B000AF0023FB759D4B1B78FB7100233B619B4B00221A8097F90730002B80F20481964B5B7883
:401DC000DBB20A2B00F21B8201A252F823F000BF1B1F0000FF210000FF210000FF210000FF210000FF210000FD1D0000FF2100008F1F0000FF210000A51F0000864BDB7809
:401E0000DBB2012B0ED100F049FEB860BB685B68824A5360814B12221A80FFF7C1FB0346FB75EEE17C4BDB78DBB2022B25D17A4B9B78DBB2184600F009FEB860BB68002B98
:401E400000F0DF81BB685B68744A5360734B5B6803331B78DBB29BB21B029AB26F4B5B6802331B78DBB29BB213439AB26B4B1A80FFF796FB0346FB75C3E1674BDB78DBB2A7
:401E8000032B45D10023FB73654B3B6109E03B691B78BB71BB793A6913443B61FB7B0133FB735D4B9B78DBB2FA7B9A4204D23B691B78DBB2002BEAD1574B9B78DBB2EE2B5F
:401EC00001D1584B3B61544B9B78DBB2002B0BD0514B9B78DAB2544B1B7C9A4204D1534800F0ACF9514B3B613B691B78DBB2002B00F087813B691B78DBB29AB2474B1A80DF
:401F0000464A3B695360FFF74BFB0346FB7578E101F080F80346FB7573E1FB7903F00303002B20D0022B00D030E03C4B02221A80394B1B79DBB203F07F023D4913465B00C9
:401F400013449B000B4402331B78DAB2394B1A70384B00225A70314B364A5A60FFF720FB0346FB7512E02D4B02221A80324B1B78DAB2304B1A702F4B00225A70274B2D4AB7
:401F80005A60FFF70DFB0346FB7500BF40E1234B01221A80214B294A5A60FFF701FB0346FB7535E11D4B01221A801B4B1B79DBB21A46234B1344194A5360FFF7F1FA03463A
:401FC000FB7525E1144B5B78DBB2013B0A2B00F21A8101A252F823F0E320000007220000712100000722000005200000072200000722000007220000492000000722000095
:402000009F200000044B9B78DAB20E4B1A70FFF7E3FB0346FB75FBE00060004008C2FF1F0C6200004C630000B4610000A4C2FF1F24C2FF1FD8C1FF1F21C2FF1F1FC2FF1FAF
:4020400090C2FF1F1EC2FF1F744B9B787B717B79002B06D07B79013BDBB2184600F0F6FCB8607B79002B02D0BB68002B03D17B79002B40F0CA806A4B1B78DBB27A799A42DA
:4020800008D0674A7B791370664B01221A70012000F0DCF9FFF7A0FB0346FB75B5E000F04DFE0346002B00F0B2805C4B1B793B715A4B1B79DAB25C4B1A703B795B4AD35CC7
:4020C000DAB23B795A49CB5CDBB29A4204D0554B01221A7000F08CFBFFF77EFB0346FB7595E0FB7903F00303012B20D0012B0CD3022B00D03BE0494B9B78DBB2002B31D12B
:4021000000F078FD0346FB752CE0444B9B78DBB2012B29D1474B1B78DBB223F00203DAB2444B1A70FFF758FB0346FB751CE03B4B1B79DBB2012B19D8384B9B78DBB2DB43AE
:40214000DBB2364A1279D2B2114610463A4A125CD2B21340DAB2384B5A54FFF73DFB0346FB7503E000BF53E000BF51E000BF4FE0FB7903F00303012B20D0012B0CD3022BB5
:4021800000D03BE0254B9B78DBB2002B31D100F0BDFC0346FB752CE0204B9B78DBB2012B29D1244B1B78DBB243F00203DAB2214B1A70FFF711FB0346FB751CE0174B1B7962
:4021C000DBB2012B19D8154B9B78DBB2DB43DBB2124A1279D2B211461046174A125CD2B21340DAB2144B5A54FFF7F6FA0346FB7503E000BF0CE000BF0AE000BF08E000BFF7
:4022000006E000BF04E000BF02E000BF00E000BFFB7D18461837BD4680BD00BF006000401FC2FF1F1CC2FF1F14C2FF1F04C2FF1F90C2FF1F21C2FF1F94C2FF1FB0B58AB0FB
:4022400000AF7860324B07F114041D460FCD0FC42B682370002387F826307B68002B52D07B6822221A707B68013303221A7007F10C03184600F040FE022387F827303EE0C7
:4022800097F827307A68134497F8262007F128010A4412F81C2C1209D2B207F128010A4412F8142C1A7097F8273001337A68134400221A7097F8273002337A68134497F8A5
:4022C000262007F128010A4412F81C2C02F00F0207F128010A4412F8142C1A7097F8273003337A68134400221A7097F82630013387F8263097F82730043387F8273097F820
:402300002730212BBCD900BF2837BD46B0BD00BFA061000090B482B000AF0123FB7180E0464AFB791B0113440C221A70FA79444913465B0013449B000B4405331B78DBB286
:40234000002B1CD0FA793E4913465B0013449B000B4404331B78DBB25BB2002B07DA394AFB791B01134402330C221A700EE0354AFB791B011344023308221A7006E0314AF2
:40238000FB791B011344023380221A702B48F979FA792B4C13465B0013449B00234406331B889BB2DAB20B01034406331A702348F979FA79224C13465B0013449B00234463
:4023C00006331B889BB21B0A9BB2DAB20B01034407331A701948F979FA79194C13465B0013449B00234406331B889BB2DAB20B01034404331A701148F979FA79104C13462B
:402400005B0013449B00234406331B889BB21B0A9BB2DAB20B01034405331A70FB790133FB71FB79082B7FF67BAF074BFF221A7000BF0837BD4690BC704700BF7060004082
:4024400024C2FF1FFC5F00400A60004080B58AB000AF0346FB7100237B84002387F8273050E097F82720B34913465B0013449B000B4400221A7097F82720AE4913465B0001
:4024800013449B000B44023300221A7097F82720A84913465B0013449B000B44033300221A7097F82720A34913465B0013449B000B44083300221A8097F827209D49134699
:4024C0005B0013449B000B440A3300221A7097F82720984913465B0013449B000B44013300221A7097F82720924913465B0013449B000B44053300221A7097F82730013327
:4025000087F8273097F82730082BAAD9FB79002B16D0002387F825300EE097F82530864A0021D15497F82530844A0021D15497F82530013387F8253097F82530012BECD90C
:402540007F4B1B78DBB2002B00F04A810023FB767B4B1B78DBB2013BDBB2184600F076FA78617B695B683B613B6907331B7803F04003002B08D0734B1B78DBB243F00103AF
:40258000DAB2704B1A7007E06E4B1B78DBB223F00103DAB26B4B1A707B6908337B617B691B7887F82730012387F82530B6E07B695B68FB61002387F82630A3E097F825207F
:4025C000FB699B7803F07F039A4240F0938097F82520584913465B0013449B000B4408331B889AB2FB699B889A420CD297F82520FB6998884F4913465B0013449B000B4416
:40260000083302461A80FB691B781A464A4B9B5CDAB2FB695B789A426CD197F82520FB699878444913465B0013449B000B44043302461A7097F82520FB69D8783D49134684
:402640005B0013449B000B4402461A70FB69DB7803F00303FB73FB699B785BB2002B1CDA97F82520FB7B012B01D1072000E00D20304913465B0013449B000B4405330246BF
:402680001A7097F825202B4913465B0013449B000B44013301221A701BE097F82520FB7B012B01D1052000E00920224913465B0013449B000B44053302461A7097F82520C3
:4026C0001C4913465B0013449B000B44013300221A70FB699B790A2B03D0FB699B79022B08D1FA7E97F825301946F869FEF796FD0346FB76FB690833FB6197F82630013330
:4027000087F8263097F8262097F827309A42FFF455AF97F82530013387F8253097F82530082B7FF644AF7B695B68FB61002387F8253020E024C2FF1F90C2FF1F04C2FF1F79
:402740001FC2FF1F21C2FF1FFB699B7803F07F02FB691878244913465B0013449B000B440A3302461A70FB690833FB6197F82530013387F8253097F8252097F827309A428C
:40278000E2D300F09DF90246184B1A6000237B84012387F827301DE097F82720124913465B0013449B000B4406337A8C1A8097F827200D4913465B0013449B000B44083345
:4027C0001B889AB27B8C13447B8497F82730013387F8273097F82730082BDDD9FFF79AFD00BF2837BD4680BD24C2FF1F18C2FF1F90B585B000AF8F4B1B78DBB2002B00F0A9
:4028000015818C4B1B78DBB2013BDBB2184600F01DF978607B6808337B607B681B78FB707B685B68BB60844B1B78BB700023FB73F7E0BB681B78BA789A4240F0EC80BB78E3
:402840007E4AD35CDAB2BB685B789A4240F0E380BB689B7803F07F037B70BB68DB7803F003033B707A78764913465B0013449B000B44033300221A707A78BB68987870495A
:4028800013465B0013449B000B44043302461A707A78BB68D8786A4913465B0013449B000B4402461A707A78BB689888644913465B0013449B000B44083302461A80BB6824
:4028C0009B785BB2002B1ADA7A783B78012B01D1072000E00D205A4913465B0013449B000B44053302461A707A78554913465B0013449B000B44013301221A7019E07A78CF
:402900003B78012B01D1052000E009204C4913465B0013449B000B44053302461A707A78474913465B0013449B000B44013300221A70444A7B781B011344023301221A70F7
:40294000404879787A783E4C13465B0013449B00234408331B889BB21B0A9BB2DAB20B0103441A70374879787A78354C13465B0013449B00234408331B889BB2DAB20B019C
:40298000034401331A70304879787A782C4C13465B0013449B00234406331B889BB2DAB20B01034406331A70274879787A78244C13465B0013449B00234406331B889BB26F
:4029C0001B0A9BB2DAB20B01034407331A701E4879787A781A4C13465B0013449B00234406331B889BB2DAB20B01034404331A70154879787A78124C13465B0013449B00F9
:402A0000234406331B889BB21B0A9BB2DAB20B01034405331A70BB680833BB60FB7B0133FB73FA7BFB789A42FFF403AF00BF1437BD4690BD1FC2FF1F14C2FF1F90C2FF1F3C
:402A400024C2FF1FFC5F00407060004080B485B000AF0346FB710F4B1B78DBB20E4ADB0013445B68FB60FB681033FB60FB681B78FA799A4202D30023FB6005E0FB79DB00EB
:402A8000FA6813445B68FB60FB6818461437BD4680BC7047FDC1FF1F4463000080B400AF054B1B78DBB2054ADB0013445B681846BD4680BC704700BFFDC1FF1F446300008D
:402AC00080B584B000AF104B1B78DBB2013BDBB21846FFF7BBFFB860BB68002B0DD0BB685B681B79FB71FB790233DB00BA681344BB60BB685B68FB6001E00023FB60FB6828
:402B000018461037BD4680BD1FC2FF1F80B582B000AF0023FB71344B1B79DBB203F07F03BB71BB79002B5AD0BB79082B57D8BA79B9792E480B465B000B449B0003440233BF
:402B40001B78DBB243F00103D8B2284913465B0013449B000B44023302461A70BA79234913465B0013449B000B44033300221A70BA79B9791D480B465B000B449B000344EA
:402B800001331B78DBB243F00203D8B2174913465B0013449B000B44013302461A70BA79124913465B0013449B000B4404331B78DBB25BB2002B07DA0D4ABB791B011344B3
:402BC00002338D221A7006E0094ABB791B011344023389221A70FEF7FFFD0346FB71FB7918460837BD4680BD0060004024C2FF1FFC5F004080B582B000AF0023FB714C4BAB
:402C00001B79DBB203F07F03BB71BB79002B00F08A80BB79082B00F28680BA79B97945480B465B000B449B00034402331B78DBB223F00103D8B23F4913465B0013449B0027
:402C40000B44023302461A70BA793A4913465B0013449B000B44033300221A70364ABB791B0113447F221A70BA79B97931480B465B000B449B00034401331B78DBB223F0FD
:402C80000203D8B22B4913465B0013449B000B44013302461A70BA79264913465B0013449B000B4404331B78DBB25BB2002B1BDABA79204913465B0013449B000B44013336
:402CC0001B78DBB2012B07D11B4ABB791B01134402330C221A7022E0174ABB791B01134402330D221A701AE0BA79124913465B0013449B000B4401331B78DBB2012B07D1EA
:402D00000D4ABB791B011344023308221A7006E0094ABB791B011344023309221A70FEF75BFD0346FB71FB7918460837BD4680BD0060004024C2FF1FFC5F004080B584B0E7
:402D400000AF0023FB73154B1B79BB73144B1B78DBB2013BDBB21846FFF778FEB860BB685B681B79FB71BA7BFB799A4202D9BB7B022B0ED8BB7BBA7B0A498A5CD1B20A4ABD
:402D8000D154BB7B054A9278D1B2064AD1540123FB73FB7B18461037BD4680BD006000401FC2FF1F90C2FF1F04C2FF1F80B582B000AF0023FB710F4B1B78DBB25BB2002B30
:402DC00012DA0C4B5B78DBB2012B00D00CE00A4B0A4A5A60094B1B789AB2074B1A80FEF7DFFB0346FB7100BFFB7918460837BD4680BD00BF0060004008C2FF1F6063000028
:402E000080B400AF054B1B78DBB203F040039B09DBB21846BD4680BC704700BF8F45004080B483B000AF0346FB7101BE00BF0C37BD4680BC704700BF80B582B000AF034611
:402E4000FB80FB88054A127802FB03F3184600F0B7F800BF0837BD4680BD00BF14C1FF1F80B584B000AF03463960FB710F4B1B68FB60FB791F2B02D90020FFF7D1FFFB790A
:402E800003F01F0310339B00FA6813441B68BB60FB7903F01F0310339B00FA6813443A681A60BB6818461037BD4680BD08ED00E080B582B000AF03460A46FB711346BB710F
:402EC000BB79072B02D90020FFF7AAFFFB791F2B02D90020FFF7A4FFFB7903F01F0303F1604303F56443BA795201D2B21A7000BF0837BD4680BD00BF80B483B000AF786042
:402F0000264B1B78DBB21A467B681A60244B1B78DBB21B027A6812681A437B681A60214B1B78DBB21B047A6812681A437B681A601D4B1B78DBB21B067A6812681A437B687B
:402F40001A607B680433194A1278D2B21A60184B1B78DBB21A027B6804337968043109680A431A60134B1B78DBB21A047B6804337968043109680A431A600F4B1B78DBB24D
:402F80001A067B6804337968043109680A431A6000BF0C37BD4680BC704700BF0301004904010049EC46004002010049010100490001004905010049060100490000000045
:402FC000142816D902B4012114381049097811F0C001890904B40E4A515C04BC00BF00BF00BF8841FDD500BF00BF02BC704700BF00BF70F10400FCD570470B050709EFF39F
:40300000108072B6704780F31088704700480040FA2F000080B582B000AF1D4B1B78DBB203F00303012B02D0022B04D012E0184B1B79BB7111E0164B1B79DBB203F07F021C
:40304000144913465B0013449B000B440A331B78BB7102E00023BB7100BF0F4B1A68BB7913441B78022B06D0032B09D1FEF7B0FC0346FB7107E0FDF797FE0346FB7102E0B0
:403080000023FB7100BFFB7918460837BD4680BD0060004024C2FF1F18C2FF1F014B1868704700BF7CC1FF1F0E4B70B51E460E4C0025E41AA410A54204D056F825309847E8
:4030C0000135F8E703F012FA084B094C1E46E41AA4100025A54204D056F8253098470135F8E770BDF8640000F8640000F86400000065000010B5431E0A44914204D011F8BD
:40310000014B03F8014FF8E710BD03460244934202D003F8011BFAE770472DE9F04788B0149F002B1E461299B8BF03F1004327F02007B6BF1E4600232D23462F1446109D41
:40314000DDF84CA00B7003D0452F03D1013501E0032300E0022307AA049206AA03928DE828042246334600F003FD472F804602D1119BDB0728D5462F08EB050911D198F836
:403180000030302B0AD1002200232046314602F0FBFB18B9C5F10105CAF80050DAF800309944002200232046314602F0EDFB08B9302202E0CDF81C9006E0079B994503D97D
:4031C000591C07911A70F8E74046079B159AC8EB0303136008B0BDE8F087034673B50029B8BF494203F8022BB4BF2D222B22092942701ADD0DF1070216460A2591FBF5F4CD
:4032000005FB1411092C01F1300102F8011D2146F4DC3031541E02F8011CB4421A460AD214F8012B03F8012BF7E71A463024214402F8024B5970101A02B070BD2DE9F04FE2
:4032400091B00C46DDF8688016461F46054601F027FA03681846099300F0F4FB00230E93D8F800300A90073323F0070303F1080294F81890D4F800B0C8F80020D3E900237A
:40328000C4E91223D4F84CA0D4F848802AF000430B934FF0FF32A74B40460B9902F0A6FBA0B94FF0FF32A34B40460B9902F080FB60B9002200234046514602F06FFB10B1E0
:4032C0002D2384F843309C4B9C4A0AE0424653464046514602F08AFB002800F09281984B984AB9F1470F8CBF90469846032323612BF0040323604FF0000A3DE0B9F1670F5F
:4033000000F08A81B9F1470F00F0868123600193636800210DF13302059002920093424653460691CDF81090CDF80CE02846FFF7F4FE09F0DF03472B804600F08481B9F1D3
:40334000650F0D9900F28D8101394A4604F150000D91FFF742FF0E9A82468318012A236100F37C812268D10700F178819DF8333013B12D2384F84330009733460FAA21462E
:40338000284600F09FF9013002D14FF0FF3096E123685A0501D4236965E0B9F1650F40F2D580D4E912010022002302F0EDFA78B30123654A31462846B8470130E5D00E9B9A
:4033C0000D9A9A420BDB2368D80708D423689B0740F111814FF0000804F1190906E10A9B099A31462846B8470130CED04FF0000804F11A090E9B013B9845E7DA01234A4658
:4034000031462846B8470130BFD008F10108F1E70D9B002B29DC01234B4A31462846B8470130B2D00D9B23B90E9B13B92368D907CCD50A9B099A31462846B8470130A4D010
:403440004FF0000904F11A0A0D9B5B42994509DA0123524631462846B847013095D009F10109F1E70E9B4246A7E00E9AA36D9A42A8BF1A46002A914606DC4FF0000A29EA81
:40348000E97904F11A0B11E01346314642462846B8470130F1D178E701235A4631462846B84701303FF471AF0AF1010AA36DC9EB03029245F0DB08EB03090D9A0E9B9A42C0
:4034C0000FDB2368DA070CD40E9B0D9A9844C9EB08089B1A9845A8BF9846B8F1000F08DC0FE00A9B099A31462846B8470130EBD14BE743464A4631462846B84701303FF498
:4035000044AF4FF0000928EAE87804F11A0A09E00123524631462846B84701303FF435AF09F101090D9A0E9B9B1AC8EB03039945EEDB4BE7FFFFEF7F8A6300008E6300000F
:4035400092630000966300009A6300000E9A012A01DCDB0738D50123424631462846B84701303FF412AF0A9B099A31462846B84701303FF40AAFD4E912010022002302F0BC
:4035800003FA20B14FF0000804F11A090EE00E9B08F10102013B19E001234A4631462846B84701303FF4F1AE08F101080E9B013B9845F1DB534604F1500231462846B84727
:4035C00001307FF403AFE0E64246012331462846B8470130EED1D8E601234A4631462846B84701303FF4D1AE08F10108E3680F9A9B1A9845F0DBE0680F9B9842B8BF184602
:403600005DE062680EA8531C0DF1340E4BF480637FF474AE062201E012B90122626075E6002106910DF133018DE80C00236005904246CDF81090CDF80CE002915346284698
:40364000FFF76BFD80460D9BD81C02DB626893421DDDA9F102095FFA89F970E60133236184E6B9F1660F14D10029636807DD216113B92268D2071DD501330B4419E013B955
:403680002268D00701D5023313E0012311E04FF067090D9B0E9A934205DB22682361D10708D5013305E0002BD4BFC3F102030123134423610D9B4FF0000AA36556E611B09A
:4036C000BDE8F08F2DE9F04791461F460A698B6806469342B8BF1346C9F8003091F843200C46DDF8208012B10133C9F800302368990642BFD9F800300233C9F8003025685B
:4037000015F0060510D104F1190A07E00123524639463046C04701301AD00135E368D9F800209B1A9D42F1DB94F843302268003318BF012392060FD5E118302081F84300BC
:403740005A1C94F845102244023382F8431003E04FF0FF30BDE8F08704F1430239463046C0470130F4D02268D9F80050E36802F00602042A08BF5D1B2269A3680CBF25EA25
:40378000E57500259342C4BF9B1AED184FF000091A344D4509D00123224639463046C0470130D5D009F10109F3E70020BDE8F0872DE9F04317460A7E85B06E2A98460646DA
:4037C0000C460C9B01F1430E00F0AE8011D8632A22D009D8002A00F0BB80582A40F0CA8081F84520834955E0642A1ED0692A1CD0C0E0732A00F0B08009D86F2A2ED0702A8C
:4038000040F0B8800A6842F020020A603EE0752A24D0782A3AD0ADE01A6801F14205111D1960136884F84230A8E021681A6811F0800F02D0111D196008E011F0400F02F174
:403840000401196002D0B2F9003000E01368002B3CDA2D225B4284F8432037E021681A6811F0800F02D0111D196007E011F0400F02F10401196001D0138800E01368227E7C
:403880005C496F2A14BF0A2208221BE078225A4984F845202268186812F0800F00F104051D6003D1550601D5038800E00368D00744BF42F0200222601BB9226822F0200259
:4038C00022601022002084F8430001E049490A226568002DA56008DB206820F0040020602BB9002D7DD175460CE0002B79D07546B3FBF2F002FB1033CB5C05F8013D0346E8
:403900000028F5D1082A0BD12368DA0708D5236962689A42DEBF302305F8013C05F1FF35C5EB0E0323612EE008681A6810F0800F496903D0101D1860136808E010F0400F0C
:4039400002F104001860136801D0198000E0196000232361754616E01A68111D1960156800216268284600F0A7FE08B1401B6060636804E004F1420584F842200123236169
:40398000002384F84330CDF800803B4603AA21463046FFF797FE013002D14FF0FF3026E023692A4639463046C0470130F5D023689B0710D5002504F1190907E001234A46CB
:4039C00039463046C0470130E7D00135E368039A9B1A9D42F2DBE068039B9842B8BF184605E00B7804F1420584F842308AE705B0BDE8F0839C630000AD6300000EB400B579
:403A00004FF402719CB0ADF814106FF00041049107914FF6FF711DAB02900690084853F8042BADF81610006802A9019301F03AFA029B00221A701CB05DF804EB03B0704725
:403A40007CC1FF1F034613F8012B002AFBD1181A013870472DE9F74F03690C6980469C427FDC013C01F114074FEA840E00F1140606EB0E0357F82450019356F824300135C6
:403A8000B3FBF5F507EB0E09C5B34FF0000A3846B446D34650F8043B9AB205FB02A21B0C4FEA124A05FB03A392B2C2EB0B0BBCF800204FEA134A5A441FFA83FBDCF8003090
:403AC0008145CBEB134303EB224392B242EA03424FEA234B4CF8042BDCD256F80E306BB9019B043B9E421A4602D3C8F8104005E01268043B002AF8D1013CF3E7404600F056
:403B0000F6FF00282BDB304601354FF0000E57F8042B036891B2C1EB0E0E120C99B27144C2EB134303EB214389B24FEA234EB94541EA034340F8043BE9D256F8242006EBF9
:403B4000840362B9043B9E421A4602D3C8F8104005E01268043B002AF8D1013CF3E7284600E0002003B0BDE8F08F0000000000002DE9F04F456A95B08246219CCDE90223A9
:403B800045B9102000F090FDCAF82400456085600560C560DAF82430196859B15A68012393404A608B60504600F0C9FDDAF8243000221A60039BA04A002BBDBF012323607D
:403BC000039B0023BCBF23F000430393DDF80C80A8BF236028F000431B0D1B0593421DD142F20F73209A1360029B43B9934A944BC8F31300002814BF1846104600E090487F
:403C0000229B002B00F04685C37813B100F1080300E0C31C229A136000F03CBDDDE90245002200232046294601F0AEFE074658B1209A01231360229B002B00F01E85814860
:403C40001860013800F026BD12AB019313AB009322462B46504600F0C5FFC8F30A56049056B1C5F3130343F07F51204641F44011A6F2FF3611971DE0139B129E1E4406F25E
:403C80003243202B0ADD029A06F21240C3F1400322FA00F008FA03F3184304E0C3F12000029B03FA00F001F091FB0123A1F1F871013E11930022644B01F04AFA58A3D3E9A3
:403CC000002301F0F9FB58A3D3E9002301F042FA044630460D4601F089FB55A3D3E9002301F0EAFB02460B462046294601F032FA04460D4601F090FE002283460023204665
:403D0000294601F04BFE58B1584601F06FFB02460B462046294601F037FE08B90BF1FF3BBBF1160F0DD8DDE90223484901EBCB01D1E9000101F050FE30B10BF1FF3B00232F
:403D400000E00123109300E01090129B9E1B731E079343BFC3F10008002307934FF00008BBF1000F06DB079BCDF82CB05B440793002705E00023CBEB0808CBF100070B935B
:403D80001E9B092B28D8052BC4BF043B1E931E9BC8BF0025A3F10203D8BF0125032B20D8DFE803F0060E0204012302E0012308E000230A931F9B002B1DDD9946059321E095
:403DC00000230A931F9B0BEB030909F10103012B0593B8BF012315E0012500231E930A9501E001230A934FF0FF390022CDF8149012231F9206E04FF001094B46CDF81490A9
:403E0000CDF87C90DAF8244000226260042101F114029A421CD86268490001326260F6E761436F63A787D23FB3C8608B288AC63FFB799F501344D33F0000F07FBE63000087
:403E4000C76300009B6300000000F83FD86300006168504600F03EFCDAF8243020601B680693059B0E2B00F25B81002D00F05881DDE90234BBF1000FCDE90E3430DD9F4A1B
:403E80000BF00F034FEA2B1502EBC303E80618CBCDE908340CD5DDE90E01994B05F00F05D3E9082301F032FC0324CDE9020100E00224934E6DB1E90708D5DDE90801D6E91D
:403EC000002301F0F9FACDE9080101346D100836F0E7DDE90823DDE9020101F017FC20E0CBF1000505B3DDE90E01844B05F00F0203EBC203D3E9002301F0DEFACDE9020140
:403F00007F4E2D110023022455B1EA0705D5D6E9002301F0D1FA013401236D100836F3E71BB1CDE9020100E00224109BE3B1DDE902560022734B2846314601F02FFD98B1BD
:403F4000059B8BB1B9F1000F40F3E6800BF1FF330893314600226C4B284601F0ADFA0134CDE902014E4602E0059ECDF820B0204601F03CFADDE9022301F09EFA634B002287
:403F800001F0E8F8A1F1507304460C931D46D6B9DDE9020100225E4B01F0DAF822460C9BCDE9020101F018FD002840F03F820C99224601F10043DDE9020101F0EFFC0028B3
:403FC00040F02B82A8E00A9A4C4B711E002A49D003EBC103D3E9002300204E4901F096FB22462B4601F0B4F8CDE90C01069CDDE9020101F011FD054601F0F8F902460B461C
:40400000DDE9020101F0A4F8DDE90C23303504F8015BCDE9020101F0C1FC002840F01D83DDE902230020374901F092F8DDE90C2301F0B4FC002840F0D180069BE31AB34241
:404040006ADADDE90C0100222F4B01F035FA0022CDE90C01DDE902012B4B01F02DFACDE90201C4E703EBC1012246D1E900012B4601F022FA069BCDE90C011D469C19DDE93A
:40408000020101F0C9FC064601F0B0F902460B46DDE9020101F05CF8303605F8016BAC42CDE902014FF0000222D11A4BDDE90C0101F050F802460B46DDE9020101F08CFCC4
:4040C000002840F08B80DDE90C230020114901F03FF802460B46DDE9020101F05FFCD8B114F8013C621E302B40F0B7821446F7E7054B01F0E1F9CDE90201C0E7D863000014
:40410000B06400000000F03F0000244000001C40000014400000E03FDDE90E34CDE90234139B002B7CDBBBF10E0F79DCAB4B03EBCB03D3E900671F9B002B14DA059B002B54
:4041400011DC40F06C810022A54B3046394601F0B3F9DDE9022301F035FC059D2E46002840F05F8165E1069CDDE9028932463B464046494601F0CAFA01F04EFC054601F0C3
:4041800035F932463B4601F097F90B4602464946404600F0DDFF05F1300E069B04F801EBC3EB040E059B73452DD102460B4600F0D1FF8046894602460B463046394601F09D
:4041C000EDFB78B942464B463046394601F0DCFB002800F04482EB0704D440E2DDF820B000E01C4614F8012C631E392A07D1069A9A42F6D1069930220BF1010B0A701A78E2
:4042000001321A702BE20022764B01F055F9002200238046894601F0B7FB0028A6D01EE20A9A002A2BD01E9A012A0ADC119A12B103F2334302E0129BC3F136033D46444683
:4042400013E0059B5D1EAF42BFBF0B9BEA1B9B180B93059BB6BF2F467D1B0025002BA7BF4446059BC3EB08040023079A01211A4450469844079200F001FB064602E03D461D
:4042800044460A9E5CB1079B002B08DDA342A8BF2346079AC3EB0808E41AD31A0793002F1DDD0A9BABB18DB131462A46504600F07FFB049A01460646504600F0E8FA0499EF
:4042C0000890504600F03BFA089B04937A1B06D000E03A460499504600F06AFB04900121504600F0CBFA0B9B05465BB31A460146504600F05DFB1E9B0546012B18DC029B98
:4043000083B9039BC3F3130373B9039B23F000473F0D3F054FB1079B08F1010801330793012702E0002700E0029F0B9B73B100E000272B6905EB8303186900F052FAC0F1B6
:40434000200004E01E9B012BD9DD0B9F0120079B184410F01F0008D0C0F12003042B02DDC0F11C0002E006D018461C30079B8044034404440793B8F1000F05DD424604997F
:40438000504600F063FB0490079B002B05DD29461A46504600F05AFB0546109B23B32946049800F0A4FB00281EDA00230A220499504600F0DBF90A9B0BF1FF3B0490002BC6
:4043C00000F05F81314600230A22504600F0CEF9B9F1000F06463FDC3BE000BFD86300000000144000002440059B002B2BDC1E9B022B28DDDDF81490B9F1000F11D12946AD
:404400004B460522504600F0B1F901460546049800F06DFB00280CDC03E0354600E000252E461F9B069C6FEA030B09E03546DDF820B0069B069A5C1C312313700BF1010BC3
:4044400005960026F7E00A9BDDF8149023B9069CB2E01E9B022BCFDC002C05DD31462246504600F0F3FA06469FB17168504600F031F90446326906F10C01023292000C3075
:40448000FEF738FE01222146504600F0DFFA059000E00596029B069F03F00103079329460498FFF7D7FA3146044600F13008049800F01DFB059A02902946504600F033FB51
:4044C000C36802463BB901460A90049800F00FFB0A9A034600E00123114650460A9300F02EF90A9B53B91E9A42B9079A32B9B8F1390F2AD0029B002B1CDC1DE0029A002AEE
:4045000004DB1BD11E9ACAB9079ABAB9002B13DD01220499504600F099FA2946049000F0E6FA002803DC07D118F0010F04D0B8F1390F0AD004F131087C1C0CE0002B07F12F
:4045400001040BDDB8F1390F03D139233B70013756E008F1010887F800806CE0069B2746E31A4B4504F8018C3BD000230A220499504600F0FBF8059B04909E424FF00A02D4
:404580004FF000033146504604D100F0EFF80646059084E700F0EAF8002306460A220599504600F0E3F8059079E700230A220499504600F0DBF8049029460498FFF74AFA35
:4045C000069B00F1300804F8018BE31A4B45ECDB069B0596B9F1010FACBF4B4401331F46002601220499504600F030FA2946049000F07DFA002803DC15D118F0010F12D0A5
:404600003C4614F8013C621E392B09D1069B934204D10BF1010B3123069A02E01446F0E70133137007E03C4614F8013C621E302B01D11446F8E72946504600F080F8059B3B
:404640006BB12EB19E4203D03146504600F077F80599504600F073F801E0DDF820B00499504600F06CF80023209A23700BF101031360229B1BB11C6001E008480AE00698E3
:4046800008E0B9F1000F3FF7E2AE1E9B022B7FF7DEAEB1E615B0BDE8F08F00BF9A6300000048704780C1FF1F024B0146186800F041BB00BF7CC1FF1F10B5C9B2024490429F
:4046C000034605D01C7801308C42F8D1184610BD002010BD70B5456A04460E463DB91020FFF7E2FF6062456085600560C560656AEB6843B1636ADB6853F8260078B10268B9
:4047000043F8262017E021220421204600F0B8FA636AE860DB68002BECD1002070BD012101FA06F56A1D9200204600F0A9FA0028F3D04660856000230361C36070BD70B568
:40474000446A06460D463CB91020FFF7ADFF7062446084600460C4603DB1736A6A68DB6853F82210296043F8225070BD2DE9F04106460C460D691F4601F1140E0023DEF8B6
:404780000000013381B202FB0171000C0F0C02FB007089B201EB00419D424FEA10474EF8041BECDCD7B1A3689D4212DB616830460131FFF78FFF8046226904F10C010232B0
:4047C00092000C30FEF796FC21463046FFF7B7FF444604EB850301355F6125612046BDE8F081030C1B0413B90004102300E0002310F07F4F04BF0002083310F0704F04BF5E
:404800000001043310F0404F04BF80000233002803DB420003D5581C70471846704720207047036813F007020BD0D90722D49A074BBF5B089B08036003604CBF01200220F5
:40484000704799B209B91B0C102213F0FF0F04BF1B0A0832190704BF1B090432990704BF9B080232D90702D45B0805D00132036010467047002070472020704710B50C46FB
:404880000121FFF727FF01224461026110BD2DE9F74F14460A69236988469A42BEBF0B46A0461C46D8F81070D4F81090D8F80830D8F8041007EB09069E42C8BF0131FFF715
:4048C00009FF00F114052B4605EB860C0022634502D243F8042BFAE704F1140208F1140102EB890301EB87070093009B0192934257D9B2F800B0BBF1000F23D08946AE462D
:404900004FF0000859F8044BBEF800A0A3B20BFB03A34FEA144ADEF8004043444FEA14480BFB0A84F24604EB13449BB243EA04434F454FEA14484AF8043B01D9D646E1E735
:40494000CEF80480019B0432B3F802A0BAF1000F21D02C4689462B684FF00008B9F800E0B4F802B09BB20AFB0EBEA346F04443EA08434BF8043B59F8043BB4F804E01B0C9D
:404980000AFB03E34F4503EB18434FEA134801D95C46E3E763600435A7E75CF8043D13B9013E002EF9DC066103B0BDE8F08F00002DE9F843154612F0030206460F4607D0BF
:4049C000214C013A002354F82220FFF7CFFE0746AD1036D0746A3CB91020FFF765FE7062446084600460C460D6F82480D8F808404CB940F271213046FFF740FF04460023E2
:404A0000C8F8080003604FF00008EB070AD5394622463046FFF73BFF814639463046FFF78EFE4F466D100CD0206808B10446ECE7224621463046FFF72AFF2060C0F8008000
:404A4000F4E73846BDE8F883A06400002DE9F0470C460746914626694FEA621A56444968A368751CAB4202DA01315B00FAE73846FFF730FE002380461A4600F1140153450B
:404A800003DA41F823200133F9E72AEAEA73206901EB830319F01F0904F1140101EB800E14D0C9F1200C002208689A4600FA09F0024343F8042B51F8042B8E4522FA0CF225
:404AC000F2D8CAF8042042B1B51C06E0043B51F8042B8E4543F8042FF9D8013D3846C8F810502146FFF72BFE4046BDE8F08703690A6910B59B1A11D192001430143183189E
:404B00000A4453F8044D52F8041D8C4202D007D3012010BD9842F4D3002010BD184610BD4FF0FF3010BD2DE9F8430C460746114620461546FFF7DBFF061E08D131463846FA
:404B4000FFF7C8FD012303614661BDE8F883BCBF23462C4638466168BABF1D4601260026FFF7B8FD2B69C660266905F1140904F1140101EB860709EB830800F114054FF013
:404B8000000C51F8042B59F8044B93B29C44A3B2240CC3EB0C03C4EB124202EB23429BB24FEA224CC84543EA02428E4645F8042BE7D8BE450ED25EF8041B8AB26244131443
:404BC00003EB114392B242EA03424FEA234C45F8042BEEE755F8043D0BB9013EFAE70661BDE8F8832DE9F3411C4601219046089E099DFFF76FFDC4F31302C4F30A5407465C
:404C00000CB142F480120192B8F1000F19D002A840F8088DFFF705FE009B48B1019AC0F1200102FA01F10B43C2407B61019200E07B61019B002B14BF02210121BB6139614C
:404C400007E001A8FFF7EDFD019B01217B613961203034B1A4F2334404443460C0F1350009E0A0F2324007EB810330601869FFF7B8FDC0EB41102860384602B0BDE8F081A3
:404C800038B502FB01F4214600F054F8054618B122460021FEF739FA284638BD38B50546002944D051F8043C0C1F002BB8BFE41800F017FA1E4A1368114613B96360146045
:404CC00030E0A3420DD92268A018834201BF18685B681218226063600C6023E0A24203D813465A68002AF9D118681918A1420BD12168014458188242196013D11068526822
:404D0000014419605A600DE002D90C232B6009E021686018824201BF106852680918216062605C602846BDE8384000F0DBB938BDE0C1FF1F70B5CD1C25F0030508350C2D55
:404D400038BF0C25002D064601DBA94202D90C23336046E000F0C5F9234B1C681A462146A1B10B685B1B0ED40B2B03D90B60CC18CD501EE08C420BBF63684B6813606360BC
:404D800018BF0C4615E00C464968E9E7174C23681BB9304600F07AF920602946304600F075F9431C18D0C41C24F00304A0420DD12560304600F096F904F10B00231D20F0D8
:404DC0000700C31A0ED05A42E25070BD211A304600F05CF90130EBD10C233360304600F081F9002070BD00BFE0C1FF1FDCC1FF1F2DE9F0478E6882469E420C4691469846F9
:404E00003ED88A8912F4906F3AD02568096902236F1A656905EB450595FBF3F57B1C43449D4238BF1D4653050FD52946FFF782FF064698B13A462169FEF75CF9A38923F468
:404E4000906343F08003A38113E02A4600F04BF9064670B921695046FFF720FF0C23CAF80030A3894FF0FF3043F04003A381BDE8F08726613E44266046466561ED1BA560C5
:404E8000464528BF464649463246206800F00EF9A36800209B1BA36023681E442660BDE8F08700002DE9F04F9DB003938B8980461C060D4616460DD50B695BB94021FFF757
:404EC00039FF2860286118B90C23C8F80030CDE040236B610023099320238DF82930DFF89CB130238DF82A3037463C4614F8013B1BB9B7EB060910D003E0252BF9D0274652
:404F0000F3E74B46324629464046FFF771FF013000F0A780099B4B4409933B78002B00F0A08000234FF0FF3204930793059206938DF853301A930126052221784E48FFF712
:404F4000BBFB671C049B38B14B4A3C46801A06FA00F018430490EFE7D90644BF20228DF853201A0744BF2B228DF8532022782A2A03D0079A00210A200BE0039A111D1268A8
:404F80000391002A10DA524243F00200079204900BE027463B780134303B092B03D800FB02320121F5E701B107923B782E2B1ED17B782A2B0AD1039B02371A1D1B680392DD
:404FC000002BB8BF4FF0FF33059310E0002319460593781C0A2407463A780130303A092A03D804FB01210123F5E703B10591032239782248FFF760FB40B14023CBEB00008C
:4050000003FA00F0049B013718430490397806221B487E1C8DF82810FFF74EFB88B1194B33B9039B073323F007030833039314E003AB00932A46144B04A94046FEF7FEF87A
:4050400007E003AB00932A460F4B04A94046FEF7AFFBB0F1FF3F824603D0099B5344099342E7AB895B0601D4099801E04FF0FF301DB0BDE8F08F00BFD8640000DE6400006A
:40508000E26400003D320000F14D000038B5064C0023054608462360FBF7A4FA431C02D1236803B12B6038BDC8C2FF1F884210B501EB020301D8421E0BE09842FBD2811872
:4050C000D21AD34204D013F8014D01F8014DF8E710BD994204D011F8014B02F8014FF8E710BD70477047F8B5074615460E4621B91146BDE8F840FFF71DBE1AB9FFF7CEFD0B
:405100002846F8BD00F015F885420ED929463846FFF710FE044650B131462A46FDF7EAFF31463846FFF7BAFD01E03046F8BD2046F8BD51F8040C0028BEBF091851F8043C30
:40514000C01804387047000081F0004102E000BF83F0004330B54FEA41044FEA430594EA050F08BF90EA020F1FBF54EA000C55EA020C7FEA645C7FEA655C00F0E2804FEA40
:405180005454D4EB5555B8BF6D420CDD2C4480EA020281EA030382EA000083EA010180EA020281EA0303362D88BF30BD11F0004F4FEA01314FF4801C4CEA113102D04042C9
:4051C00061EB410113F0004F4FEA03334CEA133302D0524263EB430394EA050F00F0A780A4F10104D5F1200E0DDB02FA0EFC22FA05F2801841F1000103FA0EF2801843FA15
:4052000005F359410EE0A5F120050EF1200E012A03FA0EFC28BF4CF0020C43FA05F3C01851EBE37101F0004507D54FF0000EDCF1000C7EEB00006EEB0101B1F5801F1BD3D7
:40524000B1F5001F0CD349085FEA30004FEA3C0C04F101044FEA445212F5800F80F09A80BCF1004F08BF5FEA500C50F1000041EB045141EA050130BD5FEA4C0C404141EBC0
:40528000010111F4801FA4F10104E9D191F0000F04BF01460020B1FA81F308BF2033A3F10B03B3F120020CDA0C3208DD02F1140CC2F10C0201FA0CF021FA02F10CE002F1D8
:4052C0001402D8BFC2F1200C01FA02F120FA0CFCDCBF41EA0C019040E41AA2BF01EB0451294330BD6FEA04041F3C1CDA0C340EDC04F11404C4F1200220FA04F001FA02F3B8
:4053000040EA030021FA04F345EA030130BDC4F10C04C4F1200220FA02F001FA04F340EA0300294630BD21FA04F0294630BD94F0000F83F4801306BF81F480110134013DA5
:405340004EE77FEA645C18BF7FEA655C29D094EA050F08BF90EA020F05D054EA000C04BF1946104630BD91EA030F1EBF0021002030BD5FEA545C05D14000494128BF41F024
:40538000004130BD14F580043CBF01F5801130BD01F0004545F0FE4141F470014FF0000030BD7FEA645C1ABF194610467FEA655C1CBF0B46024650EA013406BF52EA03354A
:4053C00091EA030F41F4002130BD00BF90F0000F04BF0021704730B54FF4806404F132044FF000054FF0000150E700BF90F0000F04BF0021704730B54FF4806404F13204E2
:4054000010F0004548BF40424FF000013EE700BF42004FEAE2014FEA31014FEA02701FBF12F07F4393F07F4F81F06051704792F0000F14BF93F07F4F704730B54FF46074D2
:4054400001F0004521F0004120E700BF50EA010208BF704730B54FF000050AE050EA010208BF704730B511F0004502D5404261EB41014FF4806404F132045FEA915C3FF488
:40548000DCAE4FF003025FEADC0C18BF03325FEADC0C18BF033202EBDC02C2F1200300FA03FC20FA02F001FA03FE40EA0E0021FA02F11444C1E600BF70B54FF0FF0C4CF44F
:4054C000E06C1CEA11541DBF1CEA135594EA0C0F95EA0C0F00F0DEF82C4481EA030621EA4C5123EA4C5350EA013518BF52EA033541F4801143F4801338D0A0FB02CE4FF07D
:405500000005E1FB02E506F00042E0FB03E54FF00006E1FB03569CF0000F18BF4EF0010EA4F1FF04B6F5007F64F5407404D25FEA4E0E6D4146EB060642EAC62141EA555156
:405540004FEAC52040EA5E504FEACE2EB4F1FD0C88BFBCF5E06F1ED8BEF1004F08BF5FEA500E50F1000041EB045170BD06F0004646EA010140EA020081EA0301B4EB5C04B2
:40558000C2BFD4EB0C0541EA045170BD41F480114FF0000E013C00F3AB8014F1360FDEBF002001F0004170BDC4F10004203C35DA0C341BDC04F11404C4F1200500FA05F3E5
:4055C00020FA04F001FA05F240EA020001F0004221F0004110EBD37021FA04F642EB06015EEA430E08BF20EAD37070BDC4F10C04C4F1200500FA04F320FA05F001FA04F209
:4056000040EA020001F0004110EBD37041F100015EEA430E08BF20EAD37070BDC4F1200500FA05F24EEA020E20FA04F301FA05F243EA020321FA04F001F0004121FA04F227
:4056400020EA020000EBD3705EEA430E08BF20EAD37070BD94F0000F0FD101F00046400041EB010111F4801F08BF013CF7D041EA060195F0000F18BF704703F000465200B0
:4056800043EB030313F4801F08BF013DF7D043EA0603704794EA0C0F0CEA135518BF95EA0C0F0CD050EA410618BF52EA4306D1D181EA030101F000414FF0000070BD50EA4D
:4056C000410606BF1046194652EA430619D094EA0C0F02D150EA013613D195EA0C0F05D152EA03361CBF104619460AD181EA030101F0004141F0FE4141F470014FF0000074
:4057000070BD41F0FE4141F4780170BD70B54FF0FF0C4CF4E06C1CEA11541DBF1CEA135594EA0C0F95EA0C0F00F0A7F8A4EB050481EA030E52EA03354FEA013100F0888094
:405740004FEA03334FF0805545EA131343EA12634FEA022245EA111545EA10654FEA00260EF000419D4208BF964244F1FD0404F5407402D25B084FEA3202B61A65EB03058E
:405780005B084FEA32024FF480104FF4002CB6EB020E75EB030E22BFB61A754640EA0C005B084FEA3202B6EB020E75EB030E22BFB61A754640EA5C005B084FEA3202B6EBBE
:4057C000020E75EB030E22BFB61A754640EA9C005B084FEA3202B6EB020E75EB030E22BFB61A754640EADC0055EA060E18D04FEA051545EA16754FEA06164FEAC30343EAC9
:4058000052734FEAC2025FEA1C1CC0D111F4801F0BD141EA00014FF000004FF0004CB6E711F4801F04BF01430020B4F1FD0C88BFBCF5E06F3FF6AFAEB5EB030C04BFB6EB1C
:40584000020C5FEA500C50F1000041EB045170BD0EF0004E4EEA113114EB5C04C2BFD4EB0C0541EA045170BD41F480114FF0000E013C90E645EA060E8DE60CEA135594EA0B
:405880000C0F08BF95EA0C0F3FF43BAF94EA0C0F0AD150EA01347FF434AF95EA0C0F7FF425AF104619462CE795EA0C0F06D152EA03353FF4FDAE1046194622E750EA41066B
:4058C00018BF52EA43067FF4C5AE50EA41047FF40DAF52EA43057FF4EBAE12E74FF0FF3C06E000BF4FF0010C02E000BF4FF0010C4DF804CD4FEA410C7FEA6C5C4FEA430C82
:4059000018BF7FEA6C5C1BD001B050EA410C0CBF52EA430C91EA030F02BF90EA020F0020704710F1000F91EA030F58BF994208BF90422CBFD8176FEAE37040F001007047A0
:405940004FEA410C7FEA6C5C02D150EA013C07D14FEA430C7FEA6C5CD6D152EA033CD3D05DF8040B704700BF8446104662468C461946634600E000BF01B5FFF7B7FF00282B
:4059800048BF10F1000F01BD4DF808EDFFF7F4FF0CBF012000205DF808FB00BF4DF808EDFFF7EAFF34BF012000205DF808FB00BF4DF808EDFFF7E0FF94BF012000205DF870
:4059C00008FB00BF4DF808EDFFF7CEFF94BF012000205DF808FB00BF4DF808EDFFF7C4FF34BF012000205DF808FB00BF4FEA410C7FEA6C5C02D150EA013C0AD14FEA430C9B
:405A00007FEA6C5C02D152EA033C02D14FF0000070474FF0010070474FEA410212F5001215D211D56FF47873B3EB625212D94FEAC12343F0004343EA505311F0004F23FA6A
:405A400002F018BF404270474FF00000704750EA013005D111F0004008BF6FF0004070474FF00000704700BF00000000000000004E6F6E65000000004F6464004576656EA5
:405A8000000000004D61726B00000000537061636500000031000000312E35003200000042523A25346C642025642563257300004F4E00004F4646004454523A25732C5206
:405AC00054533A257300000005001401C8490040190000000140001000140140000800400140000A004C0140000200500140200020520040986100000700305200409061CB
:405B000000000700785200408861000007000000014500401152004005010140040201402B0301400E050140070701400408014020090140110B01400E0D0140060E0140D6
:405B4000140F0140041401402E150140041601401D1701400418014022190140181B01401A400140274101401B4201400C4301401E440140294501401846014014470140C8
:405B800019480140394901402A4C01402C4D014002500140025101407E020055019C02FF086409480AEC103A116C13FF183519AC1BFF28A129902AF1606C61368008822093
:405BC00085828840E6205B045F01DB04DF01580859525C045E125F406002622066226722684069886B046C016E206FA071A074087520768181208380860289208C048D4086
:405C00008F209508980A99529F04A220A440A580AD44B002B510B704D6FFD8FCE240E440E690E8208704AA11AB01AF40B2B0B310B409B601E002E609E820EAC0EC80EE70C6
:405C4000880197049F10B710E201E420EE405B045F01DB04DF01580659805B105C085D405E1160016128638069046AA06B8071047202734881248F40900191409211950400
:405C80009680980E9E02A108AD04B540D6FFD80FE205E401EC028240860288088E10900192019806A108AC04AE04B006B108B401E002E408E802EC028F2092059B20A0040F
:405CC000A901AA04AB08AC10B201B301E804EA40EC15EE0256085B045D905F01DB04DF015810598068056BA06D026E086F09700871017206800881018202840185808F8007
:405D0000D60CE001E208E40D5B045F01DB04DF0158215A485C805D115E0462A06402662067A06C046E086F8274087540778480888220838085408604875089118A208B8066
:405D40008C028EC08F04920894089821A604A702A805AC20AE40B38AB405B720D6FFD8FCE090E4C0E630EA61EC50EEA05B045F01DB04DF015C055E805F206AA06B906C01A8
:405D80006F687080730476028204834086048E508F20970498019E029F10A480AC80B202D6F0E250E410E620E808EA80EE0A5B045F01DB04DF01581059825B045C485D01E0
:405DC0005F10628064016A926B206F9A7040748082408380872889018B808C408E109B88A980AA10B340B710D6FFD818E00AE405E620E808EA04EC04EE0A83148410850270
:405E000087029B109C109D029F04A302A880AA80AB08AC09AE01AF10B180B440E00CE261E60AE804EA0BEC03EE0C0140032006020B200F2033843640520255105F1065A045
:405E4000754081408310852086028A02C0D0C230CC70D4C0D6A0D880DC40E4B0E640000802010680070208100A200F12528053015602572059045C01620265016C048104FF
:405E80008301870189808D108E039DC09F04A510A640A780AF30B310C0F0C2F0D4E0D6E0D8C0DA80E410E6A0EA10EC10010807203E10532056208004854094089D409F0441
:405EC000A640A780AA90AB02AC04B010B282B310B401B501B720C030CE20D460E690E880ECE0584083048B20961099089B209F04A640A7A0B620D480E280050208080B08F7
:405F00000C88110113021504164059085F806010640166086D026F2071087F028011830186C08F20C004C20FC40CD607D803DA01DC03DE04E40800240520062009220D1056
:405F40000F80528257085F20600162016610670273028E0290019105930A98089A019B20A008A280A509A722A908AA09AF02B081B502B780C00FC20FD407D607D803DC04F6
:405F8000E408EA02EC0CEE01850887208B048C0890049105930898089A209F02A008A120A340A509A722AE10AF08B010B130B502E201E608EA04EE0D08080B010F405310F3
:405FC000810183418D20900491059A20A120A340A501A702AF02B408C20ED404E602EA020180022004815280560A5A8081408240850888208C018D048F2096109908A72027
:40600000AE40AF80B040C0F0D4E0D620E410E6A0EE5002220588081009010C800E40130814405180530156205C085D4060016102660470207104768080018260830184985D
:406040008602898A8D018E048F08914099049AA09C40A020A180A980AA90AC40AE20B2A8B440B580B602C0F0C2F0C430D4E0D6E0D8C0DCA0DE20E070E280E4C0E630EA8069
:40608000EC50EEA0014005800A010D100E20104013201610510257085B045F0466086F2079017D048102830887068A018D429105A320A804AB20AC08AF42B310B620C0031F
:4060C000C207C40ED403D603D801DA01DE03E202E408E601E804EE0202400B280C080F0812801410562059025F08632066016F0276107840800883088620871488108E800C
:40610000984099029A119E40A312A704AA01AB34AD90AE18B240B704C008C20FC40CD402D603D803DA01DC01DE04E206EC08EE0101010F01002A03C000FFFF00FFFF000076
:40614000300000CFFF00FFCF000000004000000F0F000F0FC000000000EFEF00ECEC000000FFFF00FFFF000000FFFF00FFFF0000003D3D003D3D000000F1F100F1F10000B1
:4061800000F2F200F2F20000060C000F4000000032A2F2F000000000351C3D3D0000000030313233343536373839414243444546000000001201000202000008B40432F298
:4061C0000100010480010000090243000201018032090400000102020002052400100104240202052406000105240100010705810308000A09040100020A000003070582F2
:40620000024000000705030240000000040309042C0343007900700072006500730073002000530065006D00690063006F006E0064007500630074006F00720038034300A2
:4062400044004300200043006F006D006D0075006E00690063006100740069006F006E00200049006E00740065007200660061006300650026034300440043002000440019
:40628000610074006100200049006E00740065007200660061006300650010035500530042005500410052005400000002030000320005010902A1010901A1000509190101
:4062C0002903150025019503750181029501750581010501093009311581257F750895028106C0C00000000000008103080002000100820240000A000100030240000A0099
:40630000020A000001000000C861000003000000E862000000000000000000000000000000000000000000000063000001000000B461000000000000000000000100000060
:4063400004630000010000002C63000012034D005300460054003100300030000100000028000000000104000100000000000000000143595553420000003030303031009F
:4063800000000000000000004300494E4600696E66004E414E006E616E00300030313233343536373839414243444546003031323334353637383961626364656600496E7B
:4063C00066696E697479004E614E00504F534958002E000000000000000000000000F03F000000000000244000000000000059400000000000408F40000000000088C34086
:4064000000000000006AF8400000000080842E4100000000D01263410000000084D797410000000065CDCD41000000205FA00242000000E876483742000000A2941A6D42CD
:40644000000040E59C30A2420000901EC4BCD64200003426F56B0C430080E03779C3414300A0D8855734764300C84E676DC1AB43003D9160E458E143408CB5781DAF15441B
:4064800050EFE2D6E41A4B4492D54D06CFF08044F64AE1C7022DB544B49DD9794378EA4405000000190000007D000000000000000080E03779C34143176E05B5B5B8934608
:4064C000F5F93FE9034F384D321D30F94877825A3CBF737FDD4F1575232D302B2000686C4C0065666745464700000000F8B500BFF8BC08BC9E4670474D000000CD0600006B
:40650000F8B500BFF8BC08BC9E4670472900000020650000C8C0FF1FF00000001801000000000000705A0000785A00007C5A0000845A00008C5A0000945A0000985A000069
:406540009C5A0000D0C2FF1F00C2010000000800C201000000080000A120000000000200000000000090D00300FA0000400000000000007D00000000000000000000000002
:4065800000000000000000000000000000000000000000008863000000000000000000000000000000000000000000000000000000000000000000000000000000000000F0
:4065C00000000000000000000000000000000000000000001CC1FF1FD1630000DD640000DD640000DD640000DD640000DD640000DD640000DD640000DD640000DD64000023
:40660000FFFFFFFFFFFFFFFFFFFFFFFFFFFF000000000000000000000000000000000000000000000000000000000000000000000000000000000000000000000000000068
:40664000000000000000000000000000000000000000000000000000000000000000000000000000000000000000000000000000000000000000000000000000000000001A
:4066800000000000000000000000000000000000000000000000000000000000000000000000000000000000000000000000000000000000000000000000000000000000DA
:4066C000000000000000000000000000000000000000000000000000000000000000000000000000000000000000000000000000000000000000000000000000000000009A
:406700000000000000000000000000000000000000000000000000000000000000000000000000000000000000000000000000000000000000000000000000000000000059
:0200000480007A
:0200000490006A
:0400000000004005B7
:0200000490105A
:04000000BC90ACAF55
:0200000490303A
:020000008CDA98
:0200000490402A
:4000000000000000000000000000000000000000000000000000000000000000000000000000000000000000000000000000000000000000000000000000000000000000C0
:400040000000000000000000000000000000000000000000000000000000000000000000000000000000000000000000000000000000000000000000000000000000000080
:0200000490501A
:0C00000000012E13306900012E39BD43B1
:00000001FF