:4000000000400020110000001D1F00001D1F000080B500AF024A034B1B68136001F0B0FFBC760040FA46004010B5054C237833B9044B13B10448AFF300800123237010BD2F
:4000400060C1FF1F00000000F4680000084B10B51BB108490848AFF300800848036803B910BD074B002BFBD0BDE81040184700BF0000000064C1FF1FF4680000C8C0FF1F5A
:400080000000000080B592B000AF62B60121002002F00AF8204B4FF400421A6004F000FB1E4B00221A8002F0CFF90346002B06D002F0BEF90346002B01D002F0BDFB02F0C0
:4000C000B7F90346002BEED002F040FC0346002BE9D03B1D184602F05DFC0346A7F846303A1DB7F846301146184601F0C5F80C4B1B78012B01D100F0BDFEB7F84630402B62
:40010000D1D100BF02F034FC0346002BFAD00021002002F0E5FBC6E700E100E07CC1FF1F8DC1FF1F80B582B000AF0346FB71FB790121184600F02EF9FA2004F0EDFDFB7974
:400140000021184600F026F900BF0837BD4680BD80B500AF0C21002000F01CF90C21012000F018F90C21022000F014F90C21032000F010F90C21042000F00CF90C21052001
:4001800000F008F90C21062000F004F90C21072000F000F90C21082000F0FCF80C21092000F0F8F80C210A2000F0F4F80C210B2000F0F0F80C210C2000F0ECF80C210D2078
:4001C00000F0E8F80C210E2000F0E4F80C210F2000F0E0F80C21102000F0DCF80C21112000F0D8F80C21122000F0D4F80C21132000F0D0F80C21142000F0CCF80C211520FB
:4002000000F0C8F80C21162000F0C4F80C21172000F0C0F80C21182000F0BCF80C21192000F0B8F80021002000F0B4F80021012000F0B0F80021022000F0ACF80021032012
:4002400000F0A8F80021042000F0A4F80021052000F0A0F80021062000F09CF80021072000F098F80021082000F094F80021092000F090F800210A2000F08CF800210B202A
:4002800000F088F800210C2000F084F800210D2000F080F800210E2000F07CF800210F2000F078F80021102000F074F80021112000F070F80021122000F06CF800211320AA
:4002C00000F068F80021142000F064F80021152000F060F80021162000F05CF80021172000F058F80021182000F054F80021192000F050F81920FFF715FF1020FFF712FF9B
:400300000B20FFF70FFF0C20FFF70CFF0E20FFF709FF0F20FFF706FF0020FFF703FF0120FFF700FF0320FFF7FDFE0420FFF7FAFE0220FFF7F7FE0620FFF7F4FE0520FFF781
:40034000F1FE0720FFF7EEFE0920FFF7EBFE0820FFF7E8FE0A20FFF7E5FE0D20FFF7E2FE1120FFF7DFFE1220FFF7DCFE1320FFF7D9FE1420FFF7D6FE1520FFF7D3FE16203D
:40038000FFF7D0FE1720FFF7CDFE1820FFF7CAFE00BF80BD80B582B000AF03460A46FB711346BB71FB79192B00F2BA8001A252F823F000BF1D0400002704000031040000CB
:4003C0003B040000450400004F04000059040000630400006D04000077040000810400008B040000950400009F040000A9040000B3040000BD040000C7040000D10400005D
:40040000DB040000E5040000EF040000F9040000030500000D05000017050000BB79184604F0F0FD7CE0BB79184604F059FD77E0BB79184604F098FF72E0BB79184604F0D7
:40044000FDFD6DE0BB79184604F070FF68E0BB79184604F0A1FE63E0BB79184604F0B6FE5EE0BB79184604F0CFFE59E0BB79184604F0E8FE54E0BB79184604F001FF4FE037
:40048000BB79184604F01AFF4AE0BB79184604F0C3FF45E0BB79184604F0A0FF40E0BB79184604F07FFF3BE0BB79184604F0ECFF36E0BB79184604F0C9FF31E0BB7918462A
:4004C00004F01AFF2CE0BB79184604F0D1FD27E0BB79184604F05EFD22E0BB79184604F01DFD1DE0BB79184604F036FD18E0BB79184604F0DBFD13E0BB79184604F064FD1F
:400500000EE0BB79184604F00DFE09E0BB79184604F0EAFD04E0BB79184604F021FE00BF00BF0837BD4680BD80B584B000AF78605023FB734FF48073BB8100233B7200232A
:400540007B7207F10801F87B0023022204F094FA00BF04F09DFB034603F00203002BF8D0012004F0FBFBBB89DBB2013BDAB2F87B0023796804F004FB00BF04F089FB034644
:4005800003F00103002BF8D000BF1037BD4680BD80B598B000AF7860002387F850300023A7F85E300023A7F85C300023A7F85E30C3E000233B73B7F85E301A0107F10C0324
:4005C0006249184605F05CFD0023A7F85C301DE0B7F85E301A01B7F85C3013441A467B6813441B781A4607F150035949184605F047FD07F1500207F10C031146184605F063
:4006000063FDB7F85C300133A7F85C30B7F85C300F2BDDD907F10C03184605F064FD03461A4607F10C0313444A4A1188927819809A7007F10C03184605F055FD03469AB2B8
:4006400007F10C031146184602F04AF900BF02F08FF90346002BFAD000233B730023A7F85A303FE0B7F85E301A01B7F85A3013441A467B6813441B78202B1DD9B7F85E3043
:400680001A01B7F85A3013441A467B6813441B787E2B11D8B7F85A30B7F85E201101B7F85A200A4411467A680A44127807F160010B4403F8542C07E0B7F85A3007F1600233
:4006C00013442E2203F8542CB7F85A30013307F160021344002203F8542CB7F85A300133A7F85A30B7F85A300F2BBBD907F10C03184605F0F8FC03461A4607F10C0313442B
:40070000154A1188927819809A7007F10C03184605F0E9FC03469AB207F10C031146184602F0DEF800BF02F023F90346002BFAD0B7F85E300133A7F85E30B7F85E300F2B9C
:400740007FF637AF00BF6037BD4680BDF868000000690000086900000C69000080B590B000AF0346FB800023FB87FB88012B4BD100237B8743E00023BB87BB8F5A1CBA87D3
:4007800007F140021344002203F8342CBB8F5A1CBA8719467B8F5B01DAB207F140030B4403F8342C00233B871EE0FB8F6C2B0CD8BB8F5A1CBA871946FB8F654AD25C07F14D
:4007C00040030B4403F8342C08E0BB8F5A1CBA8707F140021344002203F8342CFB8F0133FB873B8F01333B873B8F1F2BDDD907F10C03184600F0B2F87B8F01337B877B8F02
:40080000032BB8D901239EE0FB88022B4BD10023FB8643E00023BB87BB8F5A1CBA8707F140021344002203F8342CBB8F5A1CBA871946FB8E5B01DAB207F140030B4403F8FA
:40084000342C0023BB861EE0FB8F742B0CD8BB8F5A1CBA871946FB8F3E4AD25C07F140030B4403F8342C08E0BB8F5A1CBA8707F140021344002203F8342CFB8F0133FB87ED
:40088000BB8E0133BB86BB8E1F2BDDD907F10C03184600F063F8FB8E0133FB86FB8E032BB8D901234FE0FB88032B4BD100237B8643E00023BB87BB8F5A1CBA8707F14002F4
:4008C0001344002203F8342CBB8F5A1CBA8719467B8E5B01DAB207F140030B4403F8342C00233B861EE0FB8F682B0CD8BB8F5A1CBA871946FB8F184AD25C07F140030B4407
:4009000003F8342C08E0BB8F5A1CBA8707F140021344002203F8342CFB8F0133FB873B8E01333B863B8E1F2BDDD907F10C03184600F014F87B8E01337B867B8E032BB8D937
:40094000012300E0002318464037BD4680BD00BF1069000080690000F869000080B584B000AF78605023FB732223BB73BA7BF87B0023796804F080F800BF04F089F90346DF
:4009800003F00203002BF8D00A2004F0C5F900BF1037BD4680BD00BF80B500AF0C210020FFF7F8FC0C210120FFF7F4FC0C210220FFF7F0FC0C210320FFF7ECFC0C2104206C
:4009C000FFF7E8FC0C210520FFF7E4FC0C210620FFF7E0FC0C210720FFF7DCFC0C210820FFF7D8FC0C210920FFF7D4FC0C210A20FFF7D0FC0C210B20FFF7CCFC0C210C20EB
:400A0000FFF7C8FC0C210D20FFF7C4FC0C210E20FFF7C0FC0C210F20FFF7BCFC0C211020FFF7B8FC0C211120FFF7B4FC0C211220FFF7B0FC0C211320FFF7ACFC0C2114206A
:400A4000FFF7A8FC0C211520FFF7A4FC0C211620FFF7A0FC0C211720FFF79CFC0C211820FFF798FC0C211920FFF794FC01210220FFF790FC00210020FFF78CFC002101205B
:400A8000FFF788FC00210320FFF784FC00210420FFF780FC00210520FFF77CFC00210620FFF778FC00210720FFF774FC00210820FFF770FC00210920FFF76CFC00210A209A
:400AC000FFF768FC00210B20FFF764FC00210C20FFF760FC00210D20FFF75CFC00210E20FFF758FC00210F20FFF754FC00211020FFF750FC00211120FFF74CFC002112201A
:400B0000FFF748FC00211320FFF744FC00211420FFF740FC00211520FFF73CFC00211620FFF738FC00211720FFF734FC00211820FFF730FC00211920FFF72CFC0120FFF7DD
:400B4000F1FA0320FFF7EEFA0420FFF7EBFA0B20FFF7E8FA0C20FFF7E5FA0E20FFF7E2FA0F20FFF7DFFA1020FFF7DCFA0620FFF7D9FA0520FFF7D6FA0720FFF7D3FA09209F
:400B8000FFF7D0FA0820FFF7CDFA0A20FFF7CAFA0D20FFF7C7FA0020FFF7C4FA00BF80BD80B500AF0C210020FFF7F4FB0C210120FFF7F0FB0C210220FFF7ECFB0C21032037
:400BC000FFF7E8FB0C210420FFF7E4FB0C210520FFF7E0FB0C210620FFF7DCFB0C210720FFF7D8FB0C210820FFF7D4FB0C210920FFF7D0FB0C210A20FFF7CCFB0C210B20F9
:400C0000FFF7C8FB0C210C20FFF7C4FB0C210D20FFF7C0FB0C210E20FFF7BCFB0C210F20FFF7B8FB0C211020FFF7B4FB0C211120FFF7B0FB0C211220FFF7ACFB0C21132078
:400C4000FFF7A8FB0C211420FFF7A4FB0C211520FFF7A0FB0C211620FFF79CFB0C211720FFF798FB0C211820FFF794FB0C211920FFF790FB00210020FFF78CFB0021012044
:400C8000FFF788FB00210320FFF784FB00210420FFF780FB00210520FFF77CFB00210620FFF778FB00210720FFF774FB00210820FFF770FB00210920FFF76CFB00210A20A0
:400CC000FFF768FB00210B20FFF764FB00210C20FFF760FB00210D20FFF75CFB00210E20FFF758FB00210F20FFF754FB00211020FFF750FB00211120FFF74CFB0021122020
:400D0000FFF748FB00211320FFF744FB00211420FFF740FB00211520FFF73CFB00211620FFF738FB00211720FFF734FB00211820FFF730FB00211920FFF72CFB01210220B6
:400D4000FFF728FB1120FFF7EDF91220FFF7EAF91420FFF7E7F91520FFF7E4F91720FFF7E1F91920FFF7DEF91320FFF7DBF91620FFF7D8F91820FFF7D5F90620FFF7D2F946
:400D80000520FFF7CFF90720FFF7CCF90920FFF7C9F90820FFF7C6F90A20FFF7C3F90D20FFF7C0F90020FFF7BDF90120FFF7BAF90B20FFF7B7F90C20FFF7B4F90E20FFF79E
:400DC000B1F90F20FFF7AEF91020FFF7ABF90320FFF7A8F90420FFF7A5F900BF80BD00BF80B500AF154800F0DBFA154800F0D8FA144800F0D5FA144800F0D2FA134800F0E3
:400E0000CFFA134800F0CCFA124800F0C9FA124800F0C6FA114800F0C3FA114800F0C0FA104800F0BDFA104800F0BAFA0F4800F0B7FA0F4800F0B4FA00BF80BD646A000006
:400E4000946A0000B46A0000D06A0000F86A0000146B0000386B0000586B0000746B0000886B00009C6B0000C06B0000D06B0000E46B000080B5C0B000AF00BF01F078FDCE
:400E80000346002BFAD0A84B1B78722B03D0A64B1B78522B11D1A54800F082FA3B461846FFF742FB3B461846FFF772FB00BF01F05FFD0346002BFAD0B3E19B4B1B78772B75
:400EC00003D0994B1B78572B1AD1994B1B88002B03D1984800F064FAA3E1974800F060FA934B1B881846FFF739FC0346012B03D1924800F055FA94E1914800F051FA90E174
:400F0000894B1B78742B03D0874B1B78542B25D1874B1B88002B03D1864800F041FA80E1834B1B88062B08D1864800F039FA00F079FA854800F034FA73E17D4B1B88072B85
:400F400008D1824800F02CFA00F01CFD804800F027FA66E17F4800F023FA62E1724B1B78622B03D0704B1B78422B59D1704B1B88002B03D16F4800F013FA52E16C4B1B8845
:400F8000022B08D1744800F00BFAFFF7E1F8734800F006FA45E1664B1B88052B08D1704800F0FEF9FFF7FCFD6E4800F0F9F938E15F4B1B88042B08D16B4800F0F1F9FFF766
:400FC000EBFC6A4800F0ECF92BE1594B1B88012B08D1674800F0E4F9FFF7BAF8654800F0DFF91EE1524B1B88062B08D1624800F0D7F900F0CBFA614800F0D2F911E14C4B3D
:401000001B88072B08D15E4800F0CAF900F0BAFC5A4800F0C5F904E14E4800F0C1F900E1414B1B78642B03D03F4B1B78442B59D13F4B1B88002B03D13E4800F0B1F9F0E05A
:401040003B4B1B88022B08D14E4800F0A9F900F09FFB4D4800F0A4F9E3E0354B1B88052B08D14A4800F09CF900F086FB484800F097F9D6E02E4B1B88042B08D1454800F08F
:401080008FF900F07FFB444800F08AF9C9E0284B1B88012B08D1414800F082F900F066FB3F4800F07DF9BCE0214B1B88062B08D13C4800F075F900F0C1FB3B4800F070F92A
:4010C000AFE01B4B1B88072B08D1384800F068F900F048FD364800F063F9A2E01D4800F05FF99EE0104B1B78312B06D1104B01221A80304800F054F993E00B4B1B78322B29
:4011000006D10B4B03221A802B4800F049F988E0054B1B78332B53D1054B02221A80274800F03EF97DE000BF90C1FF1FFC6B00007CC1FF1F146C0000346C00004C6C000088
:40114000686C0000A06C0000CC6C0000F46C00001C6D0000406D00005C6D00009C6D0000DC6D0000186E0000546E00008C6E0000C06E0000F86E0000306F0000606F000062
:40118000806F0000B86F0000E06F000014700000387000006870000088700000B4700000D47000000071000024710000507100007071000098710000B4710000CC71000053
:4011C0001B4B1B78342B06D11A4B04221A801A4800F0E6F825E0164B1B78352B06D1154B05221A80154800F0DBF81AE0104B1B78362B06D10F4B06221A80114800F0D0F8AD
:401200000FE00B4B1B78372B06D10A4B07221A800C4800F0C5F804E00B4800F0C1F8FFF7DFFD00F013F800BF07F58077BD4680BD90C1FF1F7CC1FF1FF07100000C7200003C
:401240002C720000487200006472000080B400AF064B00221A70064B00221A70054B00221A7000BFBD4680BC704700BF8CC1FF1F90C1FF1F8DC1FF1F80B598B000AF034638
:401280003960FB8000233B73002387F85F3074E097F85F303A6813441B780A2B06D097F85F303A6813441B780D2B06D1384B01221A70384800F074F85AE097F85F303A6850
:4012C00013441B787F2B35D097F85F304F2B31D8314B1B78194697F85F303A6813441A782E4B5A542C4B1B780133DAB22A4B1A70FB8807F160021344002203F8542C97F84D
:401300005F3097F85F2039680A44127807F160010B4403F8542C97F85F30013307F160021344002203F8542C07F10C03184600F037F81DE0184B1B78002B19D097F85F302B
:401340003A6813441B787F2B12D1134B1B78013BDAB2114B1A7008233B7320237B730823BB730023FB7307F10C03184600F018F897F85F30013387F85F3097F85F309BB291
:40138000FA889A4284D800BF6037BD4680BD00BF8DC1FF1F807200008CC1FF1F90C1FF1F80B582B000AF7860786804F09CFE03469BB21946786801F093FA00BF01F0D8FAB5
:4013C0000346002BFAD000BF0837BD4680BD00BF80B582B000AF7123BB7104F0D3F80023FB7118E0FB7943F00403DBB23B71391DB8790023012204F0DFFA00BF04F04AFD1B
:40140000034603F00203002BF8D0202000F074F9FB790133FB71FB79032BE3D900BF0837BD4680BD80B582B000AF7123FB712023BB71FFF7CDFF4E48FFF7B2FF4D48FFF71C
:40144000AFFF87E03946F8790023012204F044FB00BF04F01FFD034603F00103002BF8D03B781B097B717B7903F00103002B17D04148FFF795FF04233B703946F879002334
:40148000012204F099FA00BF04F004FD034603F00203002BF8D0BB790821184600F0CAF87B7903F00203002B17D005233B703946F8790023012204F07FFA00BF04F0EAFC20
:4014C000034603F00203002BF8D02C48FFF768FFBB790821184600F0ADF87B7903F00403002B17D006233B703946F8790023012204F062FA00BF04F0CDFC034603F0020380
:40150000002BF8D01E48FFF74BFFBB790821184600F090F87B7903F00803002B17D007233B703946F8790023012204F045FA00BF04F0B0FC034603F00203002BF8D01148B1
:40154000FFF72EFFBB790821184600F073F8C82003F0E2FB01F0FAF90346002B3FF472AF0948FFF71DFF00BF0837BD4680BD00BF84720000A4720000BC720000C4720000FE
:40158000CC720000D4720000DC72000080B582B000AF7123BB7120237B71FFF719FF2448FFF7FEFE0023FB713AE0FB7943F00403DBB23B703946B8790023012204F0FCF97A
:4015C00000BF04F067FC034603F00203002BF8D07B790121184600F07DF8C82003F09CFB7B790221184600F075F8C82003F094FB7B790421184600F06DF8C82003F08CFBEC
:401600007B790821184600F065F8C82003F084FB7B790021184600F05DF8FB790133FB71FB79032BC1D900BF0837BD4680BD00BF8472000080B584B000AF03460A46FB7170
:401640001346BB7104F04CFC0021202004F0D6FABB79184604F076FB04F03CFBFB790121184604F0CBFA002004F0BCFB0346FB7304F030FB04F034FCFB7B18461037BD46D2
:4016800080BD00BF80B582B000AF0346FB710B46BB7113467B7104F023FC0D4ABB7913700B4A7B795370F87900230222084904F083F900BF04F0EEFB034603F00203002BF3
:4016C000F8D004F00DFC00BF0837BD4680BD00BFE0C1FF1F80B582B000AF03460A46FB711346BB71BA79FB790A211846FFF7CAFF00BF0837BD4680BD80B582B000AF03463D
:40170000FB7103F03FFFFB79F02200211846FFF7B9FFFB79002209211846FFF7B3FFFB79002204211846FFF7ADFFFB79002205211846FFF7A7FFFB79F02201211846FFF726
:40174000A1FFFB79F02202211846FFF79BFFFB79F02206211846FFF795FFFB7908211846FFF768FF00BF0837BD4680BD80B400AF00BFBD4680BC704780B400AF00BFBD46CA
:4017800080BC704780B400AF00BFBD4680BC704780B400AF00BFBD4680BC704780B584B000AF03460A46FB711346BB7104F098FB0021202004F022FABB79184604F0C2FA2A
:4017C00004F088FAFB790121184604F017FA002004F008FB0346FB7304F07CFA04F080FBFB7B18461037BD4680BD00BF80B582B000AF0346FB710B46BB7113467B7104F038
:401800006FFB0D4ABB7913700B4A7B795370F87900230222084904F0CFF800BF04F03AFB034603F00203002BF8D004F059FB00BF0837BD4680BD00BFE0C1FF1FB0B598B093
:4018400000AF4648FFF7ACFD712387F85D30012387F85E304248FFF7A3FD03F093FE4148FFF79EFD002387F85F3064E007F10C033D4A1C4615460FCD0FC495E8070003C443
:40188000227097F85F303033DBB23B7200237B7207F1080207F10C031146184604F014FC07F10C03184604F01EFC03461A4607F10C0313442D4A1188927819809A7007F1DA
:4018C0000C031846FFF76CFD97F85F3043F00403DBB23B71391D97F85D000023012204F06BF800BF04F0D6FA034603F00203002BF8D01F48FFF754FDF02200212020FFF7DE
:4019000075FF00212020FFF749FF034687F85C3097F85C30F02B03D11648FFF741FD05E01548FFF73DFD002387F85E3097F85F30013387F85F3097F85F30032B96D997F858
:401940005E30012B03D10D48FFF72AFD02E00C48FFF726FD00BF6037BD46B0BDF87200000873000024730000407300005C730000607300007473000080730000A073000094
:40198000B473000080B500AFFFF760FC0C210C20FEF700FD0C210B20FEF7FCFC0C210E20FEF7F8FC0C210F20FEF7F4FC0C210820FEF7F0FC0C210720FEF7ECFC0C210520FC
:4019C000FEF7E8FC01210C20FEF7E4FC01210B20FEF7E0FC01210E20FEF7DCFC00210F20FEF7D8FC00210820FEF7D4FC00210720FEF7D0FC00210520FEF7CCFC00210F202D
:401A0000FEF7C8FC00210820FEF7C4FC00210720FEF7C0FC00210520FEF7BCFC4FF4FA7003F07AF901210820FEF7B4FC00210720FEF7B0FC00210520FEF7ACFC4FF4FA7088
:401A400003F06AF900210820FEF7A4FC01210720FEF7A0FC00210520FEF79CFC4FF4FA7003F05AF901210820FEF794FC01210720FEF790FC00210520FEF78CFC4FF4FA7089
:401A800003F04AF900210820FEF784FC00210720FEF780FC01210520FEF77CFC4FF4FA7003F03AF901210820FEF774FC00210720FEF770FC01210520FEF76CFC4FF4FA7049
:401AC00003F02AF900210820FEF764FC01210720FEF760FC01210520FEF75CFC4FF4FA7003F01AF901210820FEF754FC01210720FEF750FC01210520FEF74CFC4FF4FA7007
:401B000003F00AF901210F20FEF744FC00210C20FEF740FC4FF4FA7003F0FEF801210C20FEF738FC00210B20FEF734FC4FF4FA7003F0F2F801210B20FEF72CFC00210E20EA
:401B4000FEF728FC4FF4FA7003F0E6F801210E20FEF720FC00F0FAFE0346002B00D14DE700BF80BD80B400AF00BFBD4680BC704780B582B000AF786039603A68002178684E
:401B800004F075FA00BF0837BD4680BD80B584B000AFF860B9607A607A68B968F86804F05BFA00BF1037BD4680BD00BF80B584B000AFF860B9607A607A68B968F86804F0B6
:401BC0004BFA00BF1037BD4680BD00BF80B483B000AF0346FB71FEE780B487B000AF7860396000233B6100237B6127E07B699B007A6813441B68BB60BB68FB73BB6823F07E
:401C0000FF03BB6014E03B695B003A6813441B781A46BB68134419463B695B003A6813445B780B703B6901333B61FB7B013BFB73FB7B002BE7D17B6901337B617B691E2B7B
:401C4000D4D900BF1C37BD4680BC704780B582B000AF364B09221A80354B18221A70354B4FF6FF721A80344B1B221A70042233493348FFF79BFF334B06221A70324B52222B
:401C80001A70324B324A1278D2B21A70314B40F618021A80304B41F251221A800023FB7019237B6014E0FB785B00DAB22B4B1B78DBB203F00103DBB21343DBB203F00303FF
:401CC000FB704FF4F07004F027F97B68013B7B607B68002B02D0FB78032BE4D17B68002B02D10320FFF772FF1D4B4FF480721A801B4B07221A701B4B00221A701A4B4822F6
:401D00001A70174B00221A70184B00221A70184B02221A70174A174B1B78DBB243F00303DBB2137000BF0837BD4680BD80400040824000408440004086400040D073000032
:401D4000004100400043004000420040A14600400F0100492242004020420040254200400440004006400040084000400940004001400040A243004080B483B000AF0B4B43
:401D80001B78FB710A4AFB7903F00703DBB21370084AFB791B09DBB21370074B44221A7000BF0C37BD4680BC704700BFCF0100496E5800406F5800407658004080B582B0C1
:401DC00000AF72B63D4B60221A70FFF73FFF3B4B00221A700023FB7113E0FA7913465B0013445B00364A13443B603B681A683B689B889BB219461046FFF7BAFEFB79013302
:401E0000FB71FB79062BE8D92E492F48FFF7E4FE2E4A2E4B1B78DBB243F00203DBB213702B4A2B4B1B78DBB243F00203DBB21370284A284B1B78DBB243F04003DBB21370D3
:401E4000254A254B1B78DBB243F01003DBB21370082222492248FFF7A9FE0A2221492248FFF7A4FE0A2221492148FFF79FFE082220492148FFF79AFE082220492048FFF7CC
:401E800095FE08221F492048FFF790FE08221F491F48FFF78BFE1F4A1E4B1B78DBB243F00803DBB21370FFF767FF0E2209491A48FFF76CFE00BF0837BD4680BD00480040F3
:401EC000D47300007C740000007400000350014013500140A0430040C2430040147A0000025100401C7A0000C0510040287A0000F0510040347A0000125100403C7A000065
:401F000022510040447A0000525100404C7A00006251004022430040B043004080B500AF04F06EF803461B680C2B00D1FEE7FEE780B584B000AF78600F4B1A687B681344DA
:401F40001A460E4BD31A802B09DC0B4B1B68FB60094B1A687B681344074A136007E004F04FF802460C2313604FF0FF33FB60FB6818461037BD4680BDCCC0FF1FF0C2FF1F89
:401F800080B586B000AF224B7B61224B3B61204B7B6135E03B691B68FB603B695B68BB603B699B683B6000237B600CE0FB681A68BB681A60BB680433BB60FB680433FB603D
:401FC0007B6804337B607A683B689A42EED13B69DB683B6000237B6008E0BB6800221A60BB680433BB607B6804337B607A683B689A42F2D13B6910333B617B69013B7B6198
:402000007B69002BC6D104F001F8FEF73BF8FEE701000000987C000080B582B000AF184B184A1A60184A184B1B6843F40073136000237B600FE07B68032B04D8134A7B6817
:4020400052F8233000E0124B12497A6841F822307B6801337B607B682F2BECD90E4B1B78DAB20E4B1A700E4B0A4A1A60FFF7A6FE0C4B00221A6000BF0837BD4680BD00BFBE
:402080000CED00E00004FA0514ED00E0000000001D1F000000C0FF1FBC760040C4C0FF1F08ED00E0C0C0FF1F80B582B000AF03460A46FB711346BB71094B1B78002B04D13B
:4020C00000F010F8064B01221A70BA79FB791146184600F0D9F800BF0837BD4680BD00BF7EC1FF1F80B582B000AF03F034FF0346FB71544A534B1B78DBB243F00103DBB262
:402100001370514A504B1B78DBB243F00103DBB213704E4B01221A704D4B02221A704D4A4C4B1B78DBB203F07F03DBB21370002002F014FE484A484B1B78DBB223F006039B
:40214000DBB21370454A454B1B78DBB223F02003DBB21370404A404B1B78DBB243F00103DBB21370012002F0F9FD282002F0F6FD3B4A3B4B1B78DBB203F07F03DBB2137068
:40218000374A374B1B78DBB223F04003DBB21370314A314B1B78DBB243F00203DBB21370022002F0DBFD2C4A2B4B1B78DBB243F00403DBB213702B4B00221A702A4B00223C
:4021C0001A70FB79184603F0CAFE0721172002F001FE2649172002F0D5FD0721182002F0F9FD2349182002F0CDFD0721152002F0F1FD2049152002F0C5FD0721012002F09C
:40220000E9FD1D49012002F0BDFD0721022002F0E1FD1A49022002F0B5FD0721032002F0D9FD1749032002F0ADFD07210C2002F0D1FD14490C2002F0A5FD00BF0837BD46DE
:4022400080BD00BFA5430040B54300409D60004009600040106000409443004012600040F8510040846000408560004089310000712A00007D31000095300000DD300000FC
:40228000293100005135000080B584B000AF03460A46FB711346BB710023FB7306E0FB7B334A0121D154FB7B0133FB73FB7B012BF5D9304AFB7913702F4B00221A702F4B52
:4022C00000221A702E4B00221A702E4B00221A702D4B00221A702D4B00221A702C4B00221A702C4B4FF400021A602A4B4FF080721A60284B4FF400121A60264B02221A60D6
:40230000244B04221A60234B08221A60BB79002B02D0012B09D011E01F4A1F4B1B78DBB223F00103DBB2137011E01B4A1A4B1B78DBB243F00103DBB2137008E0164A164B70
:402340001B78DBB243F00103DBB2137000BF134B03221A70124B80221A70012003F0DCFD104B04221A7000BF1037BD4680BD00BF98C2FF1FFDC1FF1F00C2FF1F1CC2FF1F74
:402380001FC2FF1F14C2FF1F1EC2FF1F21C2FF1FFCC1FF1F00E100E00960004028600040086000401260004080B483B000AF0023FB7106E0FB79144A0121D154FB79013378
:4023C000FB71FB79012BF5D9104B00221A70104B00221A700F4B00221A700F4B00221A700E4B00221A700E4B00221A700D4B00221A700D4B03221A700C4B80221A7000BF92
:402400000C37BD4680BC704798C2FF1F00C2FF1F1CC2FF1F1FC2FF1F14C2FF1F1EC2FF1F21C2FF1FFCC1FF1F286000400860004080B400AF034B1B78DBB21846BD4680BCE4
:40244000704700BF1FC2FF1F80B483B000AF0023FB71084B1B78DBB2002B05D0054B1B78FB71044B00221A70FB7918460C37BD4680BC70471CC2FF1F80B483B000AF03461F
:40248000FB71FA79064913465B0013449B000B4401331B78DBB218460C37BD4680BC704724C2FF1F80B485B000AF0346FB710023FB81FB79002B1CD0FB79082B19D8104A21
:4024C000FB791B0113441B78DBB29BB203F00F03FB81FB891B029AB20949FB791B010B4401331B78DBB29BB21343FB81FB89023BFB81FB8918461437BD4680BC704700BF57
:40250000FC5F0040B0B485B000AF03463960FB711346BB80FB79002B6DD0FB79082B6AD8B988FA79364813465B0013449B00034406331B889BB2C3F5007399420CD9FA796B
:402540002F4913465B0013449B000B4406331B889BB2C3F50073BB802A4CF979BB881B0A9BB2D8B2FA79264D13465B0013449B002B4403331B78DBB20343DAB20B012344A2
:402580001A70204AFB79B988C9B21B01134401330A461A703B68002B13D00023FB810CE01948FB79FA8939680A4412781B01034408331A70FB890133FB81FA89BB889A426B
:4025C000EED3FA790E4913465B0013449B000B44013300221A700B48F979FA79084C13465B0013449B00234405331B78DAB20B01034402331A7000BF1437BD46B0BC704749
:4026000024C2FF1FFC5F00407060004080B584B000AF03463960FB711346BB803B68002B30D0FB79002B2DD0FB79082B2AD8FB791846FFF737FF03461A46BB88934205D941
:40264000FB791846FFF72EFF034600E0BB88BB800023FB810DE0FB893A6813440D49FA7912010A4408321278D2B21A70FB890133FB81FA89BB889A42EDD3FB79184600F061
:402680000BF801E00023BB80BB8818461037BD4680BD00BF7060004090B482B000AF0346FB71FB79002B1CD0FB79082B19D8FA790E4913465B0013449B000B4401330022CF
:4026C0001A700B48F979FA79084C13465B0013449B00234405331B78DAB20B01034402331A7000BF0837BD4690BC704724C2FF1FFC5F004080B582B000AF0023FB71314B8A
:402700001B79DBB2184600F067F80346BB712D4B1B78DBB25BB2002B15DA2A4B5B78DBB2212B00D048E0284B07221A80BA791346DB009B1A254A1344234A536000F012FB49
:402740000346FB7138E01F4B5B78DBB2202B02D0222B1AD030E01C4B07221A80BA791346DB009B1A194A1344174A5360BB79BA7917498A5CD2B242F00102D1B2144AD154DE
:4027800000F06EFB0346FB7116E0BB790D4A9278D2B291B20F4A22F81310BB79BA790C498A5CD2B242F00202D1B2094AD15400F0F5FB0346FB7100BFFB7918460837BD4664
:4027C00080BD00BF0060004008C2FF1FD0C0FF1FE4C1FF1FF8C1FF1F80B485B000AF0346FB710023FB73FF23BB7317E0FB7B104AD35C7B737A7B0F4913465B0013449B0088
:402800000B440A331B78DBB2FA799A4203D1FB7BBB730223FB73FB7B0133FB73FB7B012BE4D9BB7B18461437BD4680BC704700BFECC1FF1F24C2FF1F80B582B000AF00237F
:40284000BB71224B00221A70214B00221A70204B00225A700023FB7110E0FB791D4AD35C7B717B79002B06D07B79082B03D87B791846FFF711FFFB790133FB71FB79012B2C
:40288000EBD9154B1B78DBB2002B18D0114B1B78DBB2002B13D0114B1B78DBB2002B0ED00D4B1B78DBB2082B09D80A4B1B78DBB2082B04D8094B1B78DBB2082B01D90123FD
:4028C000BB71BB7918460837BD4680BD7FC1FF1FE4C1FF1FF0C1FF1FE8C1FF1FECC1FF1F80B584B000AF78600B467B80144B1B781A46144B9B5CFB73FA7B134913465B0042
:4029000013449B000B4408331B889BB27A889A420CD9FA7B0C4913465B0013449B000B4408331B887B80002002F0EAF97A88FB7B79681846FFF7E6FD00BF1037BD4680BD05
:402940007FC1FF1FE8C1FF1F24C2FF1F80B500AF054B1B781A46054B9B5CDBB21846FFF78BFD0346184680BD7FC1FF1FF0C1FF1F80B500AF054B1B781A46054B9B5CDBB24B
:402980001846FFF779FD0346184680BD7FC1FF1FE8C1FF1F80B584B000AF78600D4B1B781A460D4B9B5CFB73FA7B0C4913465B0013449B000B4408331B889AB2FB7B79680C
:4029C0001846FFF723FE0346BB81BB8918461037BD4680BD7FC1FF1FF0C1FF1F24C2FF1F80B485B000AF78600B46FB701346BB707B68DB7803F00303FB737B689B785BB2B3
:402A0000002B1ADAFB7B032B0AD0BB7803F001031449FA78CA54BB7843F00103BB701BE0BB789B08DBB203F001030F49FA78CA54BB7843F00403BB700EE0FB7B032B0BD00B
:402A4000BB785B08DBB203F001030849FA78CA54BB7843F00203BB70BB7818461437BD4680BC7047E8C1FF1FECC1FF1FF0C1FF1F80B582B000AF374B1B78BB71BB7903F014
:402A80001003002B62D00123FB7197F90630002B12DABB7903F00F03012B02D00023FB711CE000F061F82C4B1B78DBB25BB2002B14DA0023FB7111E0BB7903F04003002B5C
:402AC00002D000F095F809E0BB7903F02003002B02D000F0B3F801E00023FB71FB79002B34D01C4B1B78BB7197F90630002B2DDB1A4B1B78DAB21A4B1B78DBB21343BB71FF
:402B0000184ABB791370174B1B78DBB2BA799A421CD1114B1B78FB710E4B1B78DBB223F07F03BB71BB79002B0AD10A4B0A4A1278D2B21A70074B1B78DBB203F00F03FB710B
:402B4000054B1B78DBB2FA799A42E2D100BF0837BD4680BD286000401DC2FF1F92C2FF1F20C2FF1F2960004080B582B000AF1D4B1B78FB711B4AFB7913701A4B1B78FB7168
:402B800097F90730002B03DA174AFB79137025E0022000F045FA154B1B78DBB203F06003202B08D0402B0BD0002B0ED100F0D6FC0346FB710CE003F0D9F90346FB7107E08B
:402BC00001F0DEFC0346FB7102E00023FB7100BFFB79002B02D1044B03221A7000BF0837BD4680BD286000401DC2FF1F0060004080B500AF104B1B78DBB2062B19D801A2EE
:402C000052F823F0332C0000332C0000212C0000332C0000272C0000332C00002D2C000000F0F8F806E000F0A7F903E000F0D2F900E000BF00BF80BD00C2FF1F80B500AF6F
:402C4000124B1B78DBB2062B1DD801A252F823F0872C0000872C00006D2C0000872C0000732C0000872C0000792C000000F0D8F80AE000F027F907E0032000F0D1F9044B3B
:402C800003221A7000E000BF00BF80BD00C2FF1F1DC2FF1F80B483B000AF0023FB71294B1B78DBB29AB2284B1B889BB213449AB2254B1A8015E02549FB79254A52681278CE
:402CC000D2B2CA54224B5B680133214A5360FB790133FB711E4B1B889BB2013B9AB21C4B1A801B4B1B889BB2002B02D0FB79072BE1D9144B1B78DBB2082B02D0FB79002BE4
:402D00000FD0144B1B78DBB283F07F03DB43DAB2104B1A70104B0F221A70104B02221A7005E00D4B02221A700C4B02221A700C4AFB791370034AFB79137000BF0C37BD460C
:402D400080BC7047FCC1FF1FFEC1FF1F0060004008C2FF1F92C2FF1F1DC2FF1F00C2FF1F20C2FF1F80B582B000AF164B1B889BB2002B02D100F02EF81EE0134B02221A704C
:402D8000124B00221A7000F06BF9114BDB79DBB29BB21B029AB20E4B9B79DBB29BB21343FB80084B1B889BB2FA889A4202D2054AFB881380FFF76EFF012318460837BD46AA
:402DC00080BD00BF08C2FF1F00C2FF1F92C2FF1F0060004080B400AF094B02221A70094B80221A70084B0F221A70084B00221A70074B00221A7001231846BD4680BC704715
:402E000000C2FF1F92C2FF1F1DC2FF1FFCC1FF1F20C2FF1F80B500AFFFF73CFF00BF80BD80B500AF0A4B1B78DBB29AB2094B1B889BB213449AB2074B1A80074B00221A70E1
:402E4000012000F0EDF8054B03221A7000BF80BDFCC1FF1FFEC1FF1F00C2FF1F1DC2FF1F80B582B000AF124B04221A70114B80221A7000F0F5F8104BDB79DBB29BB21B029E
:402E80009AB20D4B9B79DBB29BB21343FB800B4B1B889BB2FA889A4202D2084AFB881380074B0B221A70012318460837BD4680BD00C2FF1F92C2FF1F0060004008C2FF1FEB
:402EC0001DC2FF1F80B483B000AF0023BB71234B1B78DBB203F00F03DBB2023BFB71FB799AB21F4B1B889BB213449AB21C4B1A8018E01C4B5B681C49BA798A5CD2B21A703B
:402F0000184B5B680133174A5360BB790133BB71FB79013BFB71134B1B889BB2013B9AB2104B1A800F4B1B889BB2002B02D0FB79002BDED10D4AFB7913700D4B1B78DBB24D
:402F400083F07F03DB43DAB2094B1A70094B0B221A7000BF0C37BD4680BC704729600040FEC1FF1F08C2FF1F0060004020C2FF1F92C2FF1F1DC2FF1F80B500AF054B0022DE
:402F80001A70012000F04CF8034B03221A7000BF80BD00BF00C2FF1F1DC2FF1F80B400AF084B06221A70084B06221A70074B80221A70074B00221A7001231846BD4680BC73
:402FC000704700BF00C2FF1F1DC2FF1F92C2FF1F20C2FF1F80B500AF0D4B1B78DBB2002B0AD00C4A0A4B1B78DBB263F07F03DBB21370074B00221A70074B00221A700120DE
:4030000000F00EF8054B03221A7000BF80BD00BF1EC2FF1F0860004000C2FF1F1DC2FF1F80B483B000AF0346FB710B4B9B68002B0CD0094B9B68FA791A70074B9B68074A38
:40304000128892B25A80044B00229A6000BF0C37BD4680BC704700BF08C2FF1FFEC1FF1F80B400AF094B00221A80094B9B68002B07D0074B9B6800221A70054B9B680022EF
:403080005A8000BFBD4680BC704700BFFEC1FF1F08C2FF1F80B400AF0D4B01221A700D4B9B7C0D4B1B7BDBB203F00303012B08D0094BDB7BDBB283F07F03DB43DAB2064B07
:4030C000DA73054B01225A7300BFBD4680BC70470B600040FC5F004024C2FF1F80B400AF0E4B02221A700E4B93F822300D4B1B7EDBB203F00303012B08D00A4BDB7EDBB26E
:4031000083F07F03DB43DAB2064BDA76054B01225A7600BFBD4680BC704700BF0B600040FC5F004024C2FF1F80B400AF104B04221A70104B93F832300F4B93F82430DBB252
:4031400003F00303012B0AD00B4B93F82730DBB283F07F03DB43DAB2074B83F82720064B012283F8252000BFBD4680BC704700BF0B600040FC5F004024C2FF1F80B400AF03
:4031800000BFBD4680BC704780B500AFFFF70CF900BF80BD80B582B000AF0023FB71714B1B79BB716F4B1B78DBB25BB2002B6CDA6C4B5B78DBB2013B052B00F2BE8001A2B0
:4031C00052F823F027320000413200006B3200003B3300003B330000DD310000614BDB78DBB2212B0CD100F0C7F85F4B1B889BB2002B00F0A480FFF7B5FD0346FB719EE007
:40320000584BDB78DBB2222B40F0998000F0F2F8554B1B889BB2002B00F09180FFF7A2FD0346FB718BE000F02DF94F4B1B889BB2002B00F08680FFF795FD0346FB7180E0CC
:40324000BB79012B7FD8474B9B78DBB2002B7AD1454B01221A80BB79444A1344424A5360FFF780FD0346FB716DE0BB79012B6CD83D4B01221A80BB793D4A13443A4A5360A3
:40328000FFF770FD0346FB715FE0364B5B78DBB20A2B10D00B2B3DD0092B00D05CE000F0F1F8314B1B889BB2002B50D0FFF7D8FD0346FB714BE0BB79012B4AD8294B9B78FA
:4032C000DBB2002B45D1BB79264AD278D1B2274AD154BB79254AD35CDAB2BB792549CB5CDBB29A4204D2BB79224A0021D1540CE0BB79204AD35CDBB2012B06D9BB79BA79F5
:403300001A498A5CD1B21B4AD154FFF747FE0346FB711EE0BB79012B1DD8124B9B78DBB2012B18D8BB790F4A9278D1B2104AD154FFF734FE0346FB710DE000BF0CE000BF0E
:403340000AE000BF08E000BF06E000BF04E000BF02E000BF00E000BFFB7918460837BD4680BD00BF0060004008C2FF1FA0C2FF1F98C2FF1F9CC2FF1F80B584B000AF194BED
:403380001B78DBB2013BDBB2184600F041FFF860154B1B79FB72FB7A0233DB00FA681344FB60FB685B68FB60FB7A104AD35CDBB2DB00FA681344FB60FB685B68FB60FB6865
:4033C0002033FB60FB685B687B607B681B78DBB29AB2074B1A80064A7B68536000BF1037BD4680BD1FC2FF1F0060004090C2FF1F08C2FF1F80B584B000AF1E4B1B78DBB21F
:40340000013BDBB2184600F003FFF8601A4B1B79FB72FB7A0233DB00FA681344FB60FB685B68FB60FB7A154AD35CDBB2DB00FA681344FB60FB685B68FB60FB681833FB6092
:40344000FB685B687B607B6801331B78DBB29BB21B029AB27B681B78DBB29BB213439AB2074B1A807B680233054A536000BF1037BD4680BD1FC2FF1F0060004090C2FF1F11
:4034800008C2FF1F80B584B000AF2D4B00221A802C4B1B78DBB2013BDBB2184600F0B8FEF860294BDB78FB72274B1B79BB72BB7A0233DB00FA681344FB60FB685B68FB60DB
:4034C000BB7A012B38D8BB7A204AD35CDBB2DB00FA681344FB60FB685B68FB60FB7A002B2AD0FB7A032B27D8FB7A03F10053013BDB00FA681344FB60134B9B78FB72FB682C
:403500001B78FA7A9A4217D8FB685B687B60FA7A13465B0013449B001A467B6813447B607B685B68064A53607B681A88044B1A807B689B68024A936000BF1037BD4680BDA7
:4035400008C2FF1F1FC2FF1F0060004090C2FF1F80B500AF01F0C4FB00BF80BD80B586B000AF0023FB759D4B1B78FB7100233B619B4B00221A8097F90730002B80F20481E6
:40358000964B5B78DBB20A2B00F21B8201A252F823F000BFDF360000C3390000C3390000C3390000C3390000C3390000C1350000C339000053370000C3390000693700002E
:4035C000864BDB78DBB2012B0ED100F049FEB860BB685B68824A5360814B12221A80FFF7C1FB0346FB75EEE17C4BDB78DBB2022B25D17A4B9B78DBB2184600F009FEB860EB
:40360000BB68002B00F0DF81BB685B68744A5360734B5B6803331B78DBB29BB21B029AB26F4B5B6802331B78DBB29BB213439AB26B4B1A80FFF796FB0346FB75C3E1674B61
:40364000DB78DBB2032B45D10023FB73654B3B6109E03B691B78BB71BB793A6913443B61FB7B0133FB735D4B9B78DBB2FA7B9A4204D23B691B78DBB2002BEAD1574B9B784D
:40368000DBB2EE2B01D1584B3B61544B9B78DBB2002B0BD0514B9B78DAB2544B1B7C9A4204D1534800F0ACF9514B3B613B691B78DBB2002B00F087813B691B78DBB29AB28D
:4036C000474B1A80464A3B695360FFF74BFB0346FB7578E102F04AFC0346FB7573E1FB7903F00303002B20D0022B00D030E03C4B02221A80394B1B79DBB203F07F023D49AB
:4037000013465B0013449B000B4402331B78DAB2394B1A70384B00225A70314B364A5A60FFF720FB0346FB7512E02D4B02221A80324B1B78DAB2304B1A702F4B00225A7014
:40374000274B2D4A5A60FFF70DFB0346FB7500BF40E1234B01221A80214B294A5A60FFF701FB0346FB7535E11D4B01221A801B4B1B79DBB21A46234B1344194A5360FFF7AD
:40378000F1FA0346FB7525E1144B5B78DBB2013B0A2B00F21A8101A252F823F0A7380000CB39000035390000CB390000C9370000CB390000CB390000CB3900000D380000FC
:4037C000CB39000063380000044B9B78DAB20E4B1A70FFF7E3FB0346FB75FBE00060004008C2FF1FC07A0000007C0000687A0000C8C2FF1F24C2FF1F80C1FF1F21C2FF1FC5
:403800001FC2FF1F90C2FF1F1EC2FF1F744B9B787B717B79002B06D07B79013BDBB2184600F0F6FCB8607B79002B02D0BB68002B03D17B79002B40F0CA806A4B1B78DBB2D2
:403840007A799A4208D0674A7B791370664B01221A70012000F0DCF9FFF7A0FB0346FB75B5E000F055FE0346002B00F0B2805C4B1B793B715A4B1B79DAB25C4B1A703B79EC
:403880005B4AD35CDAB23B795A49CB5CDBB29A4204D0554B01221A7000F08CFBFFF77EFB0346FB7595E0FB7903F00303012B20D0012B0CD3022B00D03BE0494B9B78DBB2AC
:4038C000002B31D100F078FD0346FB752CE0444B9B78DBB2012B29D1474B1B78DBB223F00203DAB2444B1A70FFF758FB0346FB751CE03B4B1B79DBB2012B19D8384B9B7855
:40390000DBB2DB43DBB2364A1279D2B2114610463A4A125CD2B21340DAB2384B5A54FFF73DFB0346FB7503E000BF53E000BF51E000BF4FE0FB7903F00303012B20D0012B3E
:403940000CD3022B00D03BE0254B9B78DBB2002B31D100F0BDFC0346FB752CE0204B9B78DBB2012B29D1244B1B78DBB243F00203DAB2214B1A70FFF711FB0346FB751CE074
:40398000174B1B79DBB2012B19D8154B9B78DBB2DB43DBB2124A1279D2B211461046174A125CD2B21340DAB2144B5A54FFF7F6FA0346FB7503E000BF0CE000BF0AE000BFD0
:4039C00008E000BF06E000BF04E000BF02E000BF00E000BFFB7D18461837BD4680BD00BF006000401FC2FF1F1CC2FF1F14C2FF1F04C2FF1F90C2FF1F21C2FF1F94C2FF1F1C
:403A0000B0B58AB000AF7860324B07F114041D460FCD0FC42B682370002387F826307B68002B52D07B6822221A707B68013303221A7007F10C03184601F0F0F9022387F819
:403A400027303EE097F827307A68134497F8262007F128010A4412F81C2C1209D2B207F128010A4412F8142C1A7097F8273001337A68134400221A7097F8273002337A683E
:403A8000134497F8262007F128010A4412F81C2C02F00F0207F128010A4412F8142C1A7097F8273003337A68134400221A7097F82630013387F8263097F82730043387F848
:403AC000273097F82730212BBCD900BF2837BD46B0BD00BF547A000090B482B000AF0123FB7180E0464AFB791B0113440C221A70FA79444913465B0013449B000B4405331C
:403B00001B78DBB2002B1CD0FA793E4913465B0013449B000B4404331B78DBB25BB2002B07DA394AFB791B01134402330C221A700EE0354AFB791B011344023308221A705B
:403B400006E0314AFB791B011344023380221A702B48F979FA792B4C13465B0013449B00234406331B889BB2DAB20B01034406331A702348F979FA79224C13465B0013442C
:403B80009B00234406331B889BB21B0A9BB2DAB20B01034407331A701948F979FA79194C13465B0013449B00234406331B889BB2DAB20B01034404331A701148F979FA7906
:403BC000104C13465B0013449B00234406331B889BB21B0A9BB2DAB20B01034405331A70FB790133FB71FB79082B7FF67BAF074BFF221A7000BF0837BD4690BC704700BF06
:403C00007060004024C2FF1FFC5F00400A60004080B58AB000AF0346FB7100237B84002387F8273050E097F82720B34913465B0013449B000B4400221A7097F82720AE49CD
:403C400013465B0013449B000B44023300221A7097F82720A84913465B0013449B000B44033300221A7097F82720A34913465B0013449B000B44083300221A8097F827204C
:403C80009D4913465B0013449B000B440A3300221A7097F82720984913465B0013449B000B44013300221A7097F82720924913465B0013449B000B44053300221A7097F89B
:403CC0002730013387F8273097F82730082BAAD9FB79002B16D0002387F825300EE097F82530864A0021D15497F82530844A0021D15497F82530013387F8253097F825309B
:403D0000012BECD97F4B1B78DBB2002B00F04A810023FB767B4B1B78DBB2013BDBB2184600F076FA78617B695B683B613B6907331B7803F04003002B08D0734B1B78DBB21D
:403D400043F00103DAB2704B1A7007E06E4B1B78DBB223F00103DAB26B4B1A707B6908337B617B691B7887F82730012387F82530B6E07B695B68FB61002387F82630A3E044
:403D800097F82520FB699B7803F07F039A4240F0938097F82520584913465B0013449B000B4408331B889AB2FB699B889A420CD297F82520FB6998884F4913465B00134454
:403DC0009B000B44083302461A80FB691B781A464A4B9B5CDAB2FB695B789A426CD197F82520FB699878444913465B0013449B000B44043302461A7097F82520FB69D878A2
:403E00003D4913465B0013449B000B4402461A70FB69DB7803F00303FB73FB699B785BB2002B1CDA97F82520FB7B012B01D1072000E00D20304913465B0013449B000B4488
:403E4000053302461A7097F825202B4913465B0013449B000B44013301221A701BE097F82520FB7B012B01D1052000E00920224913465B0013449B000B44053302461A703F
:403E800097F825201C4913465B0013449B000B44013300221A70FB699B790A2B03D0FB699B79022B08D1FA7E97F825301946F869FEF796FD0346FB76FB690833FB6197F80E
:403EC0002630013387F8263097F8262097F827309A42FFF455AF97F82530013387F8253097F82530082B7FF644AF7B695B68FB61002387F8253020E024C2FF1F90C2FF1FFC
:403F000004C2FF1F1FC2FF1F21C2FF1FFB699B7803F07F02FB691878244913465B0013449B000B440A3302461A70FB690833FB6197F82530013387F8253097F8252097F803
:403F400027309A42E2D300F09DF90246184B1A6000237B84012387F827301DE097F82720124913465B0013449B000B4406337A8C1A8097F827200D4913465B0013449B00C4
:403F80000B4408331B889AB27B8C13447B8497F82730013387F8273097F82730082BDDD9FFF79AFD00BF2837BD4680BD24C2FF1F18C2FF1F90B585B000AF8F4B1B78DBB262
:403FC000002B00F015818C4B1B78DBB2013BDBB2184600F01DF978607B6808337B607B681B78FB707B685B68BB60844B1B78BB700023FB73F7E0BB681B78BA789A4240F090
:40400000EC80BB787E4AD35CDAB2BB685B789A4240F0E380BB689B7803F07F037B70BB68DB7803F003033B707A78764913465B0013449B000B44033300221A707A78BB68AC
:404040009878704913465B0013449B000B44043302461A707A78BB68D8786A4913465B0013449B000B4402461A707A78BB689888644913465B0013449B000B440833024640
:404080001A80BB689B785BB2002B1ADA7A783B78012B01D1072000E00D205A4913465B0013449B000B44053302461A707A78554913465B0013449B000B44013301221A7025
:4040C00019E07A783B78012B01D1052000E009204C4913465B0013449B000B44053302461A707A78474913465B0013449B000B44013300221A70444A7B781B0113440233E2
:4041000001221A70404879787A783E4C13465B0013449B00234408331B889BB21B0A9BB2DAB20B0103441A70374879787A78354C13465B0013449B00234408331B889BB2AF
:40414000DAB20B01034401331A70304879787A782C4C13465B0013449B00234406331B889BB2DAB20B01034406331A70274879787A78244C13465B0013449B0023440633EF
:404180001B889BB21B0A9BB2DAB20B01034407331A701E4879787A781A4C13465B0013449B00234406331B889BB2DAB20B01034404331A70154879787A78124C13465B0023
:4041C00013449B00234406331B889BB21B0A9BB2DAB20B01034405331A70BB680833BB60FB7B0133FB73FA7BFB789A42FFF403AF00BF1437BD4690BD1FC2FF1F14C2FF1FE3
:4042000090C2FF1F24C2FF1FFC5F00407060004080B485B000AF0346FB710F4B1B78DBB20E4ADB0013445B68FB60FB681033FB60FB681B78FA799A4202D30023FB6005E0F2
:40424000FB79DB00FA6813445B68FB60FB6818461437BD4680BC7047FDC1FF1FF87B000080B400AF054B1B78DBB2054ADB0013445B681846BD4680BC704700BFFDC1FF1F41
:40428000F87B000080B584B000AF104B1B78DBB2013BDBB21846FFF7BBFFB860BB68002B0DD0BB685B681B79FB71FB790233DB00BA681344BB60BB685B68FB6001E000239B
:4042C000FB60FB6818461037BD4680BD1FC2FF1F80B582B000AF0023FB71344B1B79DBB203F07F03BB71BB79002B5AD0BB79082B57D8BA79B9792E480B465B000B449B00A6
:40430000034402331B78DBB243F00103D8B2284913465B0013449B000B44023302461A70BA79234913465B0013449B000B44033300221A70BA79B9791D480B465B000B4478
:404340009B00034401331B78DBB243F00203D8B2174913465B0013449B000B44013302461A70BA79124913465B0013449B000B4404331B78DBB25BB2002B07DA0D4ABB796C
:404380001B01134402338D221A7006E0094ABB791B011344023389221A70FEF7FFFD0346FB71FB7918460837BD4680BD0060004024C2FF1FFC5F004080B582B000AF002363
:4043C000FB71504B1B79DBB203F07F03BB71BB79002B00F09280BB79082B00F28E80BA79B97949480B465B000B449B00034402331B78DBB223F00103D8B2434913465B0023
:4044000013449B000B44023302461A70BA793E4913465B0013449B000B44033300221A703A49BB793948BA79120102441278D2B202F07F02D2B21B010B441A70BA79B97980
:4044400031480B465B000B449B00034401331B78DBB223F00203D8B22B4913465B0013449B000B44013302461A70BA79264913465B0013449B000B4404331B78DBB25BB286
:40448000002B1BDABA79204913465B0013449B000B4401331B78DBB2012B07D11B4ABB791B01134402330C221A7022E0174ABB791B01134402330D221A701AE0BA7912497A
:4044C00013465B0013449B000B4401331B78DBB2012B07D10D4ABB791B011344023308221A7006E0094ABB791B011344023309221A70FEF753FD0346FB71FB7918460837B3
:40450000BD4680BD0060004024C2FF1FFC5F004080B584B000AF0023FB73154B1B79BB73144B1B78DBB2013BDBB21846FFF770FEB860BB685B681B79FB71BA7BFB799A42A4
:4045400002D9BB7B022B0ED8BB7BBA7B0A498A5CD1B20A4AD154BB7B054A9278D1B2064AD1540123FB73FB7B18461037BD4680BD006000401FC2FF1F90C2FF1F04C2FF1F10
:4045800080B582B000AF0023FB710F4B1B78DBB25BB2002B12DA0C4B5B78DBB2012B00D00CE00A4B0A4A5A60094B1B789AB2074B1A80FEF7D7FB0346FB7100BFFB7918468A
:4045C0000837BD4680BD00BF0060004008C2FF1F147C000080B500AF144B02221A70144B81221A70134B08221A70134B28221A70124B00221A70124B4FF400421A60072117
:404600000F2000F0E7FB0F490F2000F0BBFB0E4B10221A700D4B00221A700D4B00221A700C4B00221A7000BF80BD00BFD6490040C8490040CA490040DB490040DC490040A5
:4046400080E100E0D1460000A2C2FF1FA4C2FF1FB3C2FF1FB2C2FF1F80B582B000AF01F07AFC0346FB710C4A0B4B1B78DBB243F00403DBB21370094A084B1B78DBB243F076
:404680000403DBB21370FB79184601F068FC00BF0837BD4680BD00BFA5430040B543004080B500AF084B1B78002B04D1FFF792FF054B01221A70FFF7CFFF044B4FF4004279
:4046C0001A6000BF80BD00BF82C1FF1F00E100E080B582B000AFA74B1B78FB71A64B1B78DBB203F04003DBB2002B00F0A981FB7903F00103002B00F080819F4B1B78DBB2B2
:40470000453B052B00F2758101A252F823F000BF294700004F480000F3490000F3490000294700003B490000FB7923F02003FB71FB7903F00A03DBB2082B46D18E4B1B78E2
:40474000DBB2452B3AD18D4B1B78DBB2002B0FD08B4A8C4B1B681B78DBB21370854B04221A70894B01221A70834B46221A7044E1864B1B78DBB203F00203002B0FD0844BB5
:404780001B78DBB243F00A03DAB2814B1A707A4B60221A707F4B4FF400421A602DE17E4A7D4B1B78DBB243F01003DBB213707B4B10221A706F4B04221A701EE16D4B002244
:4047C0001A706D4B4A221A7017E1FB7903F00A03DBB20A2B37D16E4B1B78DBB263F05F03DAB26B4B1A70694B1B78DBB203F00203002B19D0604B1B78DBB203F00803002B1D
:4048000001D0092300E00A23DAB2614B1B78DBB21343DAB25E4B1A70574B60221A705D4B4FF400421A60E8E05B4A5B4B1B78DBB243F01003DBB21370584B10221A704D4B2C
:4048400004221A70D9E0002000F05AFAD5E0FB7903F00203002B42D14B4B1B78DAB2474B1B78DBB29A4214D2454A464B1B6846490978C9B20B441B78DBB213703D4B042215
:404880001A70414B1B78DBB20133DAB23E4B1A70B3E03E4B1B78DBB203F00203002B0FD03B4B1B78DBB243F00A03DAB2384B1A70314B60221A70374B4FF400421A609CE0AD
:4048C000354A354B1B78DBB243F01003DBB21370324B10221A70274B04221A708DE02B4B1B78DBB203F00203002B0FD0284B1B78DBB263F06503DAB2254B1A701E4B602224
:404900001A70244B4FF400421A6076E0224A224B1B78DBB243F01003DBB213701F4B10221A70144B04221A70194B1B78DBB263F06F03DAB2164B1A705FE0194B1B68194A5C
:404940001278D2B213440E4A1278D2B21A70154B1B78DBB20133DAB2124B1A70114B1B78DAB2114B1B78DBB29A421FD2014B10221A7042E0D7490040A2C2FF1FB4C2FF1F57
:40498000D8490040A8C2FF1FB2C2FF1FB1C2FF1FA4C2FF1F80E100E0D6490040D9490040ACC2FF1FB3C2FF1FB0C2FF1F2C4B1B78DBB203F00203002B0FD02A4B1B78DBB288
:4049C00043F00903DAB2274B1A70274B60221A70264B4FF400421A600FE0254A244B1B78DBB243F01003DBB21370224B00221A7003E0002000F084F900BFFB7903F02003ED
:404A0000002B28D0184B1B78DBB203F00803002B01D0012300E00223DAB2124B1B78DBB21343DAB20F4B1A70114A114B1B78DBB223F01003DBB213700B4B10221A700AE0D5
:404A4000094B1B78DBB203F01003DBB2002B02D1054B10221A7000BF0837BD4680BD00BFB1C2FF1FA4C2FF1FA2C2FF1F80E100E0D6490040D749004080B485B000AF3960E0
:404A800011461A460346FB710B46BB7113467B710223FB733B68002B56D02E4B1B78DBB2102B0CD12C4B1B78DBB203F00803002B02D10023FB7315E00123FB7312E0254B83
:404AC0001B78DBB2602B0DD10023FB73234B4FF400421A60224B1B78DBB223F00803DAB21F4B1A70FB7B002B2ED11A4B45221A701C4B00221A701C4ABB7913701B4A3B68D6
:404B000013601B4A7B791370154B1B78DBB223F00203DAB2124B1A70164AFB795B00DBB213707B7903F00103002B06D00A4B12221A70114B04221A7002E0074B01221A70F0
:404B40000E4B4FF400421A60FB7B18461437BD4680BC7047A2C2FF1FD949004080E200E0A4C2FF1FB2C2FF1FB4C2FF1FA8C2FF1FB1C2FF1FD8490040D749004000E100E05D
:404B800080B485B000AF396011461A460346FB710B46BB7113467B710223FB733B68002B59D0304B1B78DBB2102B0CD12E4B1B78DBB203F00803002B02D10023FB7315E0BE
:404BC0000123FB7312E0274B1B78DBB2602B0DD10023FB73254B4FF400421A60244B1B78DBB223F00803DAB2214B1A70FB7B002B31D11C4B49221A701E4B00221A701E4A8B
:404C0000BB7913701D4A3B6813601D4A7B791370174B1B78DBB223F00103DAB2144B1A70184AFB795B00DBB243F00103DBB213707B7903F00103002B06D00B4B12221A704F
:404C4000114B04221A7002E0074B01221A700F4B4FF400421A60FB7B18461437BD4680BC704700BFA2C2FF1FD949004080E200E0A4C2FF1FB3C2FF1FB0C2FF1FACC2FF1FC1
:404C8000B1C2FF1FD8490040D749004000E100E080B483B000AF0E4B4FF400421A600D4B1B78FB710C4B1B78DBB203F04003DBB2002B03D0FB7943F00403FB71074B4FF435
:404CC00000421A60FB7918460C37BD4680BC704780E100E0A4C2FF1FA2C2FF1F00E100E080B400AF054B1B78DBB203F040039B09DBB21846BD4680BC704700BF8F45004004
:404D000080B483B000AF0346FB7101BE00BF0C37BD4680BC704700BF80B582B000AF786008E00C4B1B68184601F0F6F87B68A3F500437B607B68B3F5004FF2D8064B1B6834
:404D40007A6802FB03F3184601F0E6F800BF0837BD4680BDF8C0FF1FF0C0FF1F80B582B000AF0346FB80FB88054A127802FB03F3184601F0D1F800BF0837BD4680BD00BF11
:404D8000F4C0FF1F80B584B000AF03463960FB710F4B1B68FB60FB791F2B02D90020FFF7AFFFFB7903F01F0310339B00FA6813441B68BB60FB7903F01F0310339B00FA689F
:404DC00013443A681A60BB6818461037BD4680BD08ED00E080B582B000AF03460A46FB711346BB71BB79072B02D90020FFF788FFFB791F2B02D90020FFF782FFFB7903F04E
:404E00001F0303F1604303F56443BA795201D2B21A7000BF0837BD4680BD00BF80B483B000AF7860264B1B78DBB21A467B681A60244B1B78DBB21B027A6812681A437B6805
:404E40001A60214B1B78DBB21B047A6812681A437B681A601D4B1B78DBB21B067A6812681A437B681A607B680433194A1278D2B21A60184B1B78DBB21A027B680433796899
:404E8000043109680A431A60134B1B78DBB21A047B6804337968043109680A431A600F4B1B78DBB21A067B6804337968043109680A431A6000BF0C37BD4680BC704700BFC8
:404EC0000301004904010049EC460040020100490101004900010049050100490601004980B485B000AF0346FB710B4B1B78DBB223F00203FB730849FB795B00DBB203F0BC
:404F00000203DAB2FB7B1343DBB20B7000BF1437BD4680BC704700BF0051004080B485B000AF0346FB710B4B1B78DBB223F04003FB730849FB799B01DBB203F04003DAB205
:404F4000FB7B1343DBB20B7000BF1437BD4680BC704700BF2051004080B485B000AF0346FB710B4B1B78DBB223F02003FB730849FB795B01DBB203F02003DAB2FB7B1343EA
:404F8000DBB20B7000BF1437BD4680BC704700BF2051004080B485B000AF0346FB71094B1B78DBB203F07F03FB730649FB79DB01DAB2FB7B1343DBB20B7000BF1437BD4649
:404FC00080BC70472051004080B485B000AF0346FB710B4B1B78DBB223F01003FB730849FB791B01DBB203F01003DAB2FB7B1343DBB20B7000BF1437BD4680BC704700BFA3
:405000002051004080B485B000AF0346FB710A4B1B78DBB223F00103FB730749FB7903F00103DAB2FB7B1343DBB20B7000BF1437BD4680BC704700BF0051004080B485B024
:4050400000AF0346FB71094B1B78DBB203F07F03FB730649FB79DB01DAB2FB7B1343DBB20B7000BF1437BD4680BC7047C051004080B485B000AF0346FB710B4B1B78DBB2E2
:4050800023F04003FB730849FB799B01DBB203F04003DAB2FB7B1343DBB20B7000BF1437BD4680BC704700BF5051004080B485B000AF0346FB710B4B1B78DBB223F00803A7
:4050C000FB730849FB79DB00DBB203F00803DAB2FB7B1343DBB20B7000BF1437BD4680BC704700BF2051004080B485B000AF0346FB710B4B1B78DBB223F00403FB7308492B
:40510000FB799B00DBB203F00403DAB2FB7B1343DBB20B7000BF1437BD4680BC704700BF2051004080B485B000AF0346FB710B4B1B78DBB223F00203FB730849FB795B0020
:40514000DBB203F00203DAB2FB7B1343DBB20B7000BF1437BD4680BC704700BF2051004080B485B000AF0346FB710A4B1B78DBB223F00103FB730749FB7903F00103DAB2CC
:40518000FB7B1343DBB20B7000BF1437BD4680BC704700BF2051004080B485B000AF0346FB71094B1B78DBB203F07F03FB730649FB79DB01DAB2FB7B1343DBB20B7000BFC9
:4051C0001437BD4680BC70471051004080B485B000AF0346FB710B4B1B78DBB223F04003FB730849FB799B01DBB203F04003DAB2FB7B1343DBB20B7000BF1437BD4680BCF9
:40520000704700BF1051004080B485B000AF0346FB710B4B1B78DBB223F02003FB730849FB795B01DBB203F02003DAB2FB7B1343DBB20B7000BF1437BD4680BC704700BF8D
:405240001051004080B485B000AF0346FB710B4B1B78DBB223F01003FB730849FB791B01DBB203F01003DAB2FB7B1343DBB20B7000BF1437BD4680BC704700BF1051004082
:4052800080B485B000AF0346FB710B4B1B78DBB223F00803FB730849FB79DB00DBB203F00803DAB2FB7B1343DBB20B7000BF1437BD4680BC704700BF1051004080B485B0CB
:4052C00000AF0346FB710B4B1B78DBB223F00403FB730849FB799B00DBB203F00403DAB2FB7B1343DBB20B7000BF1437BD4680BC704700BF1051004080B485B000AF034644
:40530000FB71094B1B78DBB203F07F03FB730649FB79DB01DAB2FB7B1343DBB20B7000BF1437BD4680BC70475051004080B485B000AF0346FB710B4B1B78DBB223F0400331
:40534000FB730849FB799B01DBB203F04003DAB2FB7B1343DBB20B7000BF1437BD4680BC704700BFC051004080B485B000AF0346FB710B4B1B78DBB223F02003FB730849F3
:40538000FB795B01DBB203F02003DAB2FB7B1343DBB20B7000BF1437BD4680BC704700BF5051004080B485B000AF0346FB710A4B1B78DBB223F00103FB730749FB7903F0FC
:4053C0000103DAB2FB7B1343DBB20B7000BF1437BD4680BC704700BF5051004080B485B000AF0346FB710B4B1B78DBB223F04003FB730849FB799B01DBB203F04003DAB2F2
:40540000FB7B1343DBB20B7000BF1437BD4680BC704700BF6051004080B485B000AF0346FB71094B1B78DBB203F07F03FB730649FB79DB01DAB2FB7B1343DBB20B7000BF06
:405440001437BD4680BC70476051004080B485B000AF0346FB710B4B1B78DBB223F01003FB730849FB791B01DBB203F01003DAB2FB7B1343DBB20B7000BF1437BD4680BC06
:40548000704700BF6051004080B485B000AF0346FB710B4B1B78DBB223F02003FB730849FB795B01DBB203F02003DAB2FB7B1343DBB20B7000BF1437BD4680BC704700BFBB
:4054C0006051004080B582B000AF1B4B00221A701A4B01221A7000F03EFD0346FB71184A174B1B78DBB243F01003DBB21370FB79184600F034FD134B0F221A70124B0822D4
:405500001A70124B01221A6007210020FFF762FC0F490020FFF736FC0E4B10221A700E4B00221A700D4B00221A700D4B00221A7000BF0837BD4680BD766400408464004009
:4055400094640040246500403465004080E100E0B1550000B5C2FF1FBFC2FF1FC1C2FF1FBCC2FF1F80B400AF054A054B1B78DBB243F00203DBB2137000BFBD4680BC7047FA
:405580007664004080B500AF074B1B78002B04D1FFF798FF044B01221A70FFF7E3FF034B01221A6000BF80BD83C1FF1F00E100E080B582B000AFA64B1B78FB71A54B1B7814
:4055C000DBB203F04003DBB2002B00F0CD81FB7903F00103002B00F0A4819E4B1B78DBB2453B052B00F2998101A252F823F000BF095600004F5700001B5900001B590000D6
:405600000956000085580000FB7923F02003FB71FB7903F00A03DBB2082B54D18D4B1B78DBB2452B42D18C4B1B78DBB2002B15D08A4A8B4B1B681B78DBB21370894B062271
:405640001A70894BFF221A70884B00221A70884B01221A707F4B46221A7062E1854B1B78DBB203F00203002B0ED0834B1B78DBB243F00A03DAB2804B1A70764B60221A7056
:405680007E4B01221A604CE17D4A7D4B1B78DBB243F02003DBB21370724B52221A70724BFF221A70714B00221A703AE16D4B02221A706D4BFF221A706C4B00221A70654BC0
:4056C0004A221A702DE1FB7903F00A03DBB20A2B39D1694B1B78DBB263F05F03DAB2664B1A70644B1B78DBB203F00203002B18D0584B1B78DBB203F00803002B01D0092353
:4057000000E00A23DAB25C4B1B78DBB21343DAB2594B1A704F4B60221A70584B01221A60FFE0574A564B1B78DBB243F02003DBB213704C4B52221A704B4BFF221A704B4B00
:4057400000221A70EDE00020FFF7DAFAE9E0FB7903F00203002B4AD1454B1B78DAB23E4B1B78DBB29A421AD23C4A3D4B1B6840490978C9B20B441B78DBB21370394B062277
:405780001A70394BFF221A70384B00221A70384B1B78DBB20133DAB2354B1A70C1E0354B1B78DBB203F00203002B0ED0324B1B78DBB243F00A03DAB22F4B1A70254B6022F3
:4057C0001A702E4B01221A60ABE02D4A2C4B1B78DBB243F02003DBB21370224B52221A70214BFF221A70214B00221A7099E0214B1B78DBB203F00203002B0ED01E4B1B786E
:40580000DBB263F06503DAB21B4B1A70114B60221A701A4B01221A6083E0194A184B1B78DBB243F02003DBB213700E4B52221A700D4BFF221A700D4B00221A700E4B1B7841
:40584000DBB263F06F03DAB20B4B1A7069E000BF64640040B5C2FF1FBEC2FF1F07640040B8C2FF1F766400401764004057640040BCC2FF1FBDC2FF1FBFC2FF1F80E100E0FB
:4058800084640040404B1B68404A1278D2B213443F4A1278D2B21A703C4B1B78DBB20133DAB23A4B1A70394B1B78DAB2394B1B78DBB29A4209D2384B02221A70374BFF225A
:4058C0001A70374B00221A702BE0364B1B78DBB203F00203002B0ED0334B1B78DBB243F00903DAB2304B1A70304B60221A70304B01221A6015E02F4A2E4B1B78DBB243F0FC
:405900002003DBB21370244B12221A70234BFF221A70234B00221A7003E00020FFF7F0F900BFFB7903F02003002B28D01F4B1B78DBB203F00803002B01D0012300E00223D9
:40594000DAB2194B1B78DBB21343DAB2164B1A70184A184B1B78DBB223F02003DBB21370124B10221A700AE0104B1B78DBB203F01003DBB2002B02D10C4B10221A7000BF3E
:405980000837BD4680BD00BFC4C2FF1FC1C2FF1F07640040C0C2FF1F766400401764004057640040BDC2FF1FBFC2FF1FB5C2FF1F80E100E08464004080B485B000AF39605E
:4059C00011461A460346FB710B46BB7113467B710223FB733B68002B5DD0324B1B78DBB2102B0CD1304B1B78DBB203F01003002B02D10023FB7314E00123FB7311E0294B1B
:405A00001B78DBB2602B0CD10023FB73274B01221A60274B1B78DBB223F00803DAB2244B1A70FB7B002B36D11E4B45221A70214B00221A70204ABB791370204A3B6813604E
:405A40001F4A7B7913701A4B1B78DBB223F00203DAB2174B1A701B4AFB795B00DBB213707B7903F00103002B09D0174B32221A70164BFF221A70164B00221A7008E0124B60
:405A800082221A70114BFF221A70114B00221A70104B01221A60FB7B18461437BD4680BC704700BFB5C2FF1F6464004080E200E0BFC2FF1FBCC2FF1FBEC2FF1FB8C2FF1F8D
:405AC000BDC2FF1F0764004076640040176400405764004000E100E080B485B000AF396011461A460346FB710B46BB7113467B710223FB733B68002B60D0334B1B78DBB2BF
:405B0000102B0CD1314B1B78DBB203F01003002B02D10023FB7314E00123FB7311E02A4B1B78DBB2602B0CD10023FB73284B01221A60284B1B78DBB223F00803DAB2254B5A
:405B40001A70FB7B002B39D11F4B49221A70224B00221A70214ABB791370214A3B681360204A7B7913701B4B1B78DBB223F00103DAB2184B1A701C4AFB795B00DBB243F0E9
:405B80000103DBB213707B7903F00103002B09D0164B32221A70164BFF221A70154B00221A7008E0114B82221A70114BFF221A70104B00221A70104B01221A60FB7B18463F
:405BC0001437BD4680BC7047B5C2FF1F6464004080E200E0BFC2FF1FC1C2FF1FC0C2FF1FC4C2FF1FBDC2FF1F0764004076640040176400405764004000E100E080B485B0BF
:405C000000AF03460A46FB711346BB710223FB73294B1B78DBB2102B47D1284B1B78DBB203F01003002B3ED1254B01221A60FB795B00FB71BB79002B07D0FB7943F00103B5
:405C4000FB711D4B49221A7002E01B4B45221A701C4AFB7913701C4B82221A701B4BFF221A701B4B00221A7000BF184B1B78DBB2002BFAD100BF114B1B78DBB203F00103A3
:405C8000002BF8D00D4B1B78DBB203F00A03DBB20A2B05D1084B10221A700323FB7304E00023FB7301E00123FB73FB7B18461437BD4680BC704700BFB5C2FF1F64640040E5
:405CC00080E100E00764004076640040176400405764004080B483B000AF0223FB71144B1B78DBB203F00403002B1BD0114B52221A70114BFF221A70104B00221A7000BF8B
:405D00000D4B1B78DBB2002BFAD10D4B10221A7000BF074B1B78DBB203F02103002BF8D00023FB71FB7918460C37BD4680BC70476464004076640040176400405764004034
:405D4000B5C2FF1F80B485B000AF0346FB710223FB731E4B1B78DBB203F00403002B2ED01B4AFB7913701B4B06221A701A4BFF221A701A4B00221A7000BF174B1B78DBB2AC
:405D8000002BFAD1164B46221A7000BF0F4B1B78DBB203F00103002BF8D00C4B1B78DBB203F00203002B05D10D4B60221A700023FB7304E00A4B60221A700323FB73FB7BC3
:405DC00018461437BD4680BC704700BF6464004007640040766400401764004057640040B5C2FF1F80B485B000AF0346FB710023FB73224B1B78DBB203F00403002B37D016
:405E00001F4B1B78DBB2492B11D11E4B02221A701D4BFF221A701D4B00221A7000BF1A4B1B78DBB2002BFAD1154B4A221A7000BF124B1B78DBB203F00103002BF8D0144B2F
:405E40001B78FB73FB79002B0FD00E4B02221A700D4BFF221A700D4B00221A7000BF0A4B1B78DBB2002BFAD102E0054B60221A70FB7B18461437BD4680BC70476464004010
:405E8000B5C2FF1F7664004017640040576400400764004080B483B000AF0D4B01221A600C4B1B78FB710C4B1B78DBB203F04003DBB2002B03D0FB7943F00403FB71074BCD
:405EC00001221A60FB7918460C37BD4680BC704780E100E0BFC2FF1FB5C2FF1F00E100E080B483B000AF094B01221A60084B1B78FB71074B00221A70064B01221A60FB790B
:405F000018460C37BD4680BC704700BF80E100E0BFC2FF1F00E100E0142816D902B4012114381049097811F0C001890904B40E4A515C04BC00BF00BF00BF8841FDD500BFD9
:405F400000BF02BC704700BF00BF70F10400FCD570470B050709EFF3108072B6704780F31088704700480040525F000080B582B000AF0023BB711F4B1B78DBB203F003032E
:405F8000012B02D0022B04D012E01A4B1B79FB7111E0184B1B79DBB203F07F02164913465B0013449B000B440A331B78FB7102E00023FB7100BFFB79022B15D80F4B1A6878
:405FC000FB7913441B78022B06D0032B09D1FDF7E1F80346BB7107E0FCF78CFB0346BB7102E00023BB7100BFBB7918460837BD4680BD00BF0060004024C2FF1F18C2FF1FC4
:40600000014B1868704700BF5CC1FF1F0E4B70B51E460E4C0025E41AA410A54204D056F8253098470135F8E701F024FE084B094C1E46E41AA4100025A54204D056F825302A
:4060400098470135F8E770BD807C0000807C0000807C0000887C000010B5431E0A44914204D011F8014B03F8014FF8E710BD03460244934202D003F8011BFAE770470000BB
:406080000EB400B54FF402719CB0ADF814106FF00041049107914FF6FF711DAB02900690084853F8042BADF81610006802A9019300F07AF8029B00221A701CB05DF804EB35
:4060C00003B070475CC1FF1F024610B513461C780132002CFAD1013B11F8012B03F8012F002AF9D110BD034613F8012B002AFBD1181A013870472DE9F0478E6882469E42F7
:406100000C46914698463ED88A8912F4906F3AD02568096902236F1A656905EB450595FBF3F57B1C43449D4238BF1D4653050FD5294600F03FFB064698B13A462169FFF732
:406140008BFFA38923F4906343F08003A38113E02A4600F08DFB064670B92169504600F0DDFA0C23CAF80030A3894FF0FF3043F04003A381BDE8F08726613E4426604646C2
:406180006561ED1BA560464528BF464649463246206800F0A7FAA36800209B1BA36023681E442660BDE8F0872DE9F04F9DB003938B8980461C060D4616460DD50B695BB92E
:4061C000402100F0F7FA2860286118B90C23C8F80030CDE040236B610023099320238DF82930DFF89CB130238DF82A3037463C4614F8013B1BB9B7EB060910D003E0252B6B
:40620000F9D02746F3E74B46324629464046FFF772FF013000F0A780099B4B4409933B78002B00F0A08000234FF0FF3204930793059206938DF853301A9301260522217854
:406240004E4800F041FA671C049B38B14B4A3C46801A06FA00F018430490EFE7D90644BF20228DF853201A0744BF2B228DF8532022782A2A03D0079A00210A200BE0039A32
:40628000111D12680391002A10DA524243F00200079204900BE027463B780134303B092B03D800FB02320121F5E701B107923B782E2B1ED17B782A2B0AD1039B02371A1D3A
:4062C0001B680392002BB8BF4FF0FF33059310E0002319460593781C0A2407463A780130303A092A03D804FB01210123F5E703B1059103223978224800F0E6F940B1402399
:40630000CBEB000003FA00F0049B013718430490397806221B487E1C8DF8281000F0D4F988B1194B33B9039B073323F007030833039314E003AB00932A46144B04A940461E
:40634000AFF3008007E003AB00932A460F4B04A9404600F093F8B0F1FF3F824603D0099B5344099342E7AB895B0601D4099801E04FF0FF301DB0BDE8F08F00BF3E7C00001D
:40638000447C0000487C000000000000F76000002DE9F04791461F460A698B6806469342B8BF1346C9F8003091F843200C46DDF8208012B10133C9F800302368990642BF6B
:4063C000D9F800300233C9F80030256815F0060510D104F1190A07E00123524639463046C04701301AD00135E368D9F800209B1A9D42F1DB94F843302268003318BF01239D
:4064000092060FD5E118302081F843005A1C94F845102244023382F8431003E04FF0FF30BDE8F08704F1430239463046C0470130F4D02268D9F80050E36802F00602042A66
:4064400008BF5D1B2269A3680CBF25EAE57500259342C4BF9B1AED184FF000091A344D4509D00123224639463046C0470130D5D009F10109F3E70020BDE8F0872DE9F0431A
:4064800017460A7E85B06E2A984606460C460C9B01F1430E00F0AE8011D8632A22D009D8002A00F0BB80582A40F0CA8081F84520834955E0642A1ED0692A1CD0C0E0732AF5
:4064C00000F0B08009D86F2A2ED0702A40F0B8800A6842F020020A603EE0752A24D0782A3AD0ADE01A6801F14205111D1960136884F84230A8E021681A6811F0800F02D028
:40650000111D196008E011F0400F02F10401196002D0B2F9003000E01368002B3CDA2D225B4284F8432037E021681A6811F0800F02D0111D196007E011F0400F02F104019D
:40654000196001D0138800E01368227E5C496F2A14BF0A2208221BE078225A4984F845202268186812F0800F00F104051D6003D1550601D5038800E00368D00744BF42F0C2
:40658000200222601BB9226822F0200222601022002084F8430001E049490A226568002DA56008DB206820F0040020602BB9002D7DD175460CE0002B79D07546B3FBF2F0B0
:4065C00002FB1033CB5C05F8013D03460028F5D1082A0BD12368DA0708D5236962689A42DEBF302305F8013C05F1FF35C5EB0E0323612EE008681A6810F0800F496903D08C
:40660000101D1860136808E010F0400F02F104001860136801D0198000E0196000232361754616E01A68111D1960156800216268284600F049F808B1401B6060636804E04B
:4066400004F1420584F8422001232361002384F84330CDF800803B4603AA21463046FFF797FE013002D14FF0FF3026E023692A4639463046C0470130F5D023689B0710D5F3
:40668000002504F1190907E001234A4639463046C0470130E7D00135E368039A9B1A9D42F2DBE068039B9842B8BF184605E00B7804F1420584F842308AE705B0BDE8F0833B
:4066C0004F7C0000607C000010B5C9B202449042034605D01C7801308C42F8D1184610BD002010BD884210B501EB020301D8421E0BE09842FBD28118D21AD34204D013F845
:40670000014D01F8014DF8E710BD994204D011F8014B02F8014FF8E710BD000038B50546002944D051F8043C0C1F002BB8BFE41800F0D4F81E4A1368114613B9636014605E
:4067400030E0A3420DD92268A018834201BF18685B681218226063600C6023E0A24203D813465A68002AF9D118681918A1420BD12168014458188242196013D11068526887
:40678000014419605A600DE002D90C232B6009E021686018824201BF106852680918216062605C602846BDE8384000F098B838BD88C1FF1F70B5CD1C25F0030508350C2D57
:4067C00038BF0C25002D064601DBA94202D90C23336046E000F082F8234B1C681A462146A1B10B685B1B0ED40B2B03D90B60CC18CD501EE08C420BBF63684B681360636066
:4068000018BF0C4615E00C464968E9E7174C23681BB9304600F052F820602946304600F04DF8431C18D0C41C24F00304A0420DD12560304600F053F804F10B00231D20F0D3
:406840000700C31A0ED05A42E25070BD211A304600F034F80130EBD10C233360304600F03EF8002070BD00BF88C1FF1F84C1FF1FF8B5074615460E4621B91146BDE8F840B6
:40688000FFF798BF1AB9FFF749FF2846F8BD00F027F885420ED929463846FFF78BFF044650B131462A46FFF7D7FB31463846FFF735FF01E03046F8BD2046F8BD38B5064CAE
:4068C0000023054608462360FBF732FB431C02D1236803B12B6038BDECC2FF1F7047704751F8040C0028BEBF091851F8043CC018043870470000000025303478200000007B
:406900002025303278000000202000000A0D0000522D5069010002006D0000000100000031000000C0E97339595C8BAF624F1932FE3F2DD5050001000F0A6C616E642D623B
:406940006F617264732E636F6D5250502D55494F2D3136F29F0200010020000000000000000000000000000000000000000000000000000000000000000000ED6E000000E2
:40698000522D5069010002007500000001000000390000007B276F9972256CBD33463E359FC8A73E040001000F126C616E642D626F617264732E636F6D52415350492D5075
:4069C0004C55532D4756532D4346477A430200010020000000000000000000000000000000000000000000000000000000000000000000ED6E000000522D50690100020013
:406A000069000000010000002D0000004B1F090F7FF8178B674A555836E2DE6E060001000F066C616E642D626F617264732E636F6D525050534F43E4740200010020000040
:406A400000000000000000000000000000000000000000000000000000000000000000ED6E0000000A0D4C616E6420426F617264732C204C4C43202D2052506920436172D5
:406A80006420546573742053746174696F6E0A0D0000000031202D2053656C656374205250502D55494F2D313620436172640A0D0000000032202D2053656C6563742052B9
:406AC0005050534F4320436172640A0D0000000033202D2053656C6563742052415350492D504C55532D4756532D43464720436172640A0D0000000034202D2053656C655B
:406B000063742052415350492D47565320436172640A0D0035202D2053656C6563742052415350492D504C55532D47565320436172640A0D0000000036202D2053656C6505
:406B40006374205250492D4932432D48554220436172640A0D00000037202D2053656C656374205250492D5350493820436172640A0D000052202D20526561642045455045
:406B8000524F4D0A0D00000057202D20577269746520454550524F4D0A0D000042202D20426F756E6365204C4544206163726F73732043617264204750494F730A0D0000E4
:406BC00054202D205465737420436172640A0D0044202D20446562756720436172640A0D000000003F202D205072696E742074686973206D656E750A0D0000005265616441
:406C00002066726F6D2074686520454550524F4D0A0D00004D7573742066697273742073656C656374206361726420747970650A0D000000577269746520746F207468656D
:406C400020454550524F4D2E2E2E0000436F6D706C6574656420454550524F4D2077726974650A0D00000000454550524F4D207772697465206661696C65642028646F65A3
:406C80007320746869732063617264206861766520616E20454550524F4D3F0A0D00000054657374696E67205250492D4932432D48554220696E7075742C20706C6561734D
:406CC0006520776169740A0D00000000436F6D706C657465642054657374696E67205250492D4932432D48554220696E7075740A0D00000054657374696E67205250492D29
:406D00005350493820696E7075742C20706C6561736520776169740A0D000000436F6D706C657465642054657374696E67205250492D5350493820696E7075740A0D0000CF
:406D400043617264206E6F742079657420696D706C656D656E7465640A0D0000426C696E6B696E6720746865204C454473206F6E207468652052617350492D504C55532D19
:406D80004756532D43464720636172642C20706C6561736520776169740A0D00436F6D706C6574656420626C696E6B696E6720746865204C454473206F6E207468652052D6
:406DC000617350492D504C55532D4756532D43464720636172640A0D00000000426C696E6B696E6720746865204C454473206F6E207468652052415350492D504C55532D38
:406E000047565320636172642C20706C6561736520776169740A0D00436F6D706C6574656420626C696E6B696E6720746865204C454473206F6E2074686520524153504925
:406E40002D504C55532D47565320636172640A0D00000000426C696E6B696E6720746865204C454473206F6E207468652052415350492D47565320636172642C20706C655B
:406E800061736520776169740A0D0000436F6D706C6574656420626C696E6B696E6720746865204C454473206F6E207468652052415350492D47565320636172640A0D00EE
:406EC000426C696E6B696E6720746865204C454473206F6E20746865205250502D55494F2D313620636172642C20706C6561736520776169740A0D00436F6D706C657465D8
:406F00006420626C696E6B696E6720746865204C454473206F6E20746865205250502D55494F2D313620636172640A0D00000000426C696E6B696E67207468652044494744
:406F4000494F2D382043617264204C4544732C20706C6561736520776169740A0D000000436F6D706C6574656420626C696E6B696E6720746865204C4544730A0D00000075
:406F8000426C696E6B696E6720746865205250492D535049382043617264204C4544732C2068697420454E54455220746F20657869740A0D00000000446562756767696E9C
:406FC00067207468652052617350492D504C55532D4756532D43464720636172640A0D00436F6D706C6574656420646562756767696E67207468652052617350492D504C1C
:4070000055532D4756532D43464720636172640A0D000000446562756767696E67207468652052415350492D504C55532D47565320636172640A0D00436F6D706C65746599
:407040006420646562756767696E67207468652052415350492D504C55532D47565320636172640A0D000000446562756767696E67207468652052415350492D47565320B8
:40708000636172640A0D0000436F6D706C6574656420646562756767696E67207468652052415350492D47565320636172640A0D00000000446562756767696E6720746840
:4070C00065205250502D55494F2D313620636172640A0D00436F6D706C6574656420646562756767696E6720746865205250502D55494F2D313620636172640A0D0000003F
:40710000446562756767696E6720746865205250492D4932432D48554220636172640A0D00000000436F6D706C6574656420646562756767696E6720746865205250492D8D
:407140004932432D48554220436172640A0D0000446562756767696E6720746865205250492D5350493820636172640A0D000000436F6D706C65746564206465627567674F
:40718000696E6720746865205250492D5350493820436172640A0D0053656C6563746564205250502D55494F2D313620636172640A0D000053656C6563746564205250502E
:4071C000534F4320636172640A0D000053656C65637465642052415350492D504C55532D4756532D43464720636172640A0D000053656C6563746564205241535049475650
:407200005320636172640A0D0000000053656C65637465642052415350492D504C55532D47565320636172640A0D000053656C6563746564205250492D4932432D485542D8
